{
  "contractName": "Todo",
  "abi": [
    {
      "inputs": [],
      "payable": false,
      "stateMutability": "nonpayable",
      "type": "constructor"
    },
    {
      "anonymous": false,
      "inputs": [
        {
          "indexed": false,
          "name": "",
          "type": "uint256"
        },
        {
          "indexed": false,
          "name": "",
          "type": "uint256"
        },
        {
          "indexed": false,
          "name": "",
          "type": "string"
        },
        {
          "indexed": false,
          "name": "",
          "type": "string"
        },
        {
          "indexed": false,
          "name": "",
          "type": "string"
        },
        {
          "indexed": false,
          "name": "",
          "type": "bool"
        }
      ],
      "name": "TaskCreated",
      "type": "event"
    },
    {
      "constant": false,
      "inputs": [
        {
          "name": "_title",
          "type": "string"
        },
        {
          "name": "_description",
          "type": "string"
        },
        {
          "name": "_author",
          "type": "string"
        }
      ],
      "name": "createTask",
      "outputs": [],
      "payable": false,
      "stateMutability": "nonpayable",
      "type": "function"
    },
    {
      "constant": true,
      "inputs": [],
      "name": "getTaskIds",
      "outputs": [
        {
          "name": "",
          "type": "uint256[]"
        }
      ],
      "payable": false,
      "stateMutability": "view",
      "type": "function"
    },
    {
      "constant": true,
      "inputs": [
        {
          "name": "id",
          "type": "uint256"
        }
      ],
      "name": "getTask",
      "outputs": [
        {
          "name": "",
          "type": "uint256"
        },
        {
          "name": "",
          "type": "uint256"
        },
        {
          "name": "",
          "type": "string"
        },
        {
          "name": "",
          "type": "string"
        },
        {
          "name": "",
          "type": "string"
        },
        {
          "name": "",
          "type": "bool"
        }
      ],
      "payable": false,
      "stateMutability": "view",
      "type": "function"
    }
  ],
  "bytecode": "0x608060405234801561001057600080fd5b5060008081905550610afc806100276000396000f3fe608060405234801561001057600080fd5b50600436106100415760003560e01c80631d65e77e14610046578063bcd14805146101de578063d2344f0a1461023d575b600080fd5b6100726004803603602081101561005c57600080fd5b8101908080359060200190929190505050610426565b6040518087815260200186815260200180602001806020018060200185151515158152602001848103845288818151815260200191508051906020019080838360005b838110156100d05780820151818401526020810190506100b5565b50505050905090810190601f1680156100fd5780820380516001836020036101000a031916815260200191505b50848103835287818151815260200191508051906020019080838360005b8381101561013657808201518184015260208101905061011b565b50505050905090810190601f1680156101635780820380516001836020036101000a031916815260200191505b50848103825286818151815260200191508051906020019080838360005b8381101561019c578082015181840152602081019050610181565b50505050905090810190601f1680156101c95780820380516001836020036101000a031916815260200191505b50995050505050505050505060405180910390f35b6101e6610726565b6040518080602001828103825283818151815260200191508051906020019060200280838360005b8381101561022957808201518184015260208101905061020e565b505050509050019250505060405180910390f35b6104246004803603606081101561025357600080fd5b810190808035906020019064010000000081111561027057600080fd5b82018360208201111561028257600080fd5b803590602001918460018302840111640100000000831117156102a457600080fd5b91908080601f016020809104026020016040519081016040528093929190818152602001838380828437600081840152601f19601f8201169050808301925050505050505091929192908035906020019064010000000081111561030757600080fd5b82018360208201111561031957600080fd5b8035906020019184600183028401116401000000008311171561033b57600080fd5b91908080601f016020809104026020016040519081016040528093929190818152602001838380828437600081840152601f19601f8201169050808301925050505050505091929192908035906020019064010000000081111561039e57600080fd5b8201836020820111156103b057600080fd5b803590602001918460018302840111640100000000831117156103d257600080fd5b91908080601f016020809104026020016040519081016040528093929190818152602001838380828437600081840152601f19601f82011690508083019250505050505050919291929050505061077e565b005b60008060608060606000866000600260008381526020019081526020016000206000015414156104be576040517f08c379a00000000000000000000000000000000000000000000000000000000081526004018080602001828103825260088152602001807f6e6f207461736b7300000000000000000000000000000000000000000000000081525060200191505060405180910390fd5b87600260008a815260200190815260200160002060010154600260008b8152602001908152602001600020600201600260008c8152602001908152602001600020600301600260008d8152602001908152602001600020600401600260008e815260200190815260200160002060050160009054906101000a900460ff16838054600181600116156101000203166002900480601f0160208091040260200160405190810160405280929190818152602001828054600181600116156101000203166002900480156105d15780601f106105a6576101008083540402835291602001916105d1565b820191906000526020600020905b8154815290600101906020018083116105b457829003601f168201915b50505050509350828054600181600116156101000203166002900480601f01602080910402602001604051908101604052809291908181526020018280546001816001161561010002031660029004801561066d5780601f106106425761010080835404028352916020019161066d565b820191906000526020600020905b81548152906001019060200180831161065057829003601f168201915b50505050509250818054600181600116156101000203166002900480601f0160208091040260200160405190810160405280929190818152602001828054600181600116156101000203166002900480156107095780601f106106de57610100808354040283529160200191610709565b820191906000526020600020905b8154815290600101906020018083116106ec57829003601f168201915b505050505091509650965096509650965096505091939550919395565b6060600180548060200260200160405190810160405280929190818152602001828054801561077457602002820191906000526020600020905b815481526020019060010190808311610760575b5050505050905090565b60008081548092919060010191905055506040518060c00160405280600054815260200142815260200184815260200183815260200182815260200160001515815250600260008054815260200190815260200160002060008201518160000155602082015181600101556040820151816002019080519060200190610805929190610a2b565b506060820151816003019080519060200190610822929190610a2b565b50608082015181600401908051906020019061083f929190610a2b565b5060a08201518160050160006101000a81548160ff021916908315150217905550905050600160005490806001815401808255809150509060018203906000526020600020016000909192909190915055507f72c61ab6fc1b9c5fdcc7a46fa3d5b65d38989bfc5388ac6ad50867912dc12cc16000544285858560006040518087815260200186815260200180602001806020018060200185151515158152602001848103845288818151815260200191508051906020019080838360005b838110156109195780820151818401526020810190506108fe565b50505050905090810190601f1680156109465780820380516001836020036101000a031916815260200191505b50848103835287818151815260200191508051906020019080838360005b8381101561097f578082015181840152602081019050610964565b50505050905090810190601f1680156109ac5780820380516001836020036101000a031916815260200191505b50848103825286818151815260200191508051906020019080838360005b838110156109e55780820151818401526020810190506109ca565b50505050905090810190601f168015610a125780820380516001836020036101000a031916815260200191505b50995050505050505050505060405180910390a1505050565b828054600181600116156101000203166002900490600052602060002090601f016020900481019282601f10610a6c57805160ff1916838001178555610a9a565b82800160010185558215610a9a579182015b82811115610a99578251825591602001919060010190610a7e565b5b509050610aa79190610aab565b5090565b610acd91905b80821115610ac9576000816000905550600101610ab1565b5090565b9056fea165627a7a723058205b47f919da29d5ecbb6a11c8ecebbaf039b2657cab6977a547b073e31db56f530029",
  "source": "pragma solidity ^0.5.0;\n\ncontract Todo {\n  struct Task {\n    uint id;\n    uint date;\n    string title;\n    string description;\n    string author;\n    bool done;\n  }\n\n  uint lastTaskId;\n  uint[] taskIds;\n  mapping(uint => Task) tasks;\n\n  event TaskCreated(uint, uint, string, string, string, bool);\n\n  constructor () public {\n    lastTaskId = 0;\n  }\n\n  function createTask(string memory _title, string memory _description, string memory _author) public {\n    lastTaskId++;\n    tasks[lastTaskId] = Task(lastTaskId, block.timestamp, _title, _description, _author, false);\n    taskIds.push(lastTaskId);\n    emit TaskCreated(lastTaskId, block.timestamp, _title, _description, _author, false);\n  }\n\n  function getTaskIds() public view returns(uint[] memory) {\n    return taskIds;\n  }\n\n  function getTask(uint id) public taskExists(id)  view returns(\n    uint,\n    uint,\n    string memory,\n    string memory,\n    string memory,\n    bool\n  ) {\n    return (\n      id,\n      tasks[id].date,\n      tasks[id].title,\n      tasks[id].description,\n      tasks[id].author,\n      tasks[id].done\n    );\n  }\n\n  modifier taskExists(uint id) {\n    require(tasks[id].id != 0, \"no tasks\");\n    _;\n  }\n}",
  "sourcePath": "/Users/tech/dev/prd/programming-lectures/lesson005/contracts/Todo.sol",
  "compiler": {
    "name": "solc",
    "version": "0.5.8+commit.23d335f2.Emscripten.clang"
  },
  "schemaVersion": "3.0.10",
  "updatedAt": "2019-06-04T10:37:50.821Z",
  "devdoc": {
    "methods": {}
  },
  "userdoc": {
    "methods": {}
  }
}