{
  "contractName": "Todo",
  "abi": [
    {
      "constant": false,
      "inputs": [
        {
          "name": "_title",
          "type": "string"
        },
        {
          "name": "_description",
          "type": "string"
        },
        {
          "name": "_author",
          "type": "string"
        }
      ],
      "name": "createTask",
      "outputs": [],
      "payable": false,
      "stateMutability": "nonpayable",
      "type": "function"
    },
    {
      "constant": true,
      "inputs": [
        {
          "name": "id",
          "type": "uint256"
        }
      ],
      "name": "getTask",
      "outputs": [
        {
          "name": "",
          "type": "uint256"
        },
        {
          "name": "",
          "type": "uint256"
        },
        {
          "name": "",
          "type": "string"
        },
        {
          "name": "",
          "type": "string"
        },
        {
          "name": "",
          "type": "string"
        },
        {
          "name": "",
          "type": "bool"
        }
      ],
      "payable": false,
      "stateMutability": "view",
      "type": "function"
    }
  ],
  "bytecode": "0x608060405234801561001057600080fd5b5061081b806100206000396000f3fe608060405234801561001057600080fd5b50600436106100365760003560e01c80631d65e77e1461003b578063d2344f0a146101d3575b600080fd5b6100676004803603602081101561005157600080fd5b81019080803590602001909291905050506103bc565b6040518087815260200186815260200180602001806020018060200185151515158152602001848103845288818151815260200191508051906020019080838360005b838110156100c55780820151818401526020810190506100aa565b50505050905090810190601f1680156100f25780820380516001836020036101000a031916815260200191505b50848103835287818151815260200191508051906020019080838360005b8381101561012b578082015181840152602081019050610110565b50505050905090810190601f1680156101585780820380516001836020036101000a031916815260200191505b50848103825286818151815260200191508051906020019080838360005b83811015610191578082015181840152602081019050610176565b50505050905090810190601f1680156101be5780820380516001836020036101000a031916815260200191505b50995050505050505050505060405180910390f35b6103ba600480360360608110156101e957600080fd5b810190808035906020019064010000000081111561020657600080fd5b82018360208201111561021857600080fd5b8035906020019184600183028401116401000000008311171561023a57600080fd5b91908080601f016020809104026020016040519081016040528093929190818152602001838380828437600081840152601f19601f8201169050808301925050505050505091929192908035906020019064010000000081111561029d57600080fd5b8201836020820111156102af57600080fd5b803590602001918460018302840111640100000000831117156102d157600080fd5b91908080601f016020809104026020016040519081016040528093929190818152602001838380828437600081840152601f19601f8201169050808301925050505050505091929192908035906020019064010000000081111561033457600080fd5b82018360208201111561034657600080fd5b8035906020019184600183028401116401000000008311171561036857600080fd5b91908080601f016020809104026020016040519081016040528093929190818152602001838380828437600081840152601f19601f820116905080830192505050505050509192919290505050610655565b005b6000806060806060600086600088815481106103d457fe5b906000526020600020906006020160010154600089815481106103f357fe5b906000526020600020906006020160020160008a8154811061041157fe5b906000526020600020906006020160030160008b8154811061042f57fe5b906000526020600020906006020160040160008c8154811061044d57fe5b906000526020600020906006020160050160009054906101000a900460ff16838054600181600116156101000203166002900480601f0160208091040260200160405190810160405280929190818152602001828054600181600116156101000203166002900480156105015780601f106104d657610100808354040283529160200191610501565b820191906000526020600020905b8154815290600101906020018083116104e457829003601f168201915b50505050509350828054600181600116156101000203166002900480601f01602080910402602001604051908101604052809291908181526020018280546001816001161561010002031660029004801561059d5780601f106105725761010080835404028352916020019161059d565b820191906000526020600020905b81548152906001019060200180831161058057829003601f168201915b50505050509250818054600181600116156101000203166002900480601f0160208091040260200160405190810160405280929190818152602001828054600181600116156101000203166002900480156106395780601f1061060e57610100808354040283529160200191610639565b820191906000526020600020905b81548152906001019060200180831161061c57829003601f168201915b5050505050915095509550955095509550955091939550919395565b60006040518060c0016040528060008054905081526020014281526020018581526020018481526020018381526020016000151581525090806001815401808255809150509060018203906000526020600020906006020160009091929091909150600082015181600001556020820151816001015560408201518160020190805190602001906106e792919061074a565b50606082015181600301908051906020019061070492919061074a565b50608082015181600401908051906020019061072192919061074a565b5060a08201518160050160006101000a81548160ff021916908315150217905550505050505050565b828054600181600116156101000203166002900490600052602060002090601f016020900481019282601f1061078b57805160ff19168380011785556107b9565b828001600101855582156107b9579182015b828111156107b857825182559160200191906001019061079d565b5b5090506107c691906107ca565b5090565b6107ec91905b808211156107e85760008160009055506001016107d0565b5090565b9056fea165627a7a7230582000cf89e01a1f78037207dabd2bf762a1a02e7b02028c9ccff7438b45866cecce0029",
  "source": "pragma solidity ^0.5.0;\n\ncontract Todo {\n  struct Task {\n    uint id;\n    uint date;\n    string title;\n    string description;\n    string author;\n    bool done;\n  }\n\n  Task[] tasks;\n\n  function createTask(string memory _title, string memory _description, string memory _author) public {\n    tasks.push(Task(tasks.length,block.timestamp, _title, _description, _author, false));\n  }\n\n  function getTask(uint id) public view returns(\n    uint,\n    uint,\n    string memory,\n    string memory,\n    string memory,\n    bool\n  ) {\n    return (\n      id,\n      tasks[id].date,\n      tasks[id].title,\n      tasks[id].description,\n      tasks[id].author,\n      tasks[id].done\n    );\n  }\n}",
  "sourcePath": "/Users/tech/dev/lectures/20190604/t4/lesson004/contracts/Todo.sol",
  "compiler": {
    "name": "solc",
    "version": "0.5.8+commit.23d335f2.Emscripten.clang"
  },
  "schemaVersion": "3.0.10",
  "updatedAt": "2019-06-04T09:19:25.805Z",
  "devdoc": {
    "methods": {}
  },
  "userdoc": {
    "methods": {}
  }
}