{
  "contractName": "Todo",
  "abi": [
    {
      "anonymous": false,
      "inputs": [
        {
          "indexed": false,
          "name": "description",
          "type": "string"
        }
      ],
      "name": "TaskEvent",
      "type": "event"
    },
    {
      "constant": false,
      "inputs": [
        {
          "name": "taskName",
          "type": "string"
        }
      ],
      "name": "addTask",
      "outputs": [],
      "payable": false,
      "stateMutability": "nonpayable",
      "type": "function"
    },
    {
      "constant": true,
      "inputs": [
        {
          "name": "i",
          "type": "uint256"
        }
      ],
      "name": "getTask",
      "outputs": [
        {
          "name": "",
          "type": "string"
        }
      ],
      "payable": false,
      "stateMutability": "view",
      "type": "function"
    },
    {
      "constant": false,
      "inputs": [],
      "name": "callEvent",
      "outputs": [],
      "payable": false,
      "stateMutability": "nonpayable",
      "type": "function"
    }
  ],
  "bytecode": "0x608060405234801561001057600080fd5b506103e8806100206000396000f3fe608060405234801561001057600080fd5b50600436106100415760003560e01c80631d65e77e1461004657806367238562146100ed5780637197668b146101a8575b600080fd5b6100726004803603602081101561005c57600080fd5b81019080803590602001909291905050506101b2565b6040518080602001828103825283818151815260200191508051906020019080838360005b838110156100b2578082015181840152602081019050610097565b50505050905090810190601f1680156100df5780820380516001836020036101000a031916815260200191505b509250505060405180910390f35b6101a66004803603602081101561010357600080fd5b810190808035906020019064010000000081111561012057600080fd5b82018360208201111561013257600080fd5b8035906020019184600183028401116401000000008311171561015457600080fd5b91908080601f016020809104026020016040519081016040528093929190818152602001838380828437600081840152601f19601f82011690508083019250505050505050919291929050505061026b565b005b6101b06102ad565b005b6060600082815481106101c157fe5b906000526020600020018054600181600116156101000203166002900480601f01602080910402602001604051908101604052809291908181526020018280546001816001161561010002031660029004801561025f5780601f106102345761010080835404028352916020019161025f565b820191906000526020600020905b81548152906001019060200180831161024257829003601f168201915b50505050509050919050565b60008190806001815401808255809150509060018203906000526020600020016000909192909190915090805190602001906102a8929190610317565b505050565b7f7275f73341fb6978dd57293a67f2bef4793c5300d23f8fe1e2e48701f2ec4aa960405180806020018281038252600a8152602001807f63616c6c206576656e740000000000000000000000000000000000000000000081525060200191505060405180910390a1565b828054600181600116156101000203166002900490600052602060002090601f016020900481019282601f1061035857805160ff1916838001178555610386565b82800160010185558215610386579182015b8281111561038557825182559160200191906001019061036a565b5b5090506103939190610397565b5090565b6103b991905b808211156103b557600081600090555060010161039d565b5090565b9056fea165627a7a72305820678266ba0c83bd7b5487ce74caf77af5a6b175025d35d6b29eec2027b2c84ef50029",
  "source": "pragma solidity ^0.5.0;\n\ncontract Todo {\n  string[] tasks;\n  event TaskEvent(string description);\n\n  function addTask(string memory taskName) public {\n    tasks.push(taskName);\n  }\n\n  function getTask(uint i) public view returns(string memory) {\n    return tasks[i];\n  }\n\n  function callEvent() public {\n    emit TaskEvent(\"call event\");\n  }\n\n}",
  "sourcePath": "/Users/tech/dev/lectures/20190604/t4/lesson003/contracts/Todo.sol",
  "compiler": {
    "name": "solc",
    "version": "0.5.8+commit.23d335f2.Emscripten.clang"
  },
  "schemaVersion": "3.0.10",
  "updatedAt": "2019-06-04T08:58:28.539Z",
  "devdoc": {
    "methods": {}
  },
  "userdoc": {
    "methods": {}
  }
}