{
  "contractName": "ResalePurchaser",
  "abi": [
    {
      "constant": true,
      "inputs": [
        {
          "name": "interfaceId",
          "type": "bytes4"
        }
      ],
      "name": "supportsInterface",
      "outputs": [
        {
          "name": "",
          "type": "bool"
        }
      ],
      "payable": false,
      "stateMutability": "view",
      "type": "function"
    },
    {
      "constant": false,
      "inputs": [
        {
          "name": "cid",
          "type": "uint256"
        },
        {
          "name": "price",
          "type": "uint256"
        },
        {
          "name": "ratio",
          "type": "uint256"
        },
        {
          "name": "limitSupply",
          "type": "uint256"
        },
        {
          "name": "publish",
          "type": "bool"
        }
      ],
      "name": "updateTradeInfo",
      "outputs": [],
      "payable": false,
      "stateMutability": "nonpayable",
      "type": "function"
    },
    {
      "constant": true,
      "inputs": [],
      "name": "count",
      "outputs": [
        {
          "name": "",
          "type": "uint256"
        }
      ],
      "payable": false,
      "stateMutability": "view",
      "type": "function"
    },
    {
      "constant": true,
      "inputs": [],
      "name": "name",
      "outputs": [
        {
          "name": "",
          "type": "string"
        }
      ],
      "payable": false,
      "stateMutability": "view",
      "type": "function"
    },
    {
      "constant": true,
      "inputs": [
        {
          "name": "tokenId",
          "type": "uint256"
        }
      ],
      "name": "getApproved",
      "outputs": [
        {
          "name": "",
          "type": "address"
        }
      ],
      "payable": false,
      "stateMutability": "view",
      "type": "function"
    },
    {
      "constant": false,
      "inputs": [
        {
          "name": "to",
          "type": "address"
        },
        {
          "name": "tokenId",
          "type": "uint256"
        }
      ],
      "name": "approve",
      "outputs": [],
      "payable": false,
      "stateMutability": "nonpayable",
      "type": "function"
    },
    {
      "constant": false,
      "inputs": [
        {
          "name": "account",
          "type": "address"
        }
      ],
      "name": "addWhitelisted",
      "outputs": [],
      "payable": false,
      "stateMutability": "nonpayable",
      "type": "function"
    },
    {
      "constant": true,
      "inputs": [],
      "name": "totalSupply",
      "outputs": [
        {
          "name": "",
          "type": "uint256"
        }
      ],
      "payable": false,
      "stateMutability": "view",
      "type": "function"
    },
    {
      "constant": true,
      "inputs": [
        {
          "name": "tid",
          "type": "uint256"
        }
      ],
      "name": "getResaleContent",
      "outputs": [
        {
          "name": "cid",
          "type": "uint256"
        },
        {
          "name": "title",
          "type": "string"
        },
        {
          "name": "description",
          "type": "string"
        },
        {
          "name": "imgsrc",
          "type": "string"
        },
        {
          "name": "owner",
          "type": "address"
        }
      ],
      "payable": false,
      "stateMutability": "view",
      "type": "function"
    },
    {
      "constant": false,
      "inputs": [
        {
          "name": "from",
          "type": "address"
        },
        {
          "name": "to",
          "type": "address"
        },
        {
          "name": "tokenId",
          "type": "uint256"
        }
      ],
      "name": "transferFrom",
      "outputs": [],
      "payable": false,
      "stateMutability": "nonpayable",
      "type": "function"
    },
    {
      "constant": false,
      "inputs": [
        {
          "name": "account",
          "type": "address"
        }
      ],
      "name": "removeWhitelisted",
      "outputs": [],
      "payable": false,
      "stateMutability": "nonpayable",
      "type": "function"
    },
    {
      "constant": true,
      "inputs": [
        {
          "name": "owner",
          "type": "address"
        },
        {
          "name": "index",
          "type": "uint256"
        }
      ],
      "name": "tokenOfOwnerByIndex",
      "outputs": [
        {
          "name": "",
          "type": "uint256"
        }
      ],
      "payable": false,
      "stateMutability": "view",
      "type": "function"
    },
    {
      "constant": true,
      "inputs": [
        {
          "name": "cid",
          "type": "uint256"
        }
      ],
      "name": "getTradeInfo",
      "outputs": [
        {
          "name": "price",
          "type": "uint256"
        },
        {
          "name": "ratio",
          "type": "uint256"
        },
        {
          "name": "limitSupply",
          "type": "uint256"
        },
        {
          "name": "totalSupply",
          "type": "uint256"
        },
        {
          "name": "publish",
          "type": "bool"
        }
      ],
      "payable": false,
      "stateMutability": "view",
      "type": "function"
    },
    {
      "constant": true,
      "inputs": [
        {
          "name": "account",
          "type": "address"
        }
      ],
      "name": "isWhitelisted",
      "outputs": [
        {
          "name": "",
          "type": "bool"
        }
      ],
      "payable": false,
      "stateMutability": "view",
      "type": "function"
    },
    {
      "constant": true,
      "inputs": [
        {
          "name": "_cid",
          "type": "uint256"
        }
      ],
      "name": "getTradeContent",
      "outputs": [
        {
          "name": "cid",
          "type": "uint256"
        },
        {
          "name": "title",
          "type": "string"
        },
        {
          "name": "description",
          "type": "string"
        },
        {
          "name": "imgsrc",
          "type": "string"
        },
        {
          "name": "owner",
          "type": "address"
        }
      ],
      "payable": false,
      "stateMutability": "view",
      "type": "function"
    },
    {
      "constant": false,
      "inputs": [
        {
          "name": "from",
          "type": "address"
        },
        {
          "name": "to",
          "type": "address"
        },
        {
          "name": "tokenId",
          "type": "uint256"
        }
      ],
      "name": "safeTransferFrom",
      "outputs": [],
      "payable": false,
      "stateMutability": "nonpayable",
      "type": "function"
    },
    {
      "constant": false,
      "inputs": [],
      "name": "renounceWhitelistAdmin",
      "outputs": [],
      "payable": false,
      "stateMutability": "nonpayable",
      "type": "function"
    },
    {
      "constant": true,
      "inputs": [],
      "name": "getLastTid",
      "outputs": [
        {
          "name": "",
          "type": "uint256"
        }
      ],
      "payable": false,
      "stateMutability": "view",
      "type": "function"
    },
    {
      "constant": true,
      "inputs": [
        {
          "name": "index",
          "type": "uint256"
        }
      ],
      "name": "tokenByIndex",
      "outputs": [
        {
          "name": "",
          "type": "uint256"
        }
      ],
      "payable": false,
      "stateMutability": "view",
      "type": "function"
    },
    {
      "constant": true,
      "inputs": [
        {
          "name": "tokenId",
          "type": "uint256"
        }
      ],
      "name": "ownerOf",
      "outputs": [
        {
          "name": "",
          "type": "address"
        }
      ],
      "payable": false,
      "stateMutability": "view",
      "type": "function"
    },
    {
      "constant": true,
      "inputs": [],
      "name": "countTradePurchased",
      "outputs": [
        {
          "name": "",
          "type": "uint256"
        }
      ],
      "payable": false,
      "stateMutability": "view",
      "type": "function"
    },
    {
      "constant": true,
      "inputs": [
        {
          "name": "owner",
          "type": "address"
        }
      ],
      "name": "balanceOf",
      "outputs": [
        {
          "name": "",
          "type": "uint256"
        }
      ],
      "payable": false,
      "stateMutability": "view",
      "type": "function"
    },
    {
      "constant": false,
      "inputs": [
        {
          "name": "account",
          "type": "address"
        }
      ],
      "name": "addWhitelistAdmin",
      "outputs": [],
      "payable": false,
      "stateMutability": "nonpayable",
      "type": "function"
    },
    {
      "constant": false,
      "inputs": [
        {
          "name": "cid",
          "type": "uint256"
        },
        {
          "name": "title",
          "type": "string"
        },
        {
          "name": "description",
          "type": "string"
        },
        {
          "name": "imgsrc",
          "type": "string"
        }
      ],
      "name": "updateContent",
      "outputs": [],
      "payable": false,
      "stateMutability": "nonpayable",
      "type": "function"
    },
    {
      "constant": true,
      "inputs": [],
      "name": "symbol",
      "outputs": [
        {
          "name": "",
          "type": "string"
        }
      ],
      "payable": false,
      "stateMutability": "view",
      "type": "function"
    },
    {
      "constant": false,
      "inputs": [
        {
          "name": "to",
          "type": "address"
        },
        {
          "name": "approved",
          "type": "bool"
        }
      ],
      "name": "setApprovalForAll",
      "outputs": [],
      "payable": false,
      "stateMutability": "nonpayable",
      "type": "function"
    },
    {
      "constant": false,
      "inputs": [
        {
          "name": "cid",
          "type": "uint256"
        }
      ],
      "name": "purchaseTrade",
      "outputs": [],
      "payable": true,
      "stateMutability": "payable",
      "type": "function"
    },
    {
      "constant": true,
      "inputs": [
        {
          "name": "tid",
          "type": "uint256"
        }
      ],
      "name": "getResaleInfo",
      "outputs": [
        {
          "name": "owner",
          "type": "address"
        },
        {
          "name": "seller",
          "type": "address"
        },
        {
          "name": "cid",
          "type": "uint256"
        },
        {
          "name": "price",
          "type": "uint256"
        },
        {
          "name": "limitSupply",
          "type": "uint256"
        },
        {
          "name": "totalSupply",
          "type": "uint256"
        },
        {
          "name": "publish",
          "type": "bool"
        }
      ],
      "payable": false,
      "stateMutability": "view",
      "type": "function"
    },
    {
      "constant": false,
      "inputs": [
        {
          "name": "from",
          "type": "address"
        },
        {
          "name": "to",
          "type": "address"
        },
        {
          "name": "tokenId",
          "type": "uint256"
        },
        {
          "name": "_data",
          "type": "bytes"
        }
      ],
      "name": "safeTransferFrom",
      "outputs": [],
      "payable": false,
      "stateMutability": "nonpayable",
      "type": "function"
    },
    {
      "constant": true,
      "inputs": [
        {
          "name": "account",
          "type": "address"
        }
      ],
      "name": "isWhitelistAdmin",
      "outputs": [
        {
          "name": "",
          "type": "bool"
        }
      ],
      "payable": false,
      "stateMutability": "view",
      "type": "function"
    },
    {
      "constant": true,
      "inputs": [
        {
          "name": "tid",
          "type": "uint256"
        }
      ],
      "name": "getLogTrade",
      "outputs": [
        {
          "name": "cid",
          "type": "uint256"
        },
        {
          "name": "owner",
          "type": "address"
        },
        {
          "name": "purchaser",
          "type": "address"
        }
      ],
      "payable": false,
      "stateMutability": "view",
      "type": "function"
    },
    {
      "constant": true,
      "inputs": [
        {
          "name": "tokenId",
          "type": "uint256"
        }
      ],
      "name": "tokenURI",
      "outputs": [
        {
          "name": "",
          "type": "string"
        }
      ],
      "payable": false,
      "stateMutability": "view",
      "type": "function"
    },
    {
      "constant": false,
      "inputs": [
        {
          "name": "tid",
          "type": "uint256"
        },
        {
          "name": "price",
          "type": "uint256"
        },
        {
          "name": "limitSupply",
          "type": "uint256"
        },
        {
          "name": "publish",
          "type": "bool"
        }
      ],
      "name": "updateResaleInfo",
      "outputs": [],
      "payable": false,
      "stateMutability": "nonpayable",
      "type": "function"
    },
    {
      "constant": false,
      "inputs": [
        {
          "name": "title",
          "type": "string"
        },
        {
          "name": "description",
          "type": "string"
        },
        {
          "name": "imgsrc",
          "type": "string"
        }
      ],
      "name": "createContent",
      "outputs": [],
      "payable": false,
      "stateMutability": "nonpayable",
      "type": "function"
    },
    {
      "constant": false,
      "inputs": [],
      "name": "renounceWhitelisted",
      "outputs": [],
      "payable": false,
      "stateMutability": "nonpayable",
      "type": "function"
    },
    {
      "constant": true,
      "inputs": [
        {
          "name": "owner",
          "type": "address"
        },
        {
          "name": "operator",
          "type": "address"
        }
      ],
      "name": "isApprovedForAll",
      "outputs": [
        {
          "name": "",
          "type": "bool"
        }
      ],
      "payable": false,
      "stateMutability": "view",
      "type": "function"
    },
    {
      "constant": true,
      "inputs": [
        {
          "name": "rid",
          "type": "uint256"
        }
      ],
      "name": "getLogResale",
      "outputs": [
        {
          "name": "",
          "type": "uint256"
        },
        {
          "name": "",
          "type": "uint256"
        },
        {
          "name": "",
          "type": "address"
        },
        {
          "name": "",
          "type": "address"
        },
        {
          "name": "",
          "type": "address"
        }
      ],
      "payable": false,
      "stateMutability": "view",
      "type": "function"
    },
    {
      "constant": true,
      "inputs": [
        {
          "name": "index",
          "type": "uint256"
        }
      ],
      "name": "tradeAtIndex",
      "outputs": [
        {
          "name": "",
          "type": "uint256"
        }
      ],
      "payable": false,
      "stateMutability": "view",
      "type": "function"
    },
    {
      "anonymous": false,
      "inputs": [
        {
          "indexed": true,
          "name": "account",
          "type": "address"
        }
      ],
      "name": "WhitelistedAdded",
      "type": "event"
    },
    {
      "anonymous": false,
      "inputs": [
        {
          "indexed": true,
          "name": "account",
          "type": "address"
        }
      ],
      "name": "WhitelistedRemoved",
      "type": "event"
    },
    {
      "anonymous": false,
      "inputs": [
        {
          "indexed": true,
          "name": "account",
          "type": "address"
        }
      ],
      "name": "WhitelistAdminAdded",
      "type": "event"
    },
    {
      "anonymous": false,
      "inputs": [
        {
          "indexed": true,
          "name": "account",
          "type": "address"
        }
      ],
      "name": "WhitelistAdminRemoved",
      "type": "event"
    },
    {
      "anonymous": false,
      "inputs": [
        {
          "indexed": true,
          "name": "from",
          "type": "address"
        },
        {
          "indexed": true,
          "name": "to",
          "type": "address"
        },
        {
          "indexed": true,
          "name": "tokenId",
          "type": "uint256"
        }
      ],
      "name": "Transfer",
      "type": "event"
    },
    {
      "anonymous": false,
      "inputs": [
        {
          "indexed": true,
          "name": "owner",
          "type": "address"
        },
        {
          "indexed": true,
          "name": "approved",
          "type": "address"
        },
        {
          "indexed": true,
          "name": "tokenId",
          "type": "uint256"
        }
      ],
      "name": "Approval",
      "type": "event"
    },
    {
      "anonymous": false,
      "inputs": [
        {
          "indexed": true,
          "name": "owner",
          "type": "address"
        },
        {
          "indexed": true,
          "name": "operator",
          "type": "address"
        },
        {
          "indexed": false,
          "name": "approved",
          "type": "bool"
        }
      ],
      "name": "ApprovalForAll",
      "type": "event"
    },
    {
      "constant": false,
      "inputs": [
        {
          "name": "tid",
          "type": "uint256"
        },
        {
          "name": "seller",
          "type": "address"
        }
      ],
      "name": "purchaseResale",
      "outputs": [],
      "payable": true,
      "stateMutability": "payable",
      "type": "function"
    },
    {
      "constant": true,
      "inputs": [],
      "name": "countResalePurchased",
      "outputs": [
        {
          "name": "",
          "type": "uint256"
        }
      ],
      "payable": false,
      "stateMutability": "view",
      "type": "function"
    },
    {
      "constant": true,
      "inputs": [
        {
          "name": "index",
          "type": "uint256"
        }
      ],
      "name": "resaleAtIndex",
      "outputs": [
        {
          "name": "",
          "type": "uint256"
        }
      ],
      "payable": false,
      "stateMutability": "view",
      "type": "function"
    }
  ],
  "bytecode": "0x60806040526040518060400160405280601281526020017f4169726520566f6963652041727469636c6500000000000000000000000000008152506040518060400160405280600381526020017f414941000000000000000000000000000000000000000000000000000000000081525081816200008a6301ffc9a760e01b6200011f60201b60201c565b620000a26380ac58cd60e01b6200011f60201b60201c565b620000ba63780e9d6360e01b6200011f60201b60201c565b8160099080519060200190620000d29291906200044d565b5080600a9080519060200190620000eb9291906200044d565b5062000104635b5e139f60e01b6200011f60201b60201c565b5050505062000119336200022860201b60201c565b620004fc565b63ffffffff60e01b817bffffffffffffffffffffffffffffffffffffffffffffffffffffffff19161415620001bc576040517f08c379a000000000000000000000000000000000000000000000000000000000815260040180806020018281038252601c8152602001807f4552433136353a20696e76616c696420696e746572666163652069640000000081525060200191505060405180910390fd5b6001600080837bffffffffffffffffffffffffffffffffffffffffffffffffffffffff19167bffffffffffffffffffffffffffffffffffffffffffffffffffffffff1916815260200190815260200160002060006101000a81548160ff02191690831515021790555050565b6200024381600c6200028960201b62004b791790919060201c565b8073ffffffffffffffffffffffffffffffffffffffff167f22380c05984257a1cb900161c713dd71d39e74820f1aea43bd3f1bdd2096129960405160405180910390a250565b6200029b82826200036d60201b60201c565b156200030f576040517f08c379a000000000000000000000000000000000000000000000000000000000815260040180806020018281038252601f8152602001807f526f6c65733a206163636f756e7420616c72656164792068617320726f6c650081525060200191505060405180910390fd5b60018260000160008373ffffffffffffffffffffffffffffffffffffffff1673ffffffffffffffffffffffffffffffffffffffff16815260200190815260200160002060006101000a81548160ff0219169083151502179055505050565b60008073ffffffffffffffffffffffffffffffffffffffff168273ffffffffffffffffffffffffffffffffffffffff161415620003f6576040517f08c379a000000000000000000000000000000000000000000000000000000000815260040180806020018281038252602281526020018062005c746022913960400191505060405180910390fd5b8260000160008373ffffffffffffffffffffffffffffffffffffffff1673ffffffffffffffffffffffffffffffffffffffff16815260200190815260200160002060009054906101000a900460ff16905092915050565b828054600181600116156101000203166002900490600052602060002090601f016020900481019282601f106200049057805160ff1916838001178555620004c1565b82800160010185558215620004c1579182015b82811115620004c0578251825591602001919060010190620004a3565b5b509050620004d09190620004d4565b5090565b620004f991905b80821115620004f5576000816000905550600101620004db565b5090565b90565b615768806200050c6000396000f3fe6080604052600436106102465760003560e01c80636352211e11610139578063b88d4fde116100b6578063d35216a21161007a578063d35216a214611418578063d6cd947314611548578063df696adf1461155f578063e985e9c5146115ae578063eeb2923014611637578063ff3b01601461172657610246565b8063b88d4fde146110d9578063bb5f747b146111eb578063c6ce7ab814611254578063c87b56dd14611309578063cf40a866146113bd57610246565b80637cfeb18a116100fd5780637cfeb18a14610ebe57806395d89b4114610ee9578063a22cb46514610f79578063aa5ddec614610fd6578063aee7e54c1461100457610246565b80636352211e14610c285780636713ad4d14610ca357806370a0823114610cce5780637362d9c814610d33578063786f7e5714610d8457610246565b806323b872dd116101c75780633b64d29a1161018b5780633b64d29a1461095657806342842e0e14610b1c5780634c5a628c14610b975780634f5a2e1e14610bae5780634f6ccce714610bd957610246565b806323b872dd14610743578063291d9549146107be5780632f745c591461080f57806336c678971461087e5780633af32abf146108ed57610246565b8063095ea7b31161020e578063095ea7b31461045857806310154bad146104b3578063111eb9671461050457806318160ddd146105525780631d143ff51461057d57610246565b806301ffc9a71461024b578063031941ef146102bd57806306661abd1461032257806306fdde031461034d578063081812fc146103dd575b600080fd5b34801561025757600080fd5b506102a36004803603602081101561026e57600080fd5b8101908080357bffffffffffffffffffffffffffffffffffffffffffffffffffffffff19169060200190929190505050611775565b604051808215151515815260200191505060405180910390f35b3480156102c957600080fd5b50610320600480360360a08110156102e057600080fd5b81019080803590602001909291908035906020019092919080359060200190929190803590602001909291908035151590602001909291905050506117dc565b005b34801561032e57600080fd5b50610337611b27565b6040518082815260200191505060405180910390f35b34801561035957600080fd5b50610362611b36565b6040518080602001828103825283818151815260200191508051906020019080838360005b838110156103a2578082015181840152602081019050610387565b50505050905090810190601f1680156103cf5780820380516001836020036101000a031916815260200191505b509250505060405180910390f35b3480156103e957600080fd5b506104166004803603602081101561040057600080fd5b8101908080359060200190929190505050611bd8565b604051808273ffffffffffffffffffffffffffffffffffffffff1673ffffffffffffffffffffffffffffffffffffffff16815260200191505060405180910390f35b34801561046457600080fd5b506104b16004803603604081101561047b57600080fd5b81019080803573ffffffffffffffffffffffffffffffffffffffff16906020019092919080359060200190929190505050611c73565b005b3480156104bf57600080fd5b50610502600480360360208110156104d657600080fd5b81019080803573ffffffffffffffffffffffffffffffffffffffff169060200190929190505050611e4c565b005b6105506004803603604081101561051a57600080fd5b8101908080359060200190929190803573ffffffffffffffffffffffffffffffffffffffff169060200190929190505050611eb6565b005b34801561055e57600080fd5b506105676120bb565b6040518082815260200191505060405180910390f35b34801561058957600080fd5b506105b6600480360360208110156105a057600080fd5b81019080803590602001909291905050506120c8565b604051808681526020018060200180602001806020018573ffffffffffffffffffffffffffffffffffffffff1673ffffffffffffffffffffffffffffffffffffffff168152602001848103845288818151815260200191508051906020019080838360005b8381101561063657808201518184015260208101905061061b565b50505050905090810190601f1680156106635780820380516001836020036101000a031916815260200191505b50848103835287818151815260200191508051906020019080838360005b8381101561069c578082015181840152602081019050610681565b50505050905090810190601f1680156106c95780820380516001836020036101000a031916815260200191505b50848103825286818151815260200191508051906020019080838360005b838110156107025780820151818401526020810190506106e7565b50505050905090810190601f16801561072f5780820380516001836020036101000a031916815260200191505b509850505050505050505060405180910390f35b34801561074f57600080fd5b506107bc6004803603606081101561076657600080fd5b81019080803573ffffffffffffffffffffffffffffffffffffffff169060200190929190803573ffffffffffffffffffffffffffffffffffffffff169060200190929190803590602001909291905050506121dd565b005b3480156107ca57600080fd5b5061080d600480360360208110156107e157600080fd5b81019080803573ffffffffffffffffffffffffffffffffffffffff16906020019092919050505061224c565b005b34801561081b57600080fd5b506108686004803603604081101561083257600080fd5b81019080803573ffffffffffffffffffffffffffffffffffffffff169060200190929190803590602001909291905050506122b6565b6040518082815260200191505060405180910390f35b34801561088a57600080fd5b506108b7600480360360208110156108a157600080fd5b8101908080359060200190929190505050612375565b60405180868152602001858152602001848152602001838152602001821515151581526020019550505050505060405180910390f35b3480156108f957600080fd5b5061093c6004803603602081101561091057600080fd5b81019080803573ffffffffffffffffffffffffffffffffffffffff1690602001909291905050506123e0565b604051808215151515815260200191505060405180910390f35b34801561096257600080fd5b5061098f6004803603602081101561097957600080fd5b81019080803590602001909291905050506123f2565b604051808681526020018060200180602001806020018573ffffffffffffffffffffffffffffffffffffffff1673ffffffffffffffffffffffffffffffffffffffff168152602001848103845288818151815260200191508051906020019080838360005b83811015610a0f5780820151818401526020810190506109f4565b50505050905090810190601f168015610a3c5780820380516001836020036101000a031916815260200191505b50848103835287818151815260200191508051906020019080838360005b83811015610a75578082015181840152602081019050610a5a565b50505050905090810190601f168015610aa25780820380516001836020036101000a031916815260200191505b50848103825286818151815260200191508051906020019080838360005b83811015610adb578082015181840152602081019050610ac0565b50505050905090810190601f168015610b085780820380516001836020036101000a031916815260200191505b509850505050505050505060405180910390f35b348015610b2857600080fd5b50610b9560048036036060811015610b3f57600080fd5b81019080803573ffffffffffffffffffffffffffffffffffffffff169060200190929190803573ffffffffffffffffffffffffffffffffffffffff16906020019092919080359060200190929190505050612504565b005b348015610ba357600080fd5b50610bac612524565b005b348015610bba57600080fd5b50610bc361252f565b6040518082815260200191505060405180910390f35b348015610be557600080fd5b50610c1260048036036020811015610bfc57600080fd5b8101908080359060200190929190505050612539565b6040518082815260200191505060405180910390f35b348015610c3457600080fd5b50610c6160048036036020811015610c4b57600080fd5b81019080803590602001909291905050506125b9565b604051808273ffffffffffffffffffffffffffffffffffffffff1673ffffffffffffffffffffffffffffffffffffffff16815260200191505060405180910390f35b348015610caf57600080fd5b50610cb8612681565b6040518082815260200191505060405180910390f35b348015610cda57600080fd5b50610d1d60048036036020811015610cf157600080fd5b81019080803573ffffffffffffffffffffffffffffffffffffffff1690602001909291905050506126ce565b6040518082815260200191505060405180910390f35b348015610d3f57600080fd5b50610d8260048036036020811015610d5657600080fd5b81019080803573ffffffffffffffffffffffffffffffffffffffff1690602001909291905050506127a3565b005b348015610d9057600080fd5b50610ebc60048036036080811015610da757600080fd5b810190808035906020019092919080359060200190640100000000811115610dce57600080fd5b820183602082011115610de057600080fd5b80359060200191846001830284011164010000000083111715610e0257600080fd5b909192939192939080359060200190640100000000811115610e2357600080fd5b820183602082011115610e3557600080fd5b80359060200191846001830284011164010000000083111715610e5757600080fd5b909192939192939080359060200190640100000000811115610e7857600080fd5b820183602082011115610e8a57600080fd5b80359060200191846001830284011164010000000083111715610eac57600080fd5b909192939192939050505061280d565b005b348015610eca57600080fd5b50610ed3612910565b6040518082815260200191505060405180910390f35b348015610ef557600080fd5b50610efe61295d565b6040518080602001828103825283818151815260200191508051906020019080838360005b83811015610f3e578082015181840152602081019050610f23565b50505050905090810190601f168015610f6b5780820380516001836020036101000a031916815260200191505b509250505060405180910390f35b348015610f8557600080fd5b50610fd460048036036040811015610f9c57600080fd5b81019080803573ffffffffffffffffffffffffffffffffffffffff1690602001909291908035151590602001909291905050506129ff565b005b61100260048036036020811015610fec57600080fd5b8101908080359060200190929190505050612ba2565b005b34801561101057600080fd5b5061103d6004803603602081101561102757600080fd5b8101908080359060200190929190505050612d18565b604051808873ffffffffffffffffffffffffffffffffffffffff1673ffffffffffffffffffffffffffffffffffffffff1681526020018773ffffffffffffffffffffffffffffffffffffffff1673ffffffffffffffffffffffffffffffffffffffff1681526020018681526020018581526020018481526020018381526020018215151515815260200197505050505050505060405180910390f35b3480156110e557600080fd5b506111e9600480360360808110156110fc57600080fd5b81019080803573ffffffffffffffffffffffffffffffffffffffff169060200190929190803573ffffffffffffffffffffffffffffffffffffffff169060200190929190803590602001909291908035906020019064010000000081111561116357600080fd5b82018360208201111561117557600080fd5b8035906020019184600183028401116401000000008311171561119757600080fd5b91908080601f016020809104026020016040519081016040528093929190818152602001838380828437600081840152601f19601f820116905080830192505050505050509192919290505050612dd9565b005b3480156111f757600080fd5b5061123a6004803603602081101561120e57600080fd5b81019080803573ffffffffffffffffffffffffffffffffffffffff169060200190929190505050612e4b565b604051808215151515815260200191505060405180910390f35b34801561126057600080fd5b5061128d6004803603602081101561127757600080fd5b8101908080359060200190929190505050612e68565b604051808481526020018373ffffffffffffffffffffffffffffffffffffffff1673ffffffffffffffffffffffffffffffffffffffff1681526020018273ffffffffffffffffffffffffffffffffffffffff1673ffffffffffffffffffffffffffffffffffffffff168152602001935050505060405180910390f35b34801561131557600080fd5b506113426004803603602081101561132c57600080fd5b8101908080359060200190929190505050612f5a565b6040518080602001828103825283818151815260200191508051906020019080838360005b83811015611382578082015181840152602081019050611367565b50505050905090810190601f1680156113af5780820380516001836020036101000a031916815260200191505b509250505060405180910390f35b3480156113c957600080fd5b50611416600480360360808110156113e057600080fd5b8101908080359060200190929190803590602001909291908035906020019092919080351515906020019092919050505061306d565b005b34801561142457600080fd5b506115466004803603606081101561143b57600080fd5b810190808035906020019064010000000081111561145857600080fd5b82018360208201111561146a57600080fd5b8035906020019184600183028401116401000000008311171561148c57600080fd5b9091929391929390803590602001906401000000008111156114ad57600080fd5b8201836020820111156114bf57600080fd5b803590602001918460018302840111640100000000831117156114e157600080fd5b90919293919293908035906020019064010000000081111561150257600080fd5b82018360208201111561151457600080fd5b8035906020019184600183028401116401000000008311171561153657600080fd5b90919293919293905050506132c7565b005b34801561155457600080fd5b5061155d6134d3565b005b34801561156b57600080fd5b506115986004803603602081101561158257600080fd5b81019080803590602001909291905050506134de565b6040518082815260200191505060405180910390f35b3480156115ba57600080fd5b5061161d600480360360408110156115d157600080fd5b81019080803573ffffffffffffffffffffffffffffffffffffffff169060200190929190803573ffffffffffffffffffffffffffffffffffffffff1690602001909291905050506135fb565b604051808215151515815260200191505060405180910390f35b34801561164357600080fd5b506116706004803603602081101561165a57600080fd5b810190808035906020019092919050505061368f565b604051808681526020018581526020018473ffffffffffffffffffffffffffffffffffffffff1673ffffffffffffffffffffffffffffffffffffffff1681526020018373ffffffffffffffffffffffffffffffffffffffff1673ffffffffffffffffffffffffffffffffffffffff1681526020018273ffffffffffffffffffffffffffffffffffffffff1673ffffffffffffffffffffffffffffffffffffffff1681526020019550505050505060405180910390f35b34801561173257600080fd5b5061175f6004803603602081101561174957600080fd5b810190808035906020019092919050505061373a565b6040518082815260200191505060405180910390f35b6000806000837bffffffffffffffffffffffffffffffffffffffffffffffffffffffff19167bffffffffffffffffffffffffffffffffffffffffffffffffffffffff1916815260200190815260200160002060009054906101000a900460ff169050919050565b826064811115611854576040517f08c379a000000000000000000000000000000000000000000000000000000000815260040180806020018281038252600e8152602001807f726174696f206f766572666c6f7700000000000000000000000000000000000081525060200191505060405180910390fd5b8583600081116118cc576040517f08c379a000000000000000000000000000000000000000000000000000000000815260040180806020018281038252601b8152602001807f6c696d697420737570706c79206d757374206265206f7665722030000000000081525060200191505060405180910390fd5b6000600f600084815260200190815260200160002090508181600301541115611940576040517f08c379a00000000000000000000000000000000000000000000000000000000081526004018080602001828103825260258152602001806154366025913960400191505060405180910390fd5b87600081116119b7576040517f08c379a00000000000000000000000000000000000000000000000000000000081526004018080602001828103825260178152602001807f7072696365206d757374206265206f766572207a65726f00000000000000000081525060200191505060405180910390fd5b3373ffffffffffffffffffffffffffffffffffffffff166119d78b6125b9565b73ffffffffffffffffffffffffffffffffffffffff1614611a60576040517f08c379a000000000000000000000000000000000000000000000000000000000815260040180806020018281038252600d8152602001807f6d757374206265206f776e65720000000000000000000000000000000000000081525060200191505060405180910390fd5b611a698a613857565b611a7257600080fd5b6000600f60008c81526020019081526020016000209050898160000181905550888160010181905550878160020181905550868160040160006101000a81548160ff02191690831515021790555060018160050160003373ffffffffffffffffffffffffffffffffffffffff1673ffffffffffffffffffffffffffffffffffffffff16815260200190815260200160002060006101000a81548160ff0219169083151502179055505050505050505050505050565b6000611b316120bb565b905090565b606060098054600181600116156101000203166002900480601f016020809104026020016040519081016040528092919081815260200182805460018160011615610100020316600290048015611bce5780601f10611ba357610100808354040283529160200191611bce565b820191906000526020600020905b815481529060010190602001808311611bb157829003601f168201915b5050505050905090565b6000611be382613857565b611c38576040517f08c379a000000000000000000000000000000000000000000000000000000000815260040180806020018281038252602c815260200180615557602c913960400191505060405180910390fd5b6002600083815260200190815260200160002060009054906101000a900473ffffffffffffffffffffffffffffffffffffffff169050919050565b6000611c7e826125b9565b90508073ffffffffffffffffffffffffffffffffffffffff168373ffffffffffffffffffffffffffffffffffffffff161415611d05576040517f08c379a000000000000000000000000000000000000000000000000000000000815260040180806020018281038252602181526020018061569b6021913960400191505060405180910390fd5b8073ffffffffffffffffffffffffffffffffffffffff163373ffffffffffffffffffffffffffffffffffffffff161480611d455750611d4481336135fb565b5b611d9a576040517f08c379a00000000000000000000000000000000000000000000000000000000081526004018080602001828103825260388152602001806154ab6038913960400191505060405180910390fd5b826002600084815260200190815260200160002060006101000a81548173ffffffffffffffffffffffffffffffffffffffff021916908373ffffffffffffffffffffffffffffffffffffffff160217905550818373ffffffffffffffffffffffffffffffffffffffff168273ffffffffffffffffffffffffffffffffffffffff167f8c5be1e5ebec7d5bd14f71427d1e84f3dd0314c0f7b2291e5b200ac8c7c3b92560405160405180910390a4505050565b611e5533612e4b565b611eaa576040517f08c379a00000000000000000000000000000000000000000000000000000000081526004018080602001828103825260408152602001806155ce6040913960400191505060405180910390fd5b611eb3816138c9565b50565b81600060136000838152602001908152602001600020905080600101543414611f47576040517f08c379a00000000000000000000000000000000000000000000000000000000081526004018080602001828103825260128152602001807f726573616c65207072696365206572726f72000000000000000000000000000081525060200191505060405180910390fd5b611f5084613933565b6000601360008681526020019081526020016000209050601660003373ffffffffffffffffffffffffffffffffffffffff1673ffffffffffffffffffffffffffffffffffffffff1681526020019081526020016000206000018590806001815401808255809150509060018203906000526020600020016000909192909190915055506000600f6000836000015481526020019081526020016000209050611ffb82600001546125b9565b73ffffffffffffffffffffffffffffffffffffffff166108fc606483600101548560010154028161202857fe5b049081150290604051600060405180830381858888f19350505050158015612054573d6000803e3d6000fd5b508473ffffffffffffffffffffffffffffffffffffffff166108fc606483600101546064038560010154028161208657fe5b049081150290604051600060405180830381858888f193505050501580156120b2573d6000803e3d6000fd5b50505050505050565b6000600780549050905090565b6000606080606060008560006013600083815260200190815260200160002090508060060160003373ffffffffffffffffffffffffffffffffffffffff1673ffffffffffffffffffffffffffffffffffffffff16815260200190815260200160002060009054906101000a900460ff1661218d576040517f08c379a00000000000000000000000000000000000000000000000000000000081526004018080602001828103825260248152602001806156bc6024913960400191505060405180910390fd5b6000601360008a815260200190815260200160002090506121b18160000154613857565b6121ba57600080fd5b6121c78160000154613a6b565b9750975097509750975050505091939590929450565b6121e73382613d74565b61223c576040517f08c379a00000000000000000000000000000000000000000000000000000000081526004018080602001828103825260318152602001806156e06031913960400191505060405180910390fd5b612247838383613e68565b505050565b61225533612e4b565b6122aa576040517f08c379a00000000000000000000000000000000000000000000000000000000081526004018080602001828103825260408152602001806155ce6040913960400191505060405180910390fd5b6122b381613e8c565b50565b60006122c1836126ce565b8210612318576040517f08c379a000000000000000000000000000000000000000000000000000000000815260040180806020018281038252602b8152602001806153d9602b913960400191505060405180910390fd5b600560008473ffffffffffffffffffffffffffffffffffffffff1673ffffffffffffffffffffffffffffffffffffffff168152602001908152602001600020828154811061236257fe5b9060005260206000200154905092915050565b600080600080600061238686613857565b61238f57600080fd5b6000600f6000888152602001908152602001600020905080600001548160010154826002015483600301548460040160009054906101000a900460ff16955095509550955095505091939590929450565b60006123eb82613ee6565b9050919050565b600060608060606000846000600f600083815260200190815260200160002090508060050160003373ffffffffffffffffffffffffffffffffffffffff1673ffffffffffffffffffffffffffffffffffffffff16815260200190815260200160002060009054906101000a900460ff166124d4576040517f08c379a000000000000000000000000000000000000000000000000000000000815260040180806020018281038252601d8152602001807f6e6f74207369676e65642c20706c6561736520757064617465496e666f00000081525060200191505060405180910390fd5b6124dd88613857565b6124e657600080fd5b6124ef88613a6b565b96509650965096509650505091939590929450565b61251f83838360405180602001604052806000815250612dd9565b505050565b61252d33613f03565b565b6000601154905090565b60006125436120bb565b821061259a576040517f08c379a000000000000000000000000000000000000000000000000000000000815260040180806020018281038252602c815260200180615711602c913960400191505060405180910390fd5b600782815481106125a757fe5b90600052602060002001549050919050565b6000806001600084815260200190815260200160002060009054906101000a900473ffffffffffffffffffffffffffffffffffffffff169050600073ffffffffffffffffffffffffffffffffffffffff168173ffffffffffffffffffffffffffffffffffffffff161415612678576040517f08c379a000000000000000000000000000000000000000000000000000000000815260040180806020018281038252602981526020018061550d6029913960400191505060405180910390fd5b80915050919050565b6000601260003373ffffffffffffffffffffffffffffffffffffffff1673ffffffffffffffffffffffffffffffffffffffff16815260200190815260200160002060000180549050905090565b60008073ffffffffffffffffffffffffffffffffffffffff168273ffffffffffffffffffffffffffffffffffffffff161415612755576040517f08c379a000000000000000000000000000000000000000000000000000000000815260040180806020018281038252602a8152602001806154e3602a913960400191505060405180910390fd5b61279c600360008473ffffffffffffffffffffffffffffffffffffffff1673ffffffffffffffffffffffffffffffffffffffff168152602001908152602001600020613f5d565b9050919050565b6127ac33612e4b565b612801576040517f08c379a00000000000000000000000000000000000000000000000000000000081526004018080602001828103825260408152602001806155ce6040913960400191505060405180910390fd5b61280a81613f6b565b50565b612816336123e0565b61286b576040517f08c379a000000000000000000000000000000000000000000000000000000000815260040180806020018281038252603a815260200180615661603a913960400191505060405180910390fd5b3373ffffffffffffffffffffffffffffffffffffffff1661288b886125b9565b73ffffffffffffffffffffffffffffffffffffffff16146128ab57600080fd5b6000600e88815481106128ba57fe5b9060005260206000209060040201905086868260000191906128dd92919061525f565b5084848260010191906128f192919061525f565b50828282600201919061290592919061525f565b505050505050505050565b6000601660003373ffffffffffffffffffffffffffffffffffffffff1673ffffffffffffffffffffffffffffffffffffffff16815260200190815260200160002060000180549050905090565b6060600a8054600181600116156101000203166002900480601f0160208091040260200160405190810160405280929190818152602001828054600181600116156101000203166002900480156129f55780601f106129ca576101008083540402835291602001916129f5565b820191906000526020600020905b8154815290600101906020018083116129d857829003601f168201915b5050505050905090565b3373ffffffffffffffffffffffffffffffffffffffff168273ffffffffffffffffffffffffffffffffffffffff161415612aa1576040517f08c379a00000000000000000000000000000000000000000000000000000000081526004018080602001828103825260198152602001807f4552433732313a20617070726f766520746f2063616c6c65720000000000000081525060200191505060405180910390fd5b80600460003373ffffffffffffffffffffffffffffffffffffffff1673ffffffffffffffffffffffffffffffffffffffff16815260200190815260200160002060008473ffffffffffffffffffffffffffffffffffffffff1673ffffffffffffffffffffffffffffffffffffffff16815260200190815260200160002060006101000a81548160ff0219169083151502179055508173ffffffffffffffffffffffffffffffffffffffff163373ffffffffffffffffffffffffffffffffffffffff167f17307eab39ab6107e8899845ad3d59bd9653f200f220920489ca2b5937696c3183604051808215151515815260200191505060405180910390a35050565b806000600f6000838152602001908152602001600020905080600001543414612c33576040517f08c379a00000000000000000000000000000000000000000000000000000000081526004018080602001828103825260118152602001807f7472616465207072696365206572726f7200000000000000000000000000000081525060200191505060405180910390fd5b612c3c83613fc5565b6000600f60008581526020019081526020016000209050601260003373ffffffffffffffffffffffffffffffffffffffff1673ffffffffffffffffffffffffffffffffffffffff168152602001908152602001600020600001849080600181540180825580915050906001820390600052602060002001600090919290919091505550612cc8846125b9565b73ffffffffffffffffffffffffffffffffffffffff166108fc82600001549081150290604051600060405180830381858888f19350505050158015612d11573d6000803e3d6000fd5b5050505050565b600080600080600080600080601360008a81526020019081526020016000209050612d468160000154613857565b612d4f57600080fd5b8060040160009054906101000a900473ffffffffffffffffffffffffffffffffffffffff168160050160009054906101000a900473ffffffffffffffffffffffffffffffffffffffff1682600001548360010154846002015485600301548660050160149054906101000a900460ff16975097509750975097509750975050919395979092949650565b612de48484846121dd565b612df0848484846140a2565b612e45576040517f08c379a00000000000000000000000000000000000000000000000000000000081526004018080602001828103825260328152602001806154046032913960400191505060405180910390fd5b50505050565b6000612e6182600c61428b90919063ffffffff16565b9050919050565b6000806000838060115411612ee5576040517f08c379a00000000000000000000000000000000000000000000000000000000081526004018080602001828103825260128152602001807f7472616465206964206f76657220666c6f77000000000000000000000000000081525060200191505060405180910390fd5b600060106000878152602001908152602001600020905080600001548160010160009054906101000a900473ffffffffffffffffffffffffffffffffffffffff168260020160009054906101000a900473ffffffffffffffffffffffffffffffffffffffff1694509450945050509193909250565b6060612f6582613857565b612fba576040517f08c379a000000000000000000000000000000000000000000000000000000000815260040180806020018281038252602f81526020018061560e602f913960400191505060405180910390fd5b600b60008381526020019081526020016000208054600181600116156101000203166002900480601f0160208091040260200160405190810160405280929190818152602001828054600181600116156101000203166002900480156130615780601f1061303657610100808354040283529160200191613061565b820191906000526020600020905b81548152906001019060200180831161304457829003601f168201915b50505050509050919050565b82600081116130e4576040517f08c379a000000000000000000000000000000000000000000000000000000000815260040180806020018281038252601e8152602001807f707269636520726573616c65206d757374206265206f766572207a65726f000081525060200191505060405180910390fd5b60008060006130f288612e68565b9250925092503373ffffffffffffffffffffffffffffffffffffffff168173ffffffffffffffffffffffffffffffffffffffff161461317c576040517f08c379a000000000000000000000000000000000000000000000000000000000815260040180806020018281038252602481526020018061563d6024913960400191505060405180910390fd5b61318583613857565b61318e57600080fd5b6000601360008a81526020019081526020016000209050838160000181905550878160010181905550868160020181905550858160050160146101000a81548160ff021916908315150217905550828160040160006101000a81548173ffffffffffffffffffffffffffffffffffffffff021916908373ffffffffffffffffffffffffffffffffffffffff160217905550818160050160006101000a81548173ffffffffffffffffffffffffffffffffffffffff021916908373ffffffffffffffffffffffffffffffffffffffff16021790555060018160060160003373ffffffffffffffffffffffffffffffffffffffff1673ffffffffffffffffffffffffffffffffffffffff16815260200190815260200160002060006101000a81548160ff021916908315150217905550505050505050505050565b6132d0336123e0565b613325576040517f08c379a000000000000000000000000000000000000000000000000000000000815260040180806020018281038252603a815260200180615661603a913960400191505060405180910390fd5b61332d6152df565b86868080601f016020809104026020016040519081016040528093929190818152602001838380828437600081840152601f19601f82011690508083019250505050505050816000018190525084848080601f016020809104026020016040519081016040528093929190818152602001838380828437600081840152601f19601f82011690508083019250505050505050816020018190525082828080601f016020809104026020016040519081016040528093929190818152602001838380828437600081840152601f19601f82011690508083019250505050505050816040018190525060006001600e83908060018154018082558091505090600182039060005260206000209060040201600090919290919091506000820151816000019080519060200190613462929190615307565b50602082015181600101908051906020019061347f929190615307565b50604082015181600201908051906020019061349c929190615307565b5060608201518160030190805190602001906134b9929190615307565b5050500390506134c93382614369565b5050505050505050565b6134dc33613e8c565b565b60008180601660003373ffffffffffffffffffffffffffffffffffffffff1673ffffffffffffffffffffffffffffffffffffffff168152602001908152602001600020600001805490501161359b576040517f08c379a000000000000000000000000000000000000000000000000000000000815260040180806020018281038252600e8152602001807f696e646578206f766572666c6f7700000000000000000000000000000000000081525060200191505060405180910390fd5b601660003373ffffffffffffffffffffffffffffffffffffffff1673ffffffffffffffffffffffffffffffffffffffff16815260200190815260200160002060000183815481106135e857fe5b9060005260206000200154915050919050565b6000600460008473ffffffffffffffffffffffffffffffffffffffff1673ffffffffffffffffffffffffffffffffffffffff16815260200190815260200160002060008373ffffffffffffffffffffffffffffffffffffffff1673ffffffffffffffffffffffffffffffffffffffff16815260200190815260200160002060009054906101000a900460ff16905092915050565b600080600080600080601460008881526020019081526020016000209050806000015481600101548260020160009054906101000a900473ffffffffffffffffffffffffffffffffffffffff168360030160009054906101000a900473ffffffffffffffffffffffffffffffffffffffff168460040160009054906101000a900473ffffffffffffffffffffffffffffffffffffffff16955095509550955095505091939590929450565b60008180601260003373ffffffffffffffffffffffffffffffffffffffff1673ffffffffffffffffffffffffffffffffffffffff16815260200190815260200160002060000180549050116137f7576040517f08c379a000000000000000000000000000000000000000000000000000000000815260040180806020018281038252600e8152602001807f696e646578206f766572666c6f7700000000000000000000000000000000000081525060200191505060405180910390fd5b601260003373ffffffffffffffffffffffffffffffffffffffff1673ffffffffffffffffffffffffffffffffffffffff168152602001908152602001600020600001838154811061384457fe5b9060005260206000200154915050919050565b6000806001600084815260200190815260200160002060009054906101000a900473ffffffffffffffffffffffffffffffffffffffff169050600073ffffffffffffffffffffffffffffffffffffffff168173ffffffffffffffffffffffffffffffffffffffff161415915050919050565b6138d233612e4b565b613927576040517f08c379a00000000000000000000000000000000000000000000000000000000081526004018080602001828103825260408152602001806155ce6040913960400191505060405180910390fd5b6139308161438a565b50565b600080600061394184612e68565b92509250925061395083613857565b61395957600080fd5b613962846143e4565b600060146000601560008154809291906001019190505581526020019081526020016000209050838160000181905550848160010181905550828160020160006101000a81548173ffffffffffffffffffffffffffffffffffffffff021916908373ffffffffffffffffffffffffffffffffffffffff160217905550818160030160006101000a81548173ffffffffffffffffffffffffffffffffffffffff021916908373ffffffffffffffffffffffffffffffffffffffff160217905550338160040160006101000a81548173ffffffffffffffffffffffffffffffffffffffff021916908373ffffffffffffffffffffffffffffffffffffffff1602179055505050505050565b600060608060606000613a7d86613857565b613a8657600080fd5b613a8e6152df565b600e8781548110613a9b57fe5b9060005260206000209060040201604051806080016040529081600082018054600181600116156101000203166002900480601f016020809104026020016040519081016040528092919081815260200182805460018160011615610100020316600290048015613b4d5780601f10613b2257610100808354040283529160200191613b4d565b820191906000526020600020905b815481529060010190602001808311613b3057829003601f168201915b50505050508152602001600182018054600181600116156101000203166002900480601f016020809104026020016040519081016040528092919081815260200182805460018160011615610100020316600290048015613bef5780601f10613bc457610100808354040283529160200191613bef565b820191906000526020600020905b815481529060010190602001808311613bd257829003601f168201915b50505050508152602001600282018054600181600116156101000203166002900480601f016020809104026020016040519081016040528092919081815260200182805460018160011615610100020316600290048015613c915780601f10613c6657610100808354040283529160200191613c91565b820191906000526020600020905b815481529060010190602001808311613c7457829003601f168201915b50505050508152602001600382018054600181600116156101000203166002900480601f016020809104026020016040519081016040528092919081815260200182805460018160011615610100020316600290048015613d335780601f10613d0857610100808354040283529160200191613d33565b820191906000526020600020905b815481529060010190602001808311613d1657829003601f168201915b505050505081525050905086816000015182602001518360400151613d578b6125b9565b839350829250819150955095509550955095505091939590929450565b6000613d7f82613857565b613dd4576040517f08c379a000000000000000000000000000000000000000000000000000000000815260040180806020018281038252602c81526020018061547f602c913960400191505060405180910390fd5b6000613ddf836125b9565b90508073ffffffffffffffffffffffffffffffffffffffff168473ffffffffffffffffffffffffffffffffffffffff161480613e4e57508373ffffffffffffffffffffffffffffffffffffffff16613e3684611bd8565b73ffffffffffffffffffffffffffffffffffffffff16145b80613e5f5750613e5e81856135fb565b5b91505092915050565b613e738383836145fc565b613e7d8382614857565b613e8782826149f5565b505050565b613ea081600d614abc90919063ffffffff16565b8073ffffffffffffffffffffffffffffffffffffffff167f270d9b30cf5b0793bbfd54c9d5b94aeb49462b8148399000265144a8722da6b660405160405180910390a250565b6000613efc82600d61428b90919063ffffffff16565b9050919050565b613f1781600c614abc90919063ffffffff16565b8073ffffffffffffffffffffffffffffffffffffffff167f0a8eb35e5ca14b3d6f28e4abf2f128dbab231a58b56e89beb5d636115001e16560405160405180910390a250565b600081600001549050919050565b613f7f81600c614b7990919063ffffffff16565b8073ffffffffffffffffffffffffffffffffffffffff167f22380c05984257a1cb900161c713dd71d39e74820f1aea43bd3f1bdd2096129960405160405180910390a250565b613fce81613857565b613fd757600080fd5b613fe081614c54565b600060106000601160008154809291906001019190505581526020019081526020016000209050614010826125b9565b8160010160006101000a81548173ffffffffffffffffffffffffffffffffffffffff021916908373ffffffffffffffffffffffffffffffffffffffff160217905550338160020160006101000a81548173ffffffffffffffffffffffffffffffffffffffff021916908373ffffffffffffffffffffffffffffffffffffffff1602179055508181600001819055505050565b60006140c38473ffffffffffffffffffffffffffffffffffffffff16614e68565b6140d05760019050614283565b60008473ffffffffffffffffffffffffffffffffffffffff1663150b7a02338887876040518563ffffffff1660e01b8152600401808573ffffffffffffffffffffffffffffffffffffffff1673ffffffffffffffffffffffffffffffffffffffff1681526020018473ffffffffffffffffffffffffffffffffffffffff1673ffffffffffffffffffffffffffffffffffffffff16815260200183815260200180602001828103825283818151815260200191508051906020019080838360005b838110156141ab578082015181840152602081019050614190565b50505050905090810190601f1680156141d85780820380516001836020036101000a031916815260200191505b5095505050505050602060405180830381600087803b1580156141fa57600080fd5b505af115801561420e573d6000803e3d6000fd5b505050506040513d602081101561422457600080fd5b8101908080519060200190929190505050905063150b7a0260e01b7bffffffffffffffffffffffffffffffffffffffffffffffffffffffff1916817bffffffffffffffffffffffffffffffffffffffffffffffffffffffff1916149150505b949350505050565b60008073ffffffffffffffffffffffffffffffffffffffff168273ffffffffffffffffffffffffffffffffffffffff161415614312576040517f08c379a00000000000000000000000000000000000000000000000000000000081526004018080602001828103825260228152602001806155836022913960400191505060405180910390fd5b8260000160008373ffffffffffffffffffffffffffffffffffffffff1673ffffffffffffffffffffffffffffffffffffffff16815260200190815260200160002060009054906101000a900460ff16905092915050565b6143738282614e7b565b61437d82826149f5565b61438681615093565b5050565b61439e81600d614b7990919063ffffffff16565b8073ffffffffffffffffffffffffffffffffffffffff167fee1504a83b6d4a361f4c1dc78ab59bfa30d6a3b6612c403e86bb01ef2984295f60405160405180910390a250565b806000601360008381526020019081526020016000209050600015158160060160003373ffffffffffffffffffffffffffffffffffffffff1673ffffffffffffffffffffffffffffffffffffffff16815260200190815260200160002060009054906101000a900460ff161515146144c4576040517f08c379a000000000000000000000000000000000000000000000000000000000815260040180806020018281038252600c8152602001807f726573616c65206578697374000000000000000000000000000000000000000081525060200191505060405180910390fd5b82600060136000838152602001908152602001600020905060018160030154018160020154101561455d576040517f08c379a00000000000000000000000000000000000000000000000000000000081526004018080602001828103825260168152602001807f737570706c79206f766572666c6f7720726573616c650000000000000000000081525060200191505060405180910390fd5b60006013600087815260200190815260200160002090506145818160000154613857565b61458a57600080fd5b60018160060160003373ffffffffffffffffffffffffffffffffffffffff1673ffffffffffffffffffffffffffffffffffffffff16815260200190815260200160002060006101000a81548160ff02191690831515021790555060018160030154018160030181905550505050505050565b8273ffffffffffffffffffffffffffffffffffffffff1661461c826125b9565b73ffffffffffffffffffffffffffffffffffffffff1614614688576040517f08c379a00000000000000000000000000000000000000000000000000000000081526004018080602001828103825260298152602001806155a56029913960400191505060405180910390fd5b600073ffffffffffffffffffffffffffffffffffffffff168273ffffffffffffffffffffffffffffffffffffffff16141561470e576040517f08c379a000000000000000000000000000000000000000000000000000000000815260040180806020018281038252602481526020018061545b6024913960400191505060405180910390fd5b614717816150df565b61475e600360008573ffffffffffffffffffffffffffffffffffffffff1673ffffffffffffffffffffffffffffffffffffffff16815260200190815260200160002061519d565b6147a5600360008473ffffffffffffffffffffffffffffffffffffffff1673ffffffffffffffffffffffffffffffffffffffff1681526020019081526020016000206151c0565b816001600083815260200190815260200160002060006101000a81548173ffffffffffffffffffffffffffffffffffffffff021916908373ffffffffffffffffffffffffffffffffffffffff160217905550808273ffffffffffffffffffffffffffffffffffffffff168473ffffffffffffffffffffffffffffffffffffffff167fddf252ad1be2c89b69c2b068fc378daa952ba7f163c4a11628f55a4df523b3ef60405160405180910390a4505050565b60006148af6001600560008673ffffffffffffffffffffffffffffffffffffffff1673ffffffffffffffffffffffffffffffffffffffff168152602001908152602001600020805490506151d690919063ffffffff16565b905060006006600084815260200190815260200160002054905081811461499c576000600560008673ffffffffffffffffffffffffffffffffffffffff1673ffffffffffffffffffffffffffffffffffffffff168152602001908152602001600020838154811061491c57fe5b9060005260206000200154905080600560008773ffffffffffffffffffffffffffffffffffffffff1673ffffffffffffffffffffffffffffffffffffffff168152602001908152602001600020838154811061497457fe5b9060005260206000200181905550816006600083815260200190815260200160002081905550505b600560008573ffffffffffffffffffffffffffffffffffffffff1673ffffffffffffffffffffffffffffffffffffffff1681526020019081526020016000208054809190600190036149ee9190615387565b5050505050565b600560008373ffffffffffffffffffffffffffffffffffffffff1673ffffffffffffffffffffffffffffffffffffffff168152602001908152602001600020805490506006600083815260200190815260200160002081905550600560008373ffffffffffffffffffffffffffffffffffffffff1673ffffffffffffffffffffffffffffffffffffffff1681526020019081526020016000208190806001815401808255809150509060018203906000526020600020016000909192909190915055505050565b614ac6828261428b565b614b1b576040517f08c379a00000000000000000000000000000000000000000000000000000000081526004018080602001828103825260218152602001806155366021913960400191505060405180910390fd5b60008260000160008373ffffffffffffffffffffffffffffffffffffffff1673ffffffffffffffffffffffffffffffffffffffff16815260200190815260200160002060006101000a81548160ff0219169083151502179055505050565b614b83828261428b565b15614bf6576040517f08c379a000000000000000000000000000000000000000000000000000000000815260040180806020018281038252601f8152602001807f526f6c65733a206163636f756e7420616c72656164792068617320726f6c650081525060200191505060405180910390fd5b60018260000160008373ffffffffffffffffffffffffffffffffffffffff1673ffffffffffffffffffffffffffffffffffffffff16815260200190815260200160002060006101000a81548160ff0219169083151502179055505050565b806000600f60008381526020019081526020016000209050600181600301540181600201541015614ced576040517f08c379a000000000000000000000000000000000000000000000000000000000815260040180806020018281038252600f8152602001807f737570706c79206f766572666c6f77000000000000000000000000000000000081525060200191505060405180910390fd5b826000600f60008381526020019081526020016000209050600015158160050160003373ffffffffffffffffffffffffffffffffffffffff1673ffffffffffffffffffffffffffffffffffffffff16815260200190815260200160002060009054906101000a900460ff16151514614dcd576040517f08c379a000000000000000000000000000000000000000000000000000000000815260040180806020018281038252600b8152602001807f747261646520657869737400000000000000000000000000000000000000000081525060200191505060405180910390fd5b614dd685613857565b614ddf57600080fd5b6000600f6000878152602001908152602001600020905060018160050160003373ffffffffffffffffffffffffffffffffffffffff1673ffffffffffffffffffffffffffffffffffffffff16815260200190815260200160002060006101000a81548160ff02191690831515021790555060018160030154018160030181905550505050505050565b600080823b905060008111915050919050565b600073ffffffffffffffffffffffffffffffffffffffff168273ffffffffffffffffffffffffffffffffffffffff161415614f1e576040517f08c379a00000000000000000000000000000000000000000000000000000000081526004018080602001828103825260208152602001807f4552433732313a206d696e7420746f20746865207a65726f206164647265737381525060200191505060405180910390fd5b614f2781613857565b15614f9a576040517f08c379a000000000000000000000000000000000000000000000000000000000815260040180806020018281038252601c8152602001807f4552433732313a20746f6b656e20616c7265616479206d696e7465640000000081525060200191505060405180910390fd5b816001600083815260200190815260200160002060006101000a81548173ffffffffffffffffffffffffffffffffffffffff021916908373ffffffffffffffffffffffffffffffffffffffff160217905550615033600360008473ffffffffffffffffffffffffffffffffffffffff1673ffffffffffffffffffffffffffffffffffffffff1681526020019081526020016000206151c0565b808273ffffffffffffffffffffffffffffffffffffffff16600073ffffffffffffffffffffffffffffffffffffffff167fddf252ad1be2c89b69c2b068fc378daa952ba7f163c4a11628f55a4df523b3ef60405160405180910390a45050565b6007805490506008600083815260200190815260200160002081905550600781908060018154018082558091505090600182039060005260206000200160009091929091909150555050565b600073ffffffffffffffffffffffffffffffffffffffff166002600083815260200190815260200160002060009054906101000a900473ffffffffffffffffffffffffffffffffffffffff1673ffffffffffffffffffffffffffffffffffffffff161461519a5760006002600083815260200190815260200160002060006101000a81548173ffffffffffffffffffffffffffffffffffffffff021916908373ffffffffffffffffffffffffffffffffffffffff1602179055505b50565b6151b5600182600001546151d690919063ffffffff16565b816000018190555050565b6001816000016000828254019250508190555050565b60008282111561524e576040517f08c379a000000000000000000000000000000000000000000000000000000000815260040180806020018281038252601e8152602001807f536166654d6174683a207375627472616374696f6e206f766572666c6f77000081525060200191505060405180910390fd5b600082840390508091505092915050565b828054600181600116156101000203166002900490600052602060002090601f016020900481019282601f106152a057803560ff19168380011785556152ce565b828001600101855582156152ce579182015b828111156152cd5782358255916020019190600101906152b2565b5b5090506152db91906153b3565b5090565b6040518060800160405280606081526020016060815260200160608152602001606081525090565b828054600181600116156101000203166002900490600052602060002090601f016020900481019282601f1061534857805160ff1916838001178555615376565b82800160010185558215615376579182015b8281111561537557825182559160200191906001019061535a565b5b50905061538391906153b3565b5090565b8154818355818111156153ae578183600052602060002091820191016153ad91906153b3565b5b505050565b6153d591905b808211156153d15760008160009055506001016153b9565b5090565b9056fe455243373231456e756d657261626c653a206f776e657220696e646578206f7574206f6620626f756e64734552433732313a207472616e7366657220746f206e6f6e20455243373231526563656976657220696d706c656d656e7465726c696d697420737570706c79206d757374206265206f76657220746f74616c537570706c794552433732313a207472616e7366657220746f20746865207a65726f20616464726573734552433732313a206f70657261746f7220717565727920666f72206e6f6e6578697374656e7420746f6b656e4552433732313a20617070726f76652063616c6c6572206973206e6f74206f776e6572206e6f7220617070726f76656420666f7220616c6c4552433732313a2062616c616e636520717565727920666f7220746865207a65726f20616464726573734552433732313a206f776e657220717565727920666f72206e6f6e6578697374656e7420746f6b656e526f6c65733a206163636f756e7420646f6573206e6f74206861766520726f6c654552433732313a20617070726f76656420717565727920666f72206e6f6e6578697374656e7420746f6b656e526f6c65733a206163636f756e7420697320746865207a65726f20616464726573734552433732313a207472616e73666572206f6620746f6b656e2074686174206973206e6f74206f776e57686974656c69737441646d696e526f6c653a2063616c6c657220646f6573206e6f742068617665207468652057686974656c69737441646d696e20726f6c654552433732314d657461646174613a2055524920717565727920666f72206e6f6e6578697374656e7420746f6b656e6d7573742062652075706461746520726573616c6520696e666f2070757263686173657257686974656c6973746564526f6c653a2063616c6c657220646f6573206e6f742068617665207468652057686974656c697374656420726f6c654552433732313a20617070726f76616c20746f2063757272656e74206f776e65726e6f74207369676e65642c20706c6561736520726573616c6520757064617465496e666f4552433732313a207472616e736665722063616c6c6572206973206e6f74206f776e6572206e6f7220617070726f766564455243373231456e756d657261626c653a20676c6f62616c20696e646578206f7574206f6620626f756e6473a165627a7a72305820e4dd46432b8c786d33e109c801d579357b5b8366535f411ff61c7d5fdba1dbe90029526f6c65733a206163636f756e7420697320746865207a65726f2061646472657373",
  "source": "pragma solidity ^0.5.0;\n\nimport \"./ResaleHistory.sol\";\n\ncontract ResalePurchaser is ResaleHistory {\n  struct ResalePurchaseStruct {\n    uint256[] purchaseList;\n  }\n  mapping(address => ResalePurchaseStruct) private resalePurchased;\n\n  modifier sameResalePrice(\n    uint256 tid\n  ) \n  {\n    ResaleStruct storage resale = resaleMap[tid];\n    require(msg.value == resale.price, \"resale price error\");\n    _;\n  }\n\n  function purchaseResale(\n    uint256 tid,\n    address seller\n  )\n    external\n    sameResalePrice(tid)\n    payable\n  {\n    super._purchaseResale(tid);\n    ResaleStruct storage resale = resaleMap[tid];\n    resalePurchased[msg.sender].purchaseList.push(tid);\n    TradeStruct storage trade = tradeMap[resale.cid];\n    address(uint160(ownerOf(resale.cid))).transfer(resale.price * (trade.ratio) / 100);\n    address(uint160(seller)).transfer(resale.price * ( 100 - trade.ratio) / 100);\n  }\n\n  function countResalePurchased() \n    public \n    view \n    returns(\n      uint256\n    ) \n  {\n    return resalePurchased[msg.sender].purchaseList.length;\n  }\n\n  modifier rangeResaleIndex(\n    uint256 index\n  ) \n  {\n    require(resalePurchased[msg.sender].purchaseList.length > index, \"index overflow\");\n    _;\n  }\n\n  function resaleAtIndex(\n    uint256 index\n  ) \n    public \n    view \n    rangeResaleIndex(index) \n    returns(\n      uint256\n    ) \n  {\n    return resalePurchased[msg.sender].purchaseList[index];\n  }\n\n}\n",
  "sourcePath": "/Users/tech/dev/prd/programming-lectures/lesson011/contracts/ResalePurchaser.sol",
  "compiler": {
    "name": "solc",
    "version": "0.5.8+commit.23d335f2.Emscripten.clang"
  },
  "schemaVersion": "3.0.10",
  "updatedAt": "2019-06-10T08:19:01.107Z",
  "devdoc": {
    "methods": {
      "approve(address,uint256)": {
        "details": "Approves another address to transfer the given token ID The zero address indicates there is no approved address. There can only be one approved address per token at a given time. Can only be called by the token owner or an approved operator.",
        "params": {
          "to": "address to be approved for the given token ID",
          "tokenId": "uint256 ID of the token to be approved"
        }
      },
      "balanceOf(address)": {
        "details": "Gets the balance of the specified address.",
        "params": {
          "owner": "address to query the balance of"
        },
        "return": "uint256 representing the amount owned by the passed address"
      },
      "getApproved(uint256)": {
        "details": "Gets the approved address for a token ID, or zero if no address set Reverts if the token ID does not exist.",
        "params": {
          "tokenId": "uint256 ID of the token to query the approval of"
        },
        "return": "address currently approved for the given token ID"
      },
      "isApprovedForAll(address,address)": {
        "details": "Tells whether an operator is approved by a given owner.",
        "params": {
          "operator": "operator address which you want to query the approval of",
          "owner": "owner address which you want to query the approval of"
        },
        "return": "bool whether the given operator is approved by the given owner"
      },
      "name()": {
        "details": "Gets the token name.",
        "return": "string representing the token name"
      },
      "ownerOf(uint256)": {
        "details": "Gets the owner of the specified token ID.",
        "params": {
          "tokenId": "uint256 ID of the token to query the owner of"
        },
        "return": "address currently marked as the owner of the given token ID"
      },
      "safeTransferFrom(address,address,uint256)": {
        "details": "Safely transfers the ownership of a given token ID to another address If the target address is a contract, it must implement `onERC721Received`, which is called upon a safe transfer, and return the magic value `bytes4(keccak256(\"onERC721Received(address,address,uint256,bytes)\"))`; otherwise, the transfer is reverted. Requires the msg.sender to be the owner, approved, or operator",
        "params": {
          "from": "current owner of the token",
          "to": "address to receive the ownership of the given token ID",
          "tokenId": "uint256 ID of the token to be transferred"
        }
      },
      "safeTransferFrom(address,address,uint256,bytes)": {
        "details": "Safely transfers the ownership of a given token ID to another address If the target address is a contract, it must implement `onERC721Received`, which is called upon a safe transfer, and return the magic value `bytes4(keccak256(\"onERC721Received(address,address,uint256,bytes)\"))`; otherwise, the transfer is reverted. Requires the msg.sender to be the owner, approved, or operator",
        "params": {
          "_data": "bytes data to send along with a safe transfer check",
          "from": "current owner of the token",
          "to": "address to receive the ownership of the given token ID",
          "tokenId": "uint256 ID of the token to be transferred"
        }
      },
      "setApprovalForAll(address,bool)": {
        "details": "Sets or unsets the approval of a given operator An operator is allowed to transfer all tokens of the sender on their behalf.",
        "params": {
          "approved": "representing the status of the approval to be set",
          "to": "operator address to set the approval"
        }
      },
      "supportsInterface(bytes4)": {
        "details": "See `IERC165.supportsInterface`.     * Time complexity O(1), guaranteed to always use less than 30 000 gas."
      },
      "symbol()": {
        "details": "Gets the token symbol.",
        "return": "string representing the token symbol"
      },
      "tokenByIndex(uint256)": {
        "details": "Gets the token ID at a given index of all the tokens in this contract Reverts if the index is greater or equal to the total number of tokens.",
        "params": {
          "index": "uint256 representing the index to be accessed of the tokens list"
        },
        "return": "uint256 token ID at the given index of the tokens list"
      },
      "tokenOfOwnerByIndex(address,uint256)": {
        "details": "Gets the token ID at a given index of the tokens list of the requested owner.",
        "params": {
          "index": "uint256 representing the index to be accessed of the requested tokens list",
          "owner": "address owning the tokens list to be accessed"
        },
        "return": "uint256 token ID at the given index of the tokens list owned by the requested address"
      },
      "tokenURI(uint256)": {
        "details": "Returns an URI for a given token ID. Throws if the token ID does not exist. May return an empty string.",
        "params": {
          "tokenId": "uint256 ID of the token to query"
        }
      },
      "totalSupply()": {
        "details": "Gets the total amount of tokens stored by the contract.",
        "return": "uint256 representing the total amount of tokens"
      },
      "transferFrom(address,address,uint256)": {
        "details": "Transfers the ownership of a given token ID to another address. Usage of this method is discouraged, use `safeTransferFrom` whenever possible. Requires the msg.sender to be the owner, approved, or operator.",
        "params": {
          "from": "current owner of the token",
          "to": "address to receive the ownership of the given token ID",
          "tokenId": "uint256 ID of the token to be transferred"
        }
      }
    }
  },
  "userdoc": {
    "methods": {}
  }
}