{
  "contractName": "SampleWhitelist",
  "abi": [
    {
      "constant": true,
      "inputs": [],
      "name": "greet",
      "outputs": [
        {
          "name": "",
          "type": "string"
        }
      ],
      "payable": false,
      "stateMutability": "pure",
      "type": "function"
    },
    {
      "inputs": [],
      "payable": false,
      "stateMutability": "nonpayable",
      "type": "constructor"
    },
    {
      "constant": false,
      "inputs": [
        {
          "name": "author",
          "type": "address"
        }
      ],
      "name": "addAuthor",
      "outputs": [],
      "payable": false,
      "stateMutability": "nonpayable",
      "type": "function"
    },
    {
      "constant": false,
      "inputs": [
        {
          "name": "author",
          "type": "address"
        },
        {
          "name": "publish",
          "type": "bool"
        }
      ],
      "name": "updatePublish",
      "outputs": [],
      "payable": false,
      "stateMutability": "nonpayable",
      "type": "function"
    },
    {
      "constant": true,
      "inputs": [
        {
          "name": "author",
          "type": "address"
        }
      ],
      "name": "isAuthor",
      "outputs": [
        {
          "name": "",
          "type": "bool"
        }
      ],
      "payable": false,
      "stateMutability": "view",
      "type": "function"
    },
    {
      "constant": true,
      "inputs": [],
      "name": "getLastIndex",
      "outputs": [
        {
          "name": "",
          "type": "uint256"
        }
      ],
      "payable": false,
      "stateMutability": "view",
      "type": "function"
    },
    {
      "constant": true,
      "inputs": [
        {
          "name": "index",
          "type": "uint256"
        }
      ],
      "name": "getAuthor",
      "outputs": [
        {
          "name": "",
          "type": "address"
        }
      ],
      "payable": false,
      "stateMutability": "view",
      "type": "function"
    },
    {
      "constant": true,
      "inputs": [],
      "name": "greeting",
      "outputs": [
        {
          "name": "",
          "type": "string"
        }
      ],
      "payable": false,
      "stateMutability": "view",
      "type": "function"
    }
  ],
  "bytecode": "0x608060405234801561001057600080fd5b50336000806101000a81548173ffffffffffffffffffffffffffffffffffffffff021916908373ffffffffffffffffffffffffffffffffffffffff1602179055506000600381905550610d04806100686000396000f3fe608060405234801561001057600080fd5b506004361061007d5760003560e01c80639e2b84881161005b5780639e2b848814610134578063cfae3217146101a2578063d4b1253014610225578063ef690cc0146102815761007d565b80632ddbc97e146100825780633e1a9300146100c65780635f1f7b9c146100e4575b600080fd5b6100c46004803603602081101561009857600080fd5b81019080803573ffffffffffffffffffffffffffffffffffffffff169060200190929190505050610304565b005b6100ce6105b8565b6040518082815260200191505060405180910390f35b610132600480360360408110156100fa57600080fd5b81019080803573ffffffffffffffffffffffffffffffffffffffff169060200190929190803515159060200190929190505050610684565b005b6101606004803603602081101561014a57600080fd5b810190808035906020019092919050505061086f565b604051808273ffffffffffffffffffffffffffffffffffffffff1673ffffffffffffffffffffffffffffffffffffffff16815260200191505060405180910390f35b6101aa610a61565b6040518080602001828103825283818151815260200191508051906020019080838360005b838110156101ea5780820151818401526020810190506101cf565b50505050905090810190601f1680156102175780820380516001836020036101000a031916815260200191505b509250505060405180910390f35b6102676004803603602081101561023b57600080fd5b81019080803573ffffffffffffffffffffffffffffffffffffffff169060200190929190505050610a9e565b604051808215151515815260200191505060405180910390f35b610289610bc2565b6040518080602001828103825283818151815260200191508051906020019080838360005b838110156102c95780820151818401526020810190506102ae565b50505050905090810190601f1680156102f65780820380516001836020036101000a031916815260200191505b509250505060405180910390f35b6000809054906101000a900473ffffffffffffffffffffffffffffffffffffffff1673ffffffffffffffffffffffffffffffffffffffff163373ffffffffffffffffffffffffffffffffffffffff16146103c6576040517f08c379a000000000000000000000000000000000000000000000000000000000815260040180806020018281038252600a8152602001807f6f6e6c79206f776e65720000000000000000000000000000000000000000000081525060200191505060405180910390fd5b806000600260008373ffffffffffffffffffffffffffffffffffffffff1673ffffffffffffffffffffffffffffffffffffffff168152602001908152602001600020541461047c576040517f08c379a00000000000000000000000000000000000000000000000000000000081526004018080602001828103825260158152602001807f617574686f72206164647265737320657869737473000000000000000000000081525060200191505060405180910390fd5b610484610cca565b600354600260008473ffffffffffffffffffffffffffffffffffffffff1673ffffffffffffffffffffffffffffffffffffffff1681526020019081526020016000208190555060405180604001604052808373ffffffffffffffffffffffffffffffffffffffff1681526020016001151581525060016000600260008673ffffffffffffffffffffffffffffffffffffffff1673ffffffffffffffffffffffffffffffffffffffff16815260200190815260200160002054815260200190815260200160002060008201518160000160006101000a81548173ffffffffffffffffffffffffffffffffffffffff021916908373ffffffffffffffffffffffffffffffffffffffff16021790555060208201518160000160146101000a81548160ff0219169083151502179055509050505050565b60008060009054906101000a900473ffffffffffffffffffffffffffffffffffffffff1673ffffffffffffffffffffffffffffffffffffffff163373ffffffffffffffffffffffffffffffffffffffff161461067c576040517f08c379a000000000000000000000000000000000000000000000000000000000815260040180806020018281038252600a8152602001807f6f6e6c79206f776e65720000000000000000000000000000000000000000000081525060200191505060405180910390fd5b600354905090565b6000809054906101000a900473ffffffffffffffffffffffffffffffffffffffff1673ffffffffffffffffffffffffffffffffffffffff163373ffffffffffffffffffffffffffffffffffffffff1614610746576040517f08c379a000000000000000000000000000000000000000000000000000000000815260040180806020018281038252600a8152602001807f6f6e6c79206f776e65720000000000000000000000000000000000000000000081525060200191505060405180910390fd5b816000600260008373ffffffffffffffffffffffffffffffffffffffff1673ffffffffffffffffffffffffffffffffffffffff1681526020019081526020016000205414156107fd576040517f08c379a00000000000000000000000000000000000000000000000000000000081526004018080602001828103825260188152602001807f617574686f722061646472657373206e6f74206578697374000000000000000081525060200191505060405180910390fd5b8160016000600260008773ffffffffffffffffffffffffffffffffffffffff1673ffffffffffffffffffffffffffffffffffffffff16815260200190815260200160002054815260200190815260200160002060000160146101000a81548160ff021916908315150217905550505050565b60008060009054906101000a900473ffffffffffffffffffffffffffffffffffffffff1673ffffffffffffffffffffffffffffffffffffffff163373ffffffffffffffffffffffffffffffffffffffff1614610933576040517f08c379a000000000000000000000000000000000000000000000000000000000815260040180806020018281038252600a8152602001807f6f6e6c79206f776e65720000000000000000000000000000000000000000000081525060200191505060405180910390fd5b8160008114156109ab576040517f08c379a000000000000000000000000000000000000000000000000000000000815260040180806020018281038252600e8152602001807f696e646578206d69736d6174636800000000000000000000000000000000000081525060200191505060405180910390fd5b6003548110610a22576040517f08c379a000000000000000000000000000000000000000000000000000000000815260040180806020018281038252600e8152602001807f696e646578206f766572666c6f7700000000000000000000000000000000000081525060200191505060405180910390fd5b6001600084815260200190815260200160002060000160009054906101000a900473ffffffffffffffffffffffffffffffffffffffff16915050919050565b60606040518060400160405280600b81526020017f48656c6c6f204f776e6564000000000000000000000000000000000000000000815250905090565b6000816000600260008373ffffffffffffffffffffffffffffffffffffffff1673ffffffffffffffffffffffffffffffffffffffff168152602001908152602001600020541415610b57576040517f08c379a00000000000000000000000000000000000000000000000000000000081526004018080602001828103825260188152602001807f617574686f722061646472657373206e6f74206578697374000000000000000081525060200191505060405180910390fd5b60016000600260008673ffffffffffffffffffffffffffffffffffffffff1673ffffffffffffffffffffffffffffffffffffffff16815260200190815260200160002054815260200190815260200160002060000160149054906101000a900460ff16915050919050565b60606000809054906101000a900473ffffffffffffffffffffffffffffffffffffffff1673ffffffffffffffffffffffffffffffffffffffff163373ffffffffffffffffffffffffffffffffffffffff1614610c86576040517f08c379a000000000000000000000000000000000000000000000000000000000815260040180806020018281038252600a8152602001807f6f6e6c79206f776e65720000000000000000000000000000000000000000000081525060200191505060405180910390fd5b610c8e610a61565b506040518060400160405280600f81526020017f48656c6c6f2057686974656c6973740000000000000000000000000000000000815250905090565b60016003540160038190555056fea165627a7a72305820f5896bd11755e94639ed29fd1076a696f979b2c2df0f80ae2e3f6cf4e849ceac0029",
  "source": "pragma solidity ^0.5.0;\n\nimport \"./SampleOwned.sol\";\n\ncontract SampleWhitelist is SampleOwned{\n  /* USECASE\n  // 管理者が書面相当で投稿者（著作者）の情報を得る\n  // 投稿者のアドレス情報をコントラクトに登録\n  // ホワイトリストとして取り扱う\n  // ホワイトリストに登録された投稿者はアドレスによって判断できるようにする\n  */\n\n  struct Author {\n    address owner;\n    bool publish;\n  }\n\n  mapping(uint => Author) authors;\n  mapping(address => uint) authorIds;\n  uint authorLastId;\n\n  constructor () public {\n    authorLastId = 0;\n  }\n\n  function _increment() private {\n    authorLastId = authorLastId + 1;\n  }\n\n  function addAuthor(address author) public onlyOwner notExistsAuthor(author) {\n    _increment();\n    authorIds[author] = authorLastId;\n    authors[authorIds[author]] =  Author(author, true);\n  }\n\n  function updatePublish(address author, bool publish) public onlyOwner existsAuthor(author) {\n    authors[authorIds[author]].publish = publish;\n  }\n\n  function isAuthor(address author) public view existsAuthor(author) returns(bool) {\n    return authors[authorIds[author]].publish;\n  }\n\n  modifier notExistsAuthor(address author) {\n    require(authorIds[author] == 0, \"author address exists\");\n    _;\n  }\n\n  modifier existsAuthor(address author) {\n    require(authorIds[author] != 0, \"author address not exist\");\n    _;\n  }\n\n  function getLastIndex() public view onlyOwner returns(uint) {\n    return authorLastId;\n  }\n\n  function getAuthor(uint index) public view onlyOwner IndexRange(index) returns(address) {\n    return authors[index].owner;\n  }\n\n  modifier IndexRange(uint index) {\n    require (index != 0, \"index mismatch\");\n    require (index < authorLastId , \"index overflow\");\n    _;\n  }\n\n  function greeting() public view onlyOwner returns(string memory) {\n    super.greet();\n    return \"Hello Whitelist\";\n  }\n}\n",
  "sourcePath": "/Users/tech/dev/prd/programming-lectures/lesson011/contracts/Example/SampleWhitelist.sol",
  "compiler": {
    "name": "solc",
    "version": "0.5.8+commit.23d335f2.Emscripten.clang"
  },
  "schemaVersion": "3.0.10",
  "updatedAt": "2019-06-09T14:11:14.025Z",
  "devdoc": {
    "methods": {}
  },
  "userdoc": {
    "methods": {}
  }
}