{
  "contractName": "SampleArticle",
  "abi": [
    {
      "constant": false,
      "inputs": [
        {
          "name": "author",
          "type": "address"
        }
      ],
      "name": "addAuthor",
      "outputs": [],
      "payable": false,
      "stateMutability": "nonpayable",
      "type": "function"
    },
    {
      "constant": true,
      "inputs": [],
      "name": "getLastIndex",
      "outputs": [
        {
          "name": "",
          "type": "uint256"
        }
      ],
      "payable": false,
      "stateMutability": "view",
      "type": "function"
    },
    {
      "constant": false,
      "inputs": [
        {
          "name": "author",
          "type": "address"
        },
        {
          "name": "publish",
          "type": "bool"
        }
      ],
      "name": "updatePublish",
      "outputs": [],
      "payable": false,
      "stateMutability": "nonpayable",
      "type": "function"
    },
    {
      "constant": true,
      "inputs": [
        {
          "name": "index",
          "type": "uint256"
        }
      ],
      "name": "getAuthor",
      "outputs": [
        {
          "name": "",
          "type": "address"
        }
      ],
      "payable": false,
      "stateMutability": "view",
      "type": "function"
    },
    {
      "constant": true,
      "inputs": [],
      "name": "greet",
      "outputs": [
        {
          "name": "",
          "type": "string"
        }
      ],
      "payable": false,
      "stateMutability": "pure",
      "type": "function"
    },
    {
      "constant": true,
      "inputs": [
        {
          "name": "author",
          "type": "address"
        }
      ],
      "name": "isAuthor",
      "outputs": [
        {
          "name": "",
          "type": "bool"
        }
      ],
      "payable": false,
      "stateMutability": "view",
      "type": "function"
    },
    {
      "anonymous": false,
      "inputs": [
        {
          "indexed": false,
          "name": "sender",
          "type": "address"
        },
        {
          "indexed": false,
          "name": "key",
          "type": "bytes32"
        },
        {
          "indexed": false,
          "name": "title",
          "type": "string"
        },
        {
          "indexed": false,
          "name": "description",
          "type": "string"
        },
        {
          "indexed": false,
          "name": "imgsrc",
          "type": "string"
        },
        {
          "indexed": false,
          "name": "createdAt",
          "type": "uint256"
        },
        {
          "indexed": false,
          "name": "updatedAt",
          "type": "uint256"
        }
      ],
      "name": "LogNewContent",
      "type": "event"
    },
    {
      "anonymous": false,
      "inputs": [
        {
          "indexed": false,
          "name": "sender",
          "type": "address"
        },
        {
          "indexed": false,
          "name": "key",
          "type": "bytes32"
        },
        {
          "indexed": false,
          "name": "title",
          "type": "string"
        },
        {
          "indexed": false,
          "name": "description",
          "type": "string"
        },
        {
          "indexed": false,
          "name": "imgsrc",
          "type": "string"
        },
        {
          "indexed": false,
          "name": "createdAt",
          "type": "uint256"
        },
        {
          "indexed": false,
          "name": "updatedAt",
          "type": "uint256"
        }
      ],
      "name": "LogUpdateContent",
      "type": "event"
    },
    {
      "anonymous": false,
      "inputs": [
        {
          "indexed": false,
          "name": "sender",
          "type": "address"
        },
        {
          "indexed": false,
          "name": "key",
          "type": "bytes32"
        }
      ],
      "name": "LogDeleteContent",
      "type": "event"
    },
    {
      "constant": false,
      "inputs": [
        {
          "name": "key",
          "type": "bytes32"
        },
        {
          "name": "title",
          "type": "string"
        },
        {
          "name": "description",
          "type": "string"
        },
        {
          "name": "imgsrc",
          "type": "string"
        }
      ],
      "name": "addContent",
      "outputs": [],
      "payable": false,
      "stateMutability": "nonpayable",
      "type": "function"
    },
    {
      "constant": false,
      "inputs": [
        {
          "name": "key",
          "type": "bytes32"
        },
        {
          "name": "title",
          "type": "string"
        },
        {
          "name": "description",
          "type": "string"
        },
        {
          "name": "imgsrc",
          "type": "string"
        }
      ],
      "name": "updateContent",
      "outputs": [],
      "payable": false,
      "stateMutability": "nonpayable",
      "type": "function"
    },
    {
      "constant": false,
      "inputs": [
        {
          "name": "key",
          "type": "bytes32"
        }
      ],
      "name": "deleteContent",
      "outputs": [],
      "payable": false,
      "stateMutability": "nonpayable",
      "type": "function"
    },
    {
      "constant": true,
      "inputs": [
        {
          "name": "key",
          "type": "bytes32"
        }
      ],
      "name": "getContent",
      "outputs": [
        {
          "name": "title",
          "type": "string"
        },
        {
          "name": "description",
          "type": "string"
        },
        {
          "name": "imgsrc",
          "type": "string"
        },
        {
          "name": "createdAt",
          "type": "uint256"
        },
        {
          "name": "updatedAt",
          "type": "uint256"
        }
      ],
      "payable": false,
      "stateMutability": "view",
      "type": "function"
    },
    {
      "constant": true,
      "inputs": [],
      "name": "getContentCount",
      "outputs": [
        {
          "name": "count",
          "type": "uint256"
        }
      ],
      "payable": false,
      "stateMutability": "view",
      "type": "function"
    },
    {
      "constant": true,
      "inputs": [
        {
          "name": "index",
          "type": "uint256"
        }
      ],
      "name": "getContentAtIndex",
      "outputs": [
        {
          "name": "key",
          "type": "bytes32"
        }
      ],
      "payable": false,
      "stateMutability": "view",
      "type": "function"
    },
    {
      "constant": true,
      "inputs": [],
      "name": "greeting",
      "outputs": [
        {
          "name": "",
          "type": "string"
        }
      ],
      "payable": false,
      "stateMutability": "view",
      "type": "function"
    }
  ],
  "bytecode": "0x6080604052336000806101000a81548173ffffffffffffffffffffffffffffffffffffffff021916908373ffffffffffffffffffffffffffffffffffffffff16021790555060006003819055506123508061005b6000396000f3fe608060405234801561001057600080fd5b50600436106100cf5760003560e01c806374449ca41161008c578063cfae321711610066578063cfae321714610602578063d4b1253014610685578063ef690cc0146106e1578063f8e1ec5514610764576100cf565b806374449ca4146105485780639e2b848814610566578063bcc292c8146105d4576100cf565b806303a77592146100d45780632ddbc97e146102c75780633e1a93001461030b5780635cc15001146103295780635f1f7b9c146104b657806365df652f14610506575b600080fd5b6102c5600480360360808110156100ea57600080fd5b81019080803590602001909291908035906020019064010000000081111561011157600080fd5b82018360208201111561012357600080fd5b8035906020019184600183028401116401000000008311171561014557600080fd5b91908080601f016020809104026020016040519081016040528093929190818152602001838380828437600081840152601f19601f820116905080830192505050505050509192919290803590602001906401000000008111156101a857600080fd5b8201836020820111156101ba57600080fd5b803590602001918460018302840111640100000000831117156101dc57600080fd5b91908080601f016020809104026020016040519081016040528093929190818152602001838380828437600081840152601f19601f8201169050808301925050505050505091929192908035906020019064010000000081111561023f57600080fd5b82018360208201111561025157600080fd5b8035906020019184600183028401116401000000008311171561027357600080fd5b91908080601f016020809104026020016040519081016040528093929190818152602001838380828437600081840152601f19601f820116905080830192505050505050509192919290505050610957565b005b610309600480360360208110156102dd57600080fd5b81019080803573ffffffffffffffffffffffffffffffffffffffff169060200190929190505050610c11565b005b610313610ec5565b6040518082815260200191505060405180910390f35b6103556004803603602081101561033f57600080fd5b8101908080359060200190929190505050610f91565b60405180806020018060200180602001868152602001858152602001848103845289818151815260200191508051906020019080838360005b838110156103a957808201518184015260208101905061038e565b50505050905090810190601f1680156103d65780820380516001836020036101000a031916815260200191505b50848103835288818151815260200191508051906020019080838360005b8381101561040f5780820151818401526020810190506103f4565b50505050905090810190601f16801561043c5780820380516001836020036101000a031916815260200191505b50848103825287818151815260200191508051906020019080838360005b8381101561047557808201518184015260208101905061045a565b50505050905090810190601f1680156104a25780820380516001836020036101000a031916815260200191505b509850505050505050505060405180910390f35b610504600480360360408110156104cc57600080fd5b81019080803573ffffffffffffffffffffffffffffffffffffffff169060200190929190803515159060200190929190505050611219565b005b6105326004803603602081101561051c57600080fd5b8101908080359060200190929190505050611404565b6040518082815260200191505060405180910390f35b610550611421565b6040518082815260200191505060405180910390f35b6105926004803603602081101561057c57600080fd5b8101908080359060200190929190505050611432565b604051808273ffffffffffffffffffffffffffffffffffffffff1673ffffffffffffffffffffffffffffffffffffffff16815260200191505060405180910390f35b610600600480360360208110156105ea57600080fd5b8101908080359060200190929190505050611624565b005b61060a6116fc565b6040518080602001828103825283818151815260200191508051906020019080838360005b8381101561064a57808201518184015260208101905061062f565b50505050905090810190601f1680156106775780820380516001836020036101000a031916815260200191505b509250505060405180910390f35b6106c76004803603602081101561069b57600080fd5b81019080803573ffffffffffffffffffffffffffffffffffffffff169060200190929190505050611739565b604051808215151515815260200191505060405180910390f35b6106e961185d565b6040518080602001828103825283818151815260200191508051906020019080838360005b8381101561072957808201518184015260208101905061070e565b50505050905090810190601f1680156107565780820380516001836020036101000a031916815260200191505b509250505060405180910390f35b6109556004803603608081101561077a57600080fd5b8101908080359060200190929190803590602001906401000000008111156107a157600080fd5b8201836020820111156107b357600080fd5b803590602001918460018302840111640100000000831117156107d557600080fd5b91908080601f016020809104026020016040519081016040528093929190818152602001838380828437600081840152601f19601f8201169050808301925050505050505091929192908035906020019064010000000081111561083857600080fd5b82018360208201111561084a57600080fd5b8035906020019184600183028401116401000000008311171561086c57600080fd5b91908080601f016020809104026020016040519081016040528093929190818152602001838380828437600081840152601f19601f820116905080830192505050505050509192919290803590602001906401000000008111156108cf57600080fd5b8201836020820111156108e157600080fd5b8035906020019184600183028401116401000000008311171561090357600080fd5b91908080601f016020809104026020016040519081016040528093929190818152602001838380828437600081840152601f19601f8201169050808301925050505050505091929192905050506118a3565b005b61096b846004611ba890919063ffffffff16565b60006007600086815260200190815260200160002090508381600001908051906020019061099a929190612195565b50828160010190805190602001906109b3929190612195565b50818160020190805190602001906109cc929190612195565b50428160030181905550600081600401819055507ffcfd8982e33ca856354f49c452eac53a715609a3d4182fab255d5540bd25c6ab338683600001846001018560020186600301548760040154604051808873ffffffffffffffffffffffffffffffffffffffff1673ffffffffffffffffffffffffffffffffffffffff168152602001878152602001806020018060200180602001868152602001858152602001848103845289818154600181600116156101000203166002900481526020019150805460018160011615610100020316600290048015610aee5780601f10610ac357610100808354040283529160200191610aee565b820191906000526020600020905b815481529060010190602001808311610ad157829003601f168201915b5050848103835288818154600181600116156101000203166002900481526020019150805460018160011615610100020316600290048015610b715780601f10610b4657610100808354040283529160200191610b71565b820191906000526020600020905b815481529060010190602001808311610b5457829003601f168201915b5050848103825287818154600181600116156101000203166002900481526020019150805460018160011615610100020316600290048015610bf45780601f10610bc957610100808354040283529160200191610bf4565b820191906000526020600020905b815481529060010190602001808311610bd757829003601f168201915b50509a505050505050505050505060405180910390a15050505050565b6000809054906101000a900473ffffffffffffffffffffffffffffffffffffffff1673ffffffffffffffffffffffffffffffffffffffff163373ffffffffffffffffffffffffffffffffffffffff1614610cd3576040517f08c379a000000000000000000000000000000000000000000000000000000000815260040180806020018281038252600a8152602001807f6f6e6c79206f776e65720000000000000000000000000000000000000000000081525060200191505060405180910390fd5b806000600260008373ffffffffffffffffffffffffffffffffffffffff1673ffffffffffffffffffffffffffffffffffffffff1681526020019081526020016000205414610d89576040517f08c379a00000000000000000000000000000000000000000000000000000000081526004018080602001828103825260158152602001807f617574686f72206164647265737320657869737473000000000000000000000081525060200191505060405180910390fd5b610d91611da9565b600354600260008473ffffffffffffffffffffffffffffffffffffffff1673ffffffffffffffffffffffffffffffffffffffff1681526020019081526020016000208190555060405180604001604052808373ffffffffffffffffffffffffffffffffffffffff1681526020016001151581525060016000600260008673ffffffffffffffffffffffffffffffffffffffff1673ffffffffffffffffffffffffffffffffffffffff16815260200190815260200160002054815260200190815260200160002060008201518160000160006101000a81548173ffffffffffffffffffffffffffffffffffffffff021916908373ffffffffffffffffffffffffffffffffffffffff16021790555060208201518160000160146101000a81548160ff0219169083151502179055509050505050565b60008060009054906101000a900473ffffffffffffffffffffffffffffffffffffffff1673ffffffffffffffffffffffffffffffffffffffff163373ffffffffffffffffffffffffffffffffffffffff1614610f89576040517f08c379a000000000000000000000000000000000000000000000000000000000815260040180806020018281038252600a8152602001807f6f6e6c79206f776e65720000000000000000000000000000000000000000000081525060200191505060405180910390fd5b600354905090565b606080606060008085610fae816004611db790919063ffffffff16565b611003576040517f08c379a00000000000000000000000000000000000000000000000000000000081526004018080602001828103825260268152602001806122d46026913960400191505060405180910390fd5b600060076000898152602001908152602001600020905080600001816001018260020183600301548460040154848054600181600116156101000203166002900480601f0160208091040260200160405190810160405280929190818152602001828054600181600116156101000203166002900480156110c55780601f1061109a576101008083540402835291602001916110c5565b820191906000526020600020905b8154815290600101906020018083116110a857829003601f168201915b50505050509450838054600181600116156101000203166002900480601f0160208091040260200160405190810160405280929190818152602001828054600181600116156101000203166002900480156111615780601f1061113657610100808354040283529160200191611161565b820191906000526020600020905b81548152906001019060200180831161114457829003601f168201915b50505050509350828054600181600116156101000203166002900480601f0160208091040260200160405190810160405280929190818152602001828054600181600116156101000203166002900480156111fd5780601f106111d2576101008083540402835291602001916111fd565b820191906000526020600020905b8154815290600101906020018083116111e057829003601f168201915b5050505050925096509650965096509650505091939590929450565b6000809054906101000a900473ffffffffffffffffffffffffffffffffffffffff1673ffffffffffffffffffffffffffffffffffffffff163373ffffffffffffffffffffffffffffffffffffffff16146112db576040517f08c379a000000000000000000000000000000000000000000000000000000000815260040180806020018281038252600a8152602001807f6f6e6c79206f776e65720000000000000000000000000000000000000000000081525060200191505060405180910390fd5b816000600260008373ffffffffffffffffffffffffffffffffffffffff1673ffffffffffffffffffffffffffffffffffffffff168152602001908152602001600020541415611392576040517f08c379a00000000000000000000000000000000000000000000000000000000081526004018080602001828103825260188152602001807f617574686f722061646472657373206e6f74206578697374000000000000000081525060200191505060405180910390fd5b8160016000600260008773ffffffffffffffffffffffffffffffffffffffff1673ffffffffffffffffffffffffffffffffffffffff16815260200190815260200160002054815260200190815260200160002060000160146101000a81548160ff021916908315150217905550505050565b600061141a826004611e1790919063ffffffff16565b9050919050565b600061142d6004611e3b565b905090565b60008060009054906101000a900473ffffffffffffffffffffffffffffffffffffffff1673ffffffffffffffffffffffffffffffffffffffff163373ffffffffffffffffffffffffffffffffffffffff16146114f6576040517f08c379a000000000000000000000000000000000000000000000000000000000815260040180806020018281038252600a8152602001807f6f6e6c79206f776e65720000000000000000000000000000000000000000000081525060200191505060405180910390fd5b81600081141561156e576040517f08c379a000000000000000000000000000000000000000000000000000000000815260040180806020018281038252600e8152602001807f696e646578206d69736d6174636800000000000000000000000000000000000081525060200191505060405180910390fd5b60035481106115e5576040517f08c379a000000000000000000000000000000000000000000000000000000000815260040180806020018281038252600e8152602001807f696e646578206f766572666c6f7700000000000000000000000000000000000081525060200191505060405180910390fd5b6001600084815260200190815260200160002060000160009054906101000a900473ffffffffffffffffffffffffffffffffffffffff16915050919050565b611638816004611e4c90919063ffffffff16565b600760008281526020019081526020016000206000808201600061165c9190612215565b60018201600061166c9190612215565b60028201600061167c9190612215565b6003820160009055600482016000905550507f89626d5ccb233e8e6aa019949cfe61b999074a9d697e618c0dcfcf231909d5e73382604051808373ffffffffffffffffffffffffffffffffffffffff1673ffffffffffffffffffffffffffffffffffffffff1681526020018281526020019250505060405180910390a150565b60606040518060400160405280600b81526020017f48656c6c6f204f776e6564000000000000000000000000000000000000000000815250905090565b6000816000600260008373ffffffffffffffffffffffffffffffffffffffff1673ffffffffffffffffffffffffffffffffffffffff1681526020019081526020016000205414156117f2576040517f08c379a00000000000000000000000000000000000000000000000000000000081526004018080602001828103825260188152602001807f617574686f722061646472657373206e6f74206578697374000000000000000081525060200191505060405180910390fd5b60016000600260008673ffffffffffffffffffffffffffffffffffffffff1673ffffffffffffffffffffffffffffffffffffffff16815260200190815260200160002054815260200190815260200160002060000160149054906101000a900460ff16915050919050565b6060611867612050565b506040518060400160405280600d81526020017f48656c6c6f2041727469636c6500000000000000000000000000000000000000815250905090565b6118b7846004611db790919063ffffffff16565b61190c576040517f08c379a000000000000000000000000000000000000000000000000000000000815260040180806020018281038252602b8152602001806122fa602b913960400191505060405180910390fd5b60006007600086815260200190815260200160002090508381600001908051906020019061193b929190612195565b5082816001019080519060200190611954929190612195565b508181600201908051906020019061196d929190612195565b504281600401819055507fb536543bacdcbadd35790743663a32ddd5e0f299f524c6e36d84afa6cfe762be338683600001846001018560020186600301548760040154604051808873ffffffffffffffffffffffffffffffffffffffff1673ffffffffffffffffffffffffffffffffffffffff168152602001878152602001806020018060200180602001868152602001858152602001848103845289818154600181600116156101000203166002900481526020019150805460018160011615610100020316600290048015611a855780601f10611a5a57610100808354040283529160200191611a85565b820191906000526020600020905b815481529060010190602001808311611a6857829003601f168201915b5050848103835288818154600181600116156101000203166002900481526020019150805460018160011615610100020316600290048015611b085780601f10611add57610100808354040283529160200191611b08565b820191906000526020600020905b815481529060010190602001808311611aeb57829003601f168201915b5050848103825287818154600181600116156101000203166002900481526020019150805460018160011615610100020316600290048015611b8b5780601f10611b6057610100808354040283529160200191611b8b565b820191906000526020600020905b815481529060010190602001808311611b6e57829003601f168201915b50509a505050505050505050505060405180910390a15050505050565b806000801b811415611c22576040517f08c379a00000000000000000000000000000000000000000000000000000000081526004018080602001828103825260118152602001807f6b65792063616e6e6f742062652030783000000000000000000000000000000081525060200191505060405180910390fd5b82826000826000016000611c368585612158565b81526020019081526020016000205414611cb8576040517f08c379a00000000000000000000000000000000000000000000000000000000081526004018080602001828103825260158152602001807f6d757374206265206b6579206e6f74206578697374000000000000000000000081525060200191505060405180910390fd5b816000016000611cc88484612158565b81526020019081526020016000205482600101805490501015611d53576040517f08c379a00000000000000000000000000000000000000000000000000000000081526004018080602001828103825260128152602001807f6b657920696e646578206f766572666c6f77000000000000000000000000000081525060200191505060405180910390fd5b846001018490806001815401808255809150509060018203906000526020600020016000909192909190915055856000016000611d908888612158565b8152602001908152602001600020819055505050505050565b600160035401600381905550565b60008083600101805490501415611dd15760009050611e11565b81836001016001856000016000611de88888612158565b8152602001908152602001600020540381548110611e0257fe5b90600052602060002001541490505b92915050565b6000826001018281548110611e2857fe5b9060005260206000200154905092915050565b600081600101805490509050919050565b8181600082600101805490501415611ecc576040517f08c379a000000000000000000000000000000000000000000000000000000000815260040180806020018281038252600d8152602001807f6b65797320697320656d7074790000000000000000000000000000000000000081525060200191505060405180910390fd5b80826001016001846000016000611ee38787612158565b8152602001908152602001600020540381548110611efd57fe5b906000526020600020015414611f7b576040517f08c379a00000000000000000000000000000000000000000000000000000000081526004018080602001828103825260118152602001807f6d757374206265206b657920657869737400000000000000000000000000000081525060200191505060405180910390fd5b6000846001016001611f8c87611e3b565b0381548110611f9757fe5b906000526020600020015490506000856000016000611fb68888612158565b815260200190815260200160002054905060018103866000016000611fdb8986612158565b8152602001908152602001600020819055508186600101600183038154811061200057fe5b906000526020600020018190555085600001600061201e8888612158565b81526020019081526020016000206000905585600101805480919060019003612047919061225d565b50505050505050565b60606000809054906101000a900473ffffffffffffffffffffffffffffffffffffffff1673ffffffffffffffffffffffffffffffffffffffff163373ffffffffffffffffffffffffffffffffffffffff1614612114576040517f08c379a000000000000000000000000000000000000000000000000000000000815260040180806020018281038252600a8152602001807f6f6e6c79206f776e65720000000000000000000000000000000000000000000081525060200191505060405180910390fd5b61211c6116fc565b506040518060400160405280600f81526020017f48656c6c6f2057686974656c6973740000000000000000000000000000000000815250905090565b6000826002015482604051602001808381526020018281526020019250505060405160208183030381529060405280519060200120905092915050565b828054600181600116156101000203166002900490600052602060002090601f016020900481019282601f106121d657805160ff1916838001178555612204565b82800160010185558215612204579182015b828111156122035782518255916020019190600101906121e8565b5b5090506122119190612289565b5090565b50805460018160011615610100020316600290046000825580601f1061223b575061225a565b601f0160209004906000526020600020908101906122599190612289565b5b50565b8154818355818111156122845781836000526020600020918201910161228391906122ae565b5b505050565b6122ab91905b808211156122a757600081600090555060010161228f565b5090565b90565b6122d091905b808211156122cc5760008160009055506001016122b4565b5090565b9056fe63616e7420676574206120636f6e74656e74207468617420646f65736e27742065786973742e63616e206e6f7420757064617465206120636f6e74656e74207468617420646f65736e2774206578697374a165627a7a723058204807f36eb3051208592e33ac047fe9147a9b965c180b625c10033d9b8b97a9520029",
  "source": "pragma solidity ^0.5.0;\n\nimport \"./SampleWhitelist.sol\";\nimport \"./SampleOwned.sol\";\nimport \"./SampleKeySetLib.sol\";\n\ncontract SampleArticle is SampleOwned, SampleWhitelist {\n  using SampleKeySetLib for SampleKeySetLib.Set;\n  SampleKeySetLib.Set contentSet;\n\n  struct ContentStruct {\n    string title;\n    string description;\n    string imgsrc;\n    uint256 createdAt;\n    uint256 updatedAt;\n  }\n\n  mapping(bytes32 => ContentStruct) contents;\n\n  event LogNewContent(\n    address sender, \n    bytes32 key, \n    string title, \n    string description, \n    string imgsrc, \n    uint256 createdAt, \n    uint256 updatedAt\n  );\n\n  event LogUpdateContent(\n    address sender, \n    bytes32 key, \n    string title, \n    string description, \n    string imgsrc, \n    uint256 createdAt, \n    uint256 updatedAt\n  );\n\n  event LogDeleteContent(\n    address sender, \n    bytes32 key\n  );\n\n  function addContent(\n    bytes32 key, \n    string memory title, \n    string memory description, \n    string memory imgsrc\n  ) \n    public \n  {\n    contentSet.insert(key);\n    ContentStruct storage c = contents[key];\n    c.title = title;\n    c.description = description;\n    c.imgsrc = imgsrc;\n    c.createdAt = block.timestamp;\n    c.updatedAt = 0;\n    emit LogNewContent(msg.sender, key, c.title, c.description, c.imgsrc, c.createdAt, c.updatedAt);\n  }\n\n  function updateContent(\n    bytes32 key, \n    string memory title, \n    string memory description, \n    string memory imgsrc\n  ) \n    public \n  {\n    require(contentSet.exists(key), \"can not update a content that doesn't exist\");\n    ContentStruct storage c = contents[key];\n    c.title = title;\n    c.description = description;\n    c.imgsrc = imgsrc;\n    c.updatedAt = block.timestamp;\n    emit LogUpdateContent(msg.sender, key, c.title, c.description, c.imgsrc, c.createdAt, c.updatedAt);\n  }\n\n  function deleteContent(\n    bytes32 key\n  ) \n    public \n  {\n    contentSet.remove(key);\n    delete contents[key];\n    emit LogDeleteContent(msg.sender, key);\n  }\n\n  modifier contentExist(\n    bytes32 key\n  ) \n  {\n    require(contentSet.exists(key), \"cant get a content that doesn't exist.\");\n    _;\n  }\n\n  function getContent(\n    bytes32 key\n  ) \n    public \n    view \n    contentExist(key)\n    returns(\n      string memory title, \n      string memory description, \n      string memory imgsrc, \n      uint createdAt, \n      uint updatedAt\n    ) \n  {\n    ContentStruct storage c = contents[key];\n    return(c.title, c.description, c.imgsrc, c.createdAt, c.updatedAt);\n  }\n\n  function getContentCount() \n    public \n    view \n    returns(\n      uint count\n    ) \n  {\n    return contentSet.count();\n  }\n\n  function getContentAtIndex(\n    uint index\n  ) \n    public \n    view \n    returns(\n      bytes32 key\n    ) \n  {\n    return contentSet.keyAtIndex(index);\n  }\n\n  function greeting() \n    public \n    view \n    returns(\n      string memory\n    ) \n  {\n    super.greeting();\n    return \"Hello Article\";\n  }\n\n}\n",
  "sourcePath": "/Users/tech/dev/prd/programming-lectures/lesson011/contracts/Example/SampleArticle.sol",
  "compiler": {
    "name": "solc",
    "version": "0.5.8+commit.23d335f2.Emscripten.clang"
  },
  "schemaVersion": "3.0.10",
  "updatedAt": "2019-06-09T14:11:14.030Z",
  "devdoc": {
    "methods": {}
  },
  "userdoc": {
    "methods": {}
  }
}