{
  "contractName": "SampleKeySet",
  "abi": [
    {
      "anonymous": false,
      "inputs": [
        {
          "indexed": false,
          "name": "sender",
          "type": "address"
        },
        {
          "indexed": false,
          "name": "action",
          "type": "string"
        },
        {
          "indexed": false,
          "name": "key",
          "type": "bytes32"
        }
      ],
      "name": "LogUpdate",
      "type": "event"
    },
    {
      "constant": true,
      "inputs": [
        {
          "name": "key",
          "type": "bytes32"
        }
      ],
      "name": "exists",
      "outputs": [
        {
          "name": "",
          "type": "bool"
        }
      ],
      "payable": false,
      "stateMutability": "view",
      "type": "function"
    },
    {
      "constant": false,
      "inputs": [
        {
          "name": "key",
          "type": "bytes32"
        }
      ],
      "name": "insert",
      "outputs": [],
      "payable": false,
      "stateMutability": "nonpayable",
      "type": "function"
    },
    {
      "constant": false,
      "inputs": [
        {
          "name": "key",
          "type": "bytes32"
        }
      ],
      "name": "remove",
      "outputs": [],
      "payable": false,
      "stateMutability": "nonpayable",
      "type": "function"
    },
    {
      "constant": true,
      "inputs": [],
      "name": "count",
      "outputs": [
        {
          "name": "",
          "type": "uint256"
        }
      ],
      "payable": false,
      "stateMutability": "view",
      "type": "function"
    },
    {
      "constant": true,
      "inputs": [
        {
          "name": "index",
          "type": "uint256"
        }
      ],
      "name": "keyAtIndex",
      "outputs": [
        {
          "name": "",
          "type": "bytes32"
        }
      ],
      "payable": false,
      "stateMutability": "view",
      "type": "function"
    },
    {
      "constant": false,
      "inputs": [],
      "name": "clear",
      "outputs": [],
      "payable": false,
      "stateMutability": "nonpayable",
      "type": "function"
    }
  ],
  "bytecode": "0x608060405234801561001057600080fd5b506108f4806100206000396000f3fe608060405234801561001057600080fd5b50600436106100625760003560e01c806306661abd146100675780632d287e431461008557806338a699a4146100b357806352efea6e146100f95780638e0db0d91461010357806395bc267314610145575b600080fd5b61006f610173565b6040518082815260200191505060405180910390f35b6100b16004803603602081101561009b57600080fd5b8101908080359060200190929190505050610184565b005b6100df600480360360208110156100c957600080fd5b810190808035906020019092919050505061023f565b604051808215151515815260200191505060405180910390f35b61010161025c565b005b61012f6004803603602081101561011957600080fd5b81019080803590602001909291905050506102c8565b6040518082815260200191505060405180910390f35b6101716004803603602081101561015b57600080fd5b81019080803590602001909291905050506102e5565b005b600061017f60006103a0565b905090565b6101988160006103b190919063ffffffff16565b7fa4869f7c3fa4f122d4ca6781128192666d46e2b77aad294a632bd837170912343382604051808373ffffffffffffffffffffffffffffffffffffffff1673ffffffffffffffffffffffffffffffffffffffff16815260200180602001838152602001828103825260068152602001807f696e736572740000000000000000000000000000000000000000000000000000815250602001935050505060405180910390a150565b60006102558260006105b290919063ffffffff16565b9050919050565b600073__SampleKeySetLib_______________________63304ba48a90916040518263ffffffff1660e01b81526004018082815260200191505060006040518083038186803b1580156102ae57600080fd5b505af41580156102c2573d6000803e3d6000fd5b50505050565b60006102de82600061061290919063ffffffff16565b9050919050565b6102f981600061063690919063ffffffff16565b7fa4869f7c3fa4f122d4ca6781128192666d46e2b77aad294a632bd837170912343382604051808373ffffffffffffffffffffffffffffffffffffffff1673ffffffffffffffffffffffffffffffffffffffff16815260200180602001838152602001828103825260068152602001807f72656d6f76650000000000000000000000000000000000000000000000000000815250602001935050505060405180910390a150565b600081600101805490509050919050565b806000801b81141561042b576040517f08c379a00000000000000000000000000000000000000000000000000000000081526004018080602001828103825260118152602001807f6b65792063616e6e6f742062652030783000000000000000000000000000000081525060200191505060405180910390fd5b8282600082600001600061043f858561083a565b815260200190815260200160002054146104c1576040517f08c379a00000000000000000000000000000000000000000000000000000000081526004018080602001828103825260158152602001807f6d757374206265206b6579206e6f74206578697374000000000000000000000081525060200191505060405180910390fd5b8160000160006104d1848461083a565b8152602001908152602001600020548260010180549050101561055c576040517f08c379a00000000000000000000000000000000000000000000000000000000081526004018080602001828103825260128152602001807f6b657920696e646578206f766572666c6f77000000000000000000000000000081525060200191505060405180910390fd5b846001018490806001815401808255809150509060018203906000526020600020016000909192909190915055856000016000610599888861083a565b8152602001908152602001600020819055505050505050565b600080836001018054905014156105cc576000905061060c565b818360010160018560000160006105e3888861083a565b81526020019081526020016000205403815481106105fd57fe5b90600052602060002001541490505b92915050565b600082600101828154811061062357fe5b9060005260206000200154905092915050565b81816000826001018054905014156106b6576040517f08c379a000000000000000000000000000000000000000000000000000000000815260040180806020018281038252600d8152602001807f6b65797320697320656d7074790000000000000000000000000000000000000081525060200191505060405180910390fd5b808260010160018460000160006106cd878761083a565b81526020019081526020016000205403815481106106e757fe5b906000526020600020015414610765576040517f08c379a00000000000000000000000000000000000000000000000000000000081526004018080602001828103825260118152602001807f6d757374206265206b657920657869737400000000000000000000000000000081525060200191505060405180910390fd5b6000846001016001610776876103a0565b038154811061078157fe5b9060005260206000200154905060008560000160006107a0888861083a565b8152602001908152602001600020549050600181038660000160006107c5898661083a565b815260200190815260200160002081905550818660010160018303815481106107ea57fe5b9060005260206000200181905550856000016000610808888861083a565b815260200190815260200160002060009055856001018054809190600190036108319190610877565b50505050505050565b6000826002015482604051602001808381526020018281526020019250505060405160208183030381529060405280519060200120905092915050565b81548183558181111561089e5781836000526020600020918201910161089d91906108a3565b5b505050565b6108c591905b808211156108c15760008160009055506001016108a9565b5090565b9056fea165627a7a723058202be74b94fb2b84c4844a32edb4c4153dafce9175f0bd2fcba3bca9f3f6aaae650029",
  "source": "pragma solidity ^0.5.0;\n\nimport \"./SampleKeySetLib.sol\";\n\ncontract SampleKeySet {\n  using SampleKeySetLib for SampleKeySetLib.Set;\n  SampleKeySetLib.Set set;\n\n  event LogUpdate(address sender, string action, bytes32 key);\n\n  function exists(bytes32 key)\n    public\n    view\n    returns(bool)\n  {\n    return set.exists(key);\n  }\n\n  function insert(bytes32 key)\n    public\n  {\n    set.insert(key);\n    emit LogUpdate(msg.sender, \"insert\", key);\n  }\n\n  function remove(bytes32 key)\n    public\n  {\n    set.remove(key);\n    emit LogUpdate(msg.sender, \"remove\", key);\n  }\n\n  function count()\n    public\n    view\n    returns(uint)\n  {\n    return set.count();\n  }\n\n  function keyAtIndex(uint index)\n    public\n    view\n    returns(bytes32)\n  {\n    return set.keyAtIndex(index);\n  }\n\n  function clear()\n    public\n  {\n    set.clear();\n  }\n}\n",
  "sourcePath": "/Users/tech/dev/prd/programming-lectures/lesson011/contracts/Example/SampleKeySet.sol",
  "compiler": {
    "name": "solc",
    "version": "0.5.8+commit.23d335f2.Emscripten.clang"
  },
  "schemaVersion": "3.0.10",
  "updatedAt": "2019-06-10T07:08:11.081Z",
  "devdoc": {
    "methods": {}
  },
  "userdoc": {
    "methods": {}
  }
}