{
  "contractName": "Trade",
  "abi": [
    {
      "constant": true,
      "inputs": [
        {
          "name": "interfaceId",
          "type": "bytes4"
        }
      ],
      "name": "supportsInterface",
      "outputs": [
        {
          "name": "",
          "type": "bool"
        }
      ],
      "payable": false,
      "stateMutability": "view",
      "type": "function"
    },
    {
      "constant": true,
      "inputs": [],
      "name": "count",
      "outputs": [
        {
          "name": "",
          "type": "uint256"
        }
      ],
      "payable": false,
      "stateMutability": "view",
      "type": "function"
    },
    {
      "constant": true,
      "inputs": [],
      "name": "name",
      "outputs": [
        {
          "name": "",
          "type": "string"
        }
      ],
      "payable": false,
      "stateMutability": "view",
      "type": "function"
    },
    {
      "constant": true,
      "inputs": [
        {
          "name": "tokenId",
          "type": "uint256"
        }
      ],
      "name": "getApproved",
      "outputs": [
        {
          "name": "",
          "type": "address"
        }
      ],
      "payable": false,
      "stateMutability": "view",
      "type": "function"
    },
    {
      "constant": false,
      "inputs": [
        {
          "name": "to",
          "type": "address"
        },
        {
          "name": "tokenId",
          "type": "uint256"
        }
      ],
      "name": "approve",
      "outputs": [],
      "payable": false,
      "stateMutability": "nonpayable",
      "type": "function"
    },
    {
      "constant": false,
      "inputs": [
        {
          "name": "account",
          "type": "address"
        }
      ],
      "name": "addWhitelisted",
      "outputs": [],
      "payable": false,
      "stateMutability": "nonpayable",
      "type": "function"
    },
    {
      "constant": true,
      "inputs": [],
      "name": "totalSupply",
      "outputs": [
        {
          "name": "",
          "type": "uint256"
        }
      ],
      "payable": false,
      "stateMutability": "view",
      "type": "function"
    },
    {
      "constant": false,
      "inputs": [
        {
          "name": "from",
          "type": "address"
        },
        {
          "name": "to",
          "type": "address"
        },
        {
          "name": "tokenId",
          "type": "uint256"
        }
      ],
      "name": "transferFrom",
      "outputs": [],
      "payable": false,
      "stateMutability": "nonpayable",
      "type": "function"
    },
    {
      "constant": false,
      "inputs": [
        {
          "name": "account",
          "type": "address"
        }
      ],
      "name": "removeWhitelisted",
      "outputs": [],
      "payable": false,
      "stateMutability": "nonpayable",
      "type": "function"
    },
    {
      "constant": true,
      "inputs": [
        {
          "name": "owner",
          "type": "address"
        },
        {
          "name": "index",
          "type": "uint256"
        }
      ],
      "name": "tokenOfOwnerByIndex",
      "outputs": [
        {
          "name": "",
          "type": "uint256"
        }
      ],
      "payable": false,
      "stateMutability": "view",
      "type": "function"
    },
    {
      "constant": true,
      "inputs": [
        {
          "name": "account",
          "type": "address"
        }
      ],
      "name": "isWhitelisted",
      "outputs": [
        {
          "name": "",
          "type": "bool"
        }
      ],
      "payable": false,
      "stateMutability": "view",
      "type": "function"
    },
    {
      "constant": false,
      "inputs": [
        {
          "name": "from",
          "type": "address"
        },
        {
          "name": "to",
          "type": "address"
        },
        {
          "name": "tokenId",
          "type": "uint256"
        }
      ],
      "name": "safeTransferFrom",
      "outputs": [],
      "payable": false,
      "stateMutability": "nonpayable",
      "type": "function"
    },
    {
      "constant": false,
      "inputs": [],
      "name": "renounceWhitelistAdmin",
      "outputs": [],
      "payable": false,
      "stateMutability": "nonpayable",
      "type": "function"
    },
    {
      "constant": true,
      "inputs": [
        {
          "name": "index",
          "type": "uint256"
        }
      ],
      "name": "tokenByIndex",
      "outputs": [
        {
          "name": "",
          "type": "uint256"
        }
      ],
      "payable": false,
      "stateMutability": "view",
      "type": "function"
    },
    {
      "constant": true,
      "inputs": [
        {
          "name": "tokenId",
          "type": "uint256"
        }
      ],
      "name": "ownerOf",
      "outputs": [
        {
          "name": "",
          "type": "address"
        }
      ],
      "payable": false,
      "stateMutability": "view",
      "type": "function"
    },
    {
      "constant": true,
      "inputs": [
        {
          "name": "owner",
          "type": "address"
        }
      ],
      "name": "balanceOf",
      "outputs": [
        {
          "name": "",
          "type": "uint256"
        }
      ],
      "payable": false,
      "stateMutability": "view",
      "type": "function"
    },
    {
      "constant": false,
      "inputs": [
        {
          "name": "account",
          "type": "address"
        }
      ],
      "name": "addWhitelistAdmin",
      "outputs": [],
      "payable": false,
      "stateMutability": "nonpayable",
      "type": "function"
    },
    {
      "constant": false,
      "inputs": [
        {
          "name": "cid",
          "type": "uint256"
        },
        {
          "name": "title",
          "type": "string"
        },
        {
          "name": "description",
          "type": "string"
        },
        {
          "name": "imgsrc",
          "type": "string"
        }
      ],
      "name": "updateContent",
      "outputs": [],
      "payable": false,
      "stateMutability": "nonpayable",
      "type": "function"
    },
    {
      "constant": true,
      "inputs": [],
      "name": "symbol",
      "outputs": [
        {
          "name": "",
          "type": "string"
        }
      ],
      "payable": false,
      "stateMutability": "view",
      "type": "function"
    },
    {
      "constant": false,
      "inputs": [
        {
          "name": "to",
          "type": "address"
        },
        {
          "name": "approved",
          "type": "bool"
        }
      ],
      "name": "setApprovalForAll",
      "outputs": [],
      "payable": false,
      "stateMutability": "nonpayable",
      "type": "function"
    },
    {
      "constant": false,
      "inputs": [
        {
          "name": "from",
          "type": "address"
        },
        {
          "name": "to",
          "type": "address"
        },
        {
          "name": "tokenId",
          "type": "uint256"
        },
        {
          "name": "_data",
          "type": "bytes"
        }
      ],
      "name": "safeTransferFrom",
      "outputs": [],
      "payable": false,
      "stateMutability": "nonpayable",
      "type": "function"
    },
    {
      "constant": true,
      "inputs": [
        {
          "name": "account",
          "type": "address"
        }
      ],
      "name": "isWhitelistAdmin",
      "outputs": [
        {
          "name": "",
          "type": "bool"
        }
      ],
      "payable": false,
      "stateMutability": "view",
      "type": "function"
    },
    {
      "constant": true,
      "inputs": [
        {
          "name": "tokenId",
          "type": "uint256"
        }
      ],
      "name": "tokenURI",
      "outputs": [
        {
          "name": "",
          "type": "string"
        }
      ],
      "payable": false,
      "stateMutability": "view",
      "type": "function"
    },
    {
      "constant": false,
      "inputs": [
        {
          "name": "title",
          "type": "string"
        },
        {
          "name": "description",
          "type": "string"
        },
        {
          "name": "imgsrc",
          "type": "string"
        }
      ],
      "name": "createContent",
      "outputs": [],
      "payable": false,
      "stateMutability": "nonpayable",
      "type": "function"
    },
    {
      "constant": false,
      "inputs": [],
      "name": "renounceWhitelisted",
      "outputs": [],
      "payable": false,
      "stateMutability": "nonpayable",
      "type": "function"
    },
    {
      "constant": true,
      "inputs": [
        {
          "name": "owner",
          "type": "address"
        },
        {
          "name": "operator",
          "type": "address"
        }
      ],
      "name": "isApprovedForAll",
      "outputs": [
        {
          "name": "",
          "type": "bool"
        }
      ],
      "payable": false,
      "stateMutability": "view",
      "type": "function"
    },
    {
      "anonymous": false,
      "inputs": [
        {
          "indexed": true,
          "name": "account",
          "type": "address"
        }
      ],
      "name": "WhitelistedAdded",
      "type": "event"
    },
    {
      "anonymous": false,
      "inputs": [
        {
          "indexed": true,
          "name": "account",
          "type": "address"
        }
      ],
      "name": "WhitelistedRemoved",
      "type": "event"
    },
    {
      "anonymous": false,
      "inputs": [
        {
          "indexed": true,
          "name": "account",
          "type": "address"
        }
      ],
      "name": "WhitelistAdminAdded",
      "type": "event"
    },
    {
      "anonymous": false,
      "inputs": [
        {
          "indexed": true,
          "name": "account",
          "type": "address"
        }
      ],
      "name": "WhitelistAdminRemoved",
      "type": "event"
    },
    {
      "anonymous": false,
      "inputs": [
        {
          "indexed": true,
          "name": "from",
          "type": "address"
        },
        {
          "indexed": true,
          "name": "to",
          "type": "address"
        },
        {
          "indexed": true,
          "name": "tokenId",
          "type": "uint256"
        }
      ],
      "name": "Transfer",
      "type": "event"
    },
    {
      "anonymous": false,
      "inputs": [
        {
          "indexed": true,
          "name": "owner",
          "type": "address"
        },
        {
          "indexed": true,
          "name": "approved",
          "type": "address"
        },
        {
          "indexed": true,
          "name": "tokenId",
          "type": "uint256"
        }
      ],
      "name": "Approval",
      "type": "event"
    },
    {
      "anonymous": false,
      "inputs": [
        {
          "indexed": true,
          "name": "owner",
          "type": "address"
        },
        {
          "indexed": true,
          "name": "operator",
          "type": "address"
        },
        {
          "indexed": false,
          "name": "approved",
          "type": "bool"
        }
      ],
      "name": "ApprovalForAll",
      "type": "event"
    },
    {
      "constant": false,
      "inputs": [
        {
          "name": "cid",
          "type": "uint256"
        },
        {
          "name": "price",
          "type": "uint256"
        },
        {
          "name": "ratio",
          "type": "uint256"
        },
        {
          "name": "limitSupply",
          "type": "uint256"
        },
        {
          "name": "publish",
          "type": "bool"
        }
      ],
      "name": "updateTradeInfo",
      "outputs": [],
      "payable": false,
      "stateMutability": "nonpayable",
      "type": "function"
    },
    {
      "constant": true,
      "inputs": [
        {
          "name": "cid",
          "type": "uint256"
        }
      ],
      "name": "getTradeInfo",
      "outputs": [
        {
          "name": "price",
          "type": "uint256"
        },
        {
          "name": "ratio",
          "type": "uint256"
        },
        {
          "name": "limitSupply",
          "type": "uint256"
        },
        {
          "name": "totalSupply",
          "type": "uint256"
        },
        {
          "name": "publish",
          "type": "bool"
        }
      ],
      "payable": false,
      "stateMutability": "view",
      "type": "function"
    },
    {
      "constant": true,
      "inputs": [
        {
          "name": "cid",
          "type": "uint256"
        }
      ],
      "name": "getTradeContent",
      "outputs": [
        {
          "name": "",
          "type": "uint256"
        },
        {
          "name": "",
          "type": "string"
        },
        {
          "name": "",
          "type": "string"
        },
        {
          "name": "",
          "type": "string"
        },
        {
          "name": "",
          "type": "address"
        }
      ],
      "payable": false,
      "stateMutability": "view",
      "type": "function"
    }
  ],
  "bytecode": "0x60806040526040518060400160405280601281526020017f4169726520566f6963652041727469636c6500000000000000000000000000008152506040518060400160405280600381526020017f414941000000000000000000000000000000000000000000000000000000000081525081816200008a6301ffc9a760e01b6200011f60201b60201c565b620000a26380ac58cd60e01b6200011f60201b60201c565b620000ba63780e9d6360e01b6200011f60201b60201c565b8160099080519060200190620000d29291906200044d565b5080600a9080519060200190620000eb9291906200044d565b5062000104635b5e139f60e01b6200011f60201b60201c565b5050505062000119336200022860201b60201c565b620004fc565b63ffffffff60e01b817bffffffffffffffffffffffffffffffffffffffffffffffffffffffff19161415620001bc576040517f08c379a000000000000000000000000000000000000000000000000000000000815260040180806020018281038252601c8152602001807f4552433136353a20696e76616c696420696e746572666163652069640000000081525060200191505060405180910390fd5b6001600080837bffffffffffffffffffffffffffffffffffffffffffffffffffffffff19167bffffffffffffffffffffffffffffffffffffffffffffffffffffffff1916815260200190815260200160002060006101000a81548160ff02191690831515021790555050565b6200024381600c6200028960201b620031311790919060201c565b8073ffffffffffffffffffffffffffffffffffffffff167f22380c05984257a1cb900161c713dd71d39e74820f1aea43bd3f1bdd2096129960405160405180910390a250565b6200029b82826200036d60201b60201c565b156200030f576040517f08c379a000000000000000000000000000000000000000000000000000000000815260040180806020018281038252601f8152602001807f526f6c65733a206163636f756e7420616c72656164792068617320726f6c650081525060200191505060405180910390fd5b60018260000160008373ffffffffffffffffffffffffffffffffffffffff1673ffffffffffffffffffffffffffffffffffffffff16815260200190815260200160002060006101000a81548160ff0219169083151502179055505050565b60008073ffffffffffffffffffffffffffffffffffffffff168273ffffffffffffffffffffffffffffffffffffffff161415620003f6576040517f08c379a000000000000000000000000000000000000000000000000000000000815260040180806020018281038252602281526020018062003fab6022913960400191505060405180910390fd5b8260000160008373ffffffffffffffffffffffffffffffffffffffff1673ffffffffffffffffffffffffffffffffffffffff16815260200190815260200160002060009054906101000a900460ff16905092915050565b828054600181600116156101000203166002900490600052602060002090601f016020900481019282601f106200049057805160ff1916838001178555620004c1565b82800160010185558215620004c1579182015b82811115620004c0578251825591602001919060010190620004a3565b5b509050620004d09190620004d4565b5090565b620004f991905b80821115620004f5576000816000905550600101620004db565b5090565b90565b613a9f806200050c6000396000f3fe608060405234801561001057600080fd5b50600436106101cf5760003560e01c806342842e0e1161010457806395d89b41116100a2578063c87b56dd11610071578063c87b56dd14610d00578063d35216a214610da7578063d6cd947314610eca578063e985e9c514610ed4576101cf565b806395d89b4114610acc578063a22cb46514610b4f578063b88d4fde14610b9f578063bb5f747b14610ca4576101cf565b80636352211e116100de5780636352211e1461089557806370a08231146109035780637362d9c81461095b578063786f7e571461099f576101cf565b806342842e0e146107db5780634c5a628c146108495780634f6ccce714610853576101cf565b806318160ddd116101715780632f745c591161014b5780632f745c591461050257806336c67897146105645780633af32abf146105c65780633b64d29a14610622576101cf565b806318160ddd1461043257806323b872dd14610450578063291d9549146104be576101cf565b806306fdde03116101ad57806306fdde03146102af578063081812fc14610332578063095ea7b3146103a057806310154bad146103ee576101cf565b806301ffc9a7146101d4578063031941ef1461023957806306661abd14610291575b600080fd5b61021f600480360360208110156101ea57600080fd5b8101908080357bffffffffffffffffffffffffffffffffffffffffffffffffffffffff19169060200190929190505050610f50565b604051808215151515815260200191505060405180910390f35b61028f600480360360a081101561024f57600080fd5b8101908080359060200190929190803590602001909291908035906020019092919080359060200190929190803515159060200190929190505050610fb7565b005b610299611132565b6040518082815260200191505060405180910390f35b6102b7611141565b6040518080602001828103825283818151815260200191508051906020019080838360005b838110156102f75780820151818401526020810190506102dc565b50505050905090810190601f1680156103245780820380516001836020036101000a031916815260200191505b509250505060405180910390f35b61035e6004803603602081101561034857600080fd5b81019080803590602001909291905050506111e3565b604051808273ffffffffffffffffffffffffffffffffffffffff1673ffffffffffffffffffffffffffffffffffffffff16815260200191505060405180910390f35b6103ec600480360360408110156103b657600080fd5b81019080803573ffffffffffffffffffffffffffffffffffffffff1690602001909291908035906020019092919050505061127e565b005b6104306004803603602081101561040457600080fd5b81019080803573ffffffffffffffffffffffffffffffffffffffff169060200190929190505050611457565b005b61043a6114c1565b6040518082815260200191505060405180910390f35b6104bc6004803603606081101561046657600080fd5b81019080803573ffffffffffffffffffffffffffffffffffffffff169060200190929190803573ffffffffffffffffffffffffffffffffffffffff169060200190929190803590602001909291905050506114ce565b005b610500600480360360208110156104d457600080fd5b81019080803573ffffffffffffffffffffffffffffffffffffffff16906020019092919050505061153d565b005b61054e6004803603604081101561051857600080fd5b81019080803573ffffffffffffffffffffffffffffffffffffffff169060200190929190803590602001909291905050506115a7565b6040518082815260200191505060405180910390f35b6105906004803603602081101561057a57600080fd5b8101908080359060200190929190505050611666565b60405180868152602001858152602001848152602001838152602001821515151581526020019550505050505060405180910390f35b610608600480360360208110156105dc57600080fd5b81019080803573ffffffffffffffffffffffffffffffffffffffff1690602001909291905050506116d1565b604051808215151515815260200191505060405180910390f35b61064e6004803603602081101561063857600080fd5b81019080803590602001909291905050506116e3565b604051808681526020018060200180602001806020018573ffffffffffffffffffffffffffffffffffffffff1673ffffffffffffffffffffffffffffffffffffffff168152602001848103845288818151815260200191508051906020019080838360005b838110156106ce5780820151818401526020810190506106b3565b50505050905090810190601f1680156106fb5780820380516001836020036101000a031916815260200191505b50848103835287818151815260200191508051906020019080838360005b83811015610734578082015181840152602081019050610719565b50505050905090810190601f1680156107615780820380516001836020036101000a031916815260200191505b50848103825286818151815260200191508051906020019080838360005b8381101561079a57808201518184015260208101905061077f565b50505050905090810190601f1680156107c75780820380516001836020036101000a031916815260200191505b509850505050505050505060405180910390f35b610847600480360360608110156107f157600080fd5b81019080803573ffffffffffffffffffffffffffffffffffffffff169060200190929190803573ffffffffffffffffffffffffffffffffffffffff169060200190929190803590602001909291905050506117f5565b005b610851611815565b005b61087f6004803603602081101561086957600080fd5b8101908080359060200190929190505050611820565b6040518082815260200191505060405180910390f35b6108c1600480360360208110156108ab57600080fd5b81019080803590602001909291905050506118a0565b604051808273ffffffffffffffffffffffffffffffffffffffff1673ffffffffffffffffffffffffffffffffffffffff16815260200191505060405180910390f35b6109456004803603602081101561091957600080fd5b81019080803573ffffffffffffffffffffffffffffffffffffffff169060200190929190505050611968565b6040518082815260200191505060405180910390f35b61099d6004803603602081101561097157600080fd5b81019080803573ffffffffffffffffffffffffffffffffffffffff169060200190929190505050611a3d565b005b610aca600480360360808110156109b557600080fd5b8101908080359060200190929190803590602001906401000000008111156109dc57600080fd5b8201836020820111156109ee57600080fd5b80359060200191846001830284011164010000000083111715610a1057600080fd5b909192939192939080359060200190640100000000811115610a3157600080fd5b820183602082011115610a4357600080fd5b80359060200191846001830284011164010000000083111715610a6557600080fd5b909192939192939080359060200190640100000000811115610a8657600080fd5b820183602082011115610a9857600080fd5b80359060200191846001830284011164010000000083111715610aba57600080fd5b9091929391929390505050611aa7565b005b610ad4611baa565b6040518080602001828103825283818151815260200191508051906020019080838360005b83811015610b14578082015181840152602081019050610af9565b50505050905090810190601f168015610b415780820380516001836020036101000a031916815260200191505b509250505060405180910390f35b610b9d60048036036040811015610b6557600080fd5b81019080803573ffffffffffffffffffffffffffffffffffffffff169060200190929190803515159060200190929190505050611c4c565b005b610ca260048036036080811015610bb557600080fd5b81019080803573ffffffffffffffffffffffffffffffffffffffff169060200190929190803573ffffffffffffffffffffffffffffffffffffffff1690602001909291908035906020019092919080359060200190640100000000811115610c1c57600080fd5b820183602082011115610c2e57600080fd5b80359060200191846001830284011164010000000083111715610c5057600080fd5b91908080601f016020809104026020016040519081016040528093929190818152602001838380828437600081840152601f19601f820116905080830192505050505050509192919290505050611def565b005b610ce660048036036020811015610cba57600080fd5b81019080803573ffffffffffffffffffffffffffffffffffffffff169060200190929190505050611e61565b604051808215151515815260200191505060405180910390f35b610d2c60048036036020811015610d1657600080fd5b8101908080359060200190929190505050611e7e565b6040518080602001828103825283818151815260200191508051906020019080838360005b83811015610d6c578082015181840152602081019050610d51565b50505050905090810190601f168015610d995780820380516001836020036101000a031916815260200191505b509250505060405180910390f35b610ec860048036036060811015610dbd57600080fd5b8101908080359060200190640100000000811115610dda57600080fd5b820183602082011115610dec57600080fd5b80359060200191846001830284011164010000000083111715610e0e57600080fd5b909192939192939080359060200190640100000000811115610e2f57600080fd5b820183602082011115610e4157600080fd5b80359060200191846001830284011164010000000083111715610e6357600080fd5b909192939192939080359060200190640100000000811115610e8457600080fd5b820183602082011115610e9657600080fd5b80359060200191846001830284011164010000000083111715610eb857600080fd5b9091929391929390505050611f91565b005b610ed261219d565b005b610f3660048036036040811015610eea57600080fd5b81019080803573ffffffffffffffffffffffffffffffffffffffff169060200190929190803573ffffffffffffffffffffffffffffffffffffffff1690602001909291905050506121a8565b604051808215151515815260200191505060405180910390f35b6000806000837bffffffffffffffffffffffffffffffffffffffffffffffffffffffff19167bffffffffffffffffffffffffffffffffffffffffffffffffffffffff1916815260200190815260200160002060009054906101000a900460ff169050919050565b82606481111561102f576040517f08c379a000000000000000000000000000000000000000000000000000000000815260040180806020018281038252600e8152602001807f726174696f206f766572666c6f7700000000000000000000000000000000000081525060200191505060405180910390fd5b3373ffffffffffffffffffffffffffffffffffffffff1661104f876118a0565b73ffffffffffffffffffffffffffffffffffffffff161461106f57600080fd5b6110788661223c565b61108157600080fd5b6000600f60008881526020019081526020016000209050858160000181905550828160040160006101000a81548160ff02191690831515021790555084816001018190555083816002018190555060018160050160003373ffffffffffffffffffffffffffffffffffffffff1673ffffffffffffffffffffffffffffffffffffffff16815260200190815260200160002060006101000a81548160ff02191690831515021790555050505050505050565b600061113c6114c1565b905090565b606060098054600181600116156101000203166002900480601f0160208091040260200160405190810160405280929190818152602001828054600181600116156101000203166002900480156111d95780601f106111ae576101008083540402835291602001916111d9565b820191906000526020600020905b8154815290600101906020018083116111bc57829003601f168201915b5050505050905090565b60006111ee8261223c565b611243576040517f08c379a000000000000000000000000000000000000000000000000000000000815260040180806020018281038252602c8152602001806138d6602c913960400191505060405180910390fd5b6002600083815260200190815260200160002060009054906101000a900473ffffffffffffffffffffffffffffffffffffffff169050919050565b6000611289826118a0565b90508073ffffffffffffffffffffffffffffffffffffffff168373ffffffffffffffffffffffffffffffffffffffff161415611310576040517f08c379a00000000000000000000000000000000000000000000000000000000081526004018080602001828103825260218152602001806139f66021913960400191505060405180910390fd5b8073ffffffffffffffffffffffffffffffffffffffff163373ffffffffffffffffffffffffffffffffffffffff161480611350575061134f81336121a8565b5b6113a5576040517f08c379a000000000000000000000000000000000000000000000000000000000815260040180806020018281038252603881526020018061382a6038913960400191505060405180910390fd5b826002600084815260200190815260200160002060006101000a81548173ffffffffffffffffffffffffffffffffffffffff021916908373ffffffffffffffffffffffffffffffffffffffff160217905550818373ffffffffffffffffffffffffffffffffffffffff168273ffffffffffffffffffffffffffffffffffffffff167f8c5be1e5ebec7d5bd14f71427d1e84f3dd0314c0f7b2291e5b200ac8c7c3b92560405160405180910390a4505050565b61146033611e61565b6114b5576040517f08c379a000000000000000000000000000000000000000000000000000000000815260040180806020018281038252604081526020018061394d6040913960400191505060405180910390fd5b6114be816122ae565b50565b6000600780549050905090565b6114d83382612318565b61152d576040517f08c379a0000000000000000000000000000000000000000000000000000000008152600401808060200182810382526031815260200180613a176031913960400191505060405180910390fd5b61153883838361240c565b505050565b61154633611e61565b61159b576040517f08c379a000000000000000000000000000000000000000000000000000000000815260040180806020018281038252604081526020018061394d6040913960400191505060405180910390fd5b6115a481612430565b50565b60006115b283611968565b8210611609576040517f08c379a000000000000000000000000000000000000000000000000000000000815260040180806020018281038252602b81526020018061377d602b913960400191505060405180910390fd5b600560008473ffffffffffffffffffffffffffffffffffffffff1673ffffffffffffffffffffffffffffffffffffffff168152602001908152602001600020828154811061165357fe5b9060005260206000200154905092915050565b60008060008060006116778661223c565b61168057600080fd5b6000600f6000888152602001908152602001600020905080600001548160010154826002015483600301548460040160009054906101000a900460ff16955095509550955095505091939590929450565b60006116dc8261248a565b9050919050565b600060608060606000856000600f600083815260200190815260200160002090508060050160003373ffffffffffffffffffffffffffffffffffffffff1673ffffffffffffffffffffffffffffffffffffffff16815260200190815260200160002060009054906101000a900460ff166117c5576040517f08c379a000000000000000000000000000000000000000000000000000000000815260040180806020018281038252601d8152602001807f6e6f74207369676e65642c20706c6561736520757064617465496e666f00000081525060200191505060405180910390fd5b6117ce8861223c565b6117d757600080fd5b6117e0886124a7565b96509650965096509650505091939590929450565b61181083838360405180602001604052806000815250611def565b505050565b61181e336127b0565b565b600061182a6114c1565b8210611881576040517f08c379a000000000000000000000000000000000000000000000000000000000815260040180806020018281038252602c815260200180613a48602c913960400191505060405180910390fd5b6007828154811061188e57fe5b90600052602060002001549050919050565b6000806001600084815260200190815260200160002060009054906101000a900473ffffffffffffffffffffffffffffffffffffffff169050600073ffffffffffffffffffffffffffffffffffffffff168173ffffffffffffffffffffffffffffffffffffffff16141561195f576040517f08c379a000000000000000000000000000000000000000000000000000000000815260040180806020018281038252602981526020018061388c6029913960400191505060405180910390fd5b80915050919050565b60008073ffffffffffffffffffffffffffffffffffffffff168273ffffffffffffffffffffffffffffffffffffffff1614156119ef576040517f08c379a000000000000000000000000000000000000000000000000000000000815260040180806020018281038252602a815260200180613862602a913960400191505060405180910390fd5b611a36600360008473ffffffffffffffffffffffffffffffffffffffff1673ffffffffffffffffffffffffffffffffffffffff16815260200190815260200160002061280a565b9050919050565b611a4633611e61565b611a9b576040517f08c379a000000000000000000000000000000000000000000000000000000000815260040180806020018281038252604081526020018061394d6040913960400191505060405180910390fd5b611aa481612818565b50565b611ab0336116d1565b611b05576040517f08c379a000000000000000000000000000000000000000000000000000000000815260040180806020018281038252603a8152602001806139bc603a913960400191505060405180910390fd5b3373ffffffffffffffffffffffffffffffffffffffff16611b25886118a0565b73ffffffffffffffffffffffffffffffffffffffff1614611b4557600080fd5b6000600e8881548110611b5457fe5b906000526020600020906004020190508686826000019190611b77929190613603565b508484826001019190611b8b929190613603565b508282826002019190611b9f929190613603565b505050505050505050565b6060600a8054600181600116156101000203166002900480601f016020809104026020016040519081016040528092919081815260200182805460018160011615610100020316600290048015611c425780601f10611c1757610100808354040283529160200191611c42565b820191906000526020600020905b815481529060010190602001808311611c2557829003601f168201915b5050505050905090565b3373ffffffffffffffffffffffffffffffffffffffff168273ffffffffffffffffffffffffffffffffffffffff161415611cee576040517f08c379a00000000000000000000000000000000000000000000000000000000081526004018080602001828103825260198152602001807f4552433732313a20617070726f766520746f2063616c6c65720000000000000081525060200191505060405180910390fd5b80600460003373ffffffffffffffffffffffffffffffffffffffff1673ffffffffffffffffffffffffffffffffffffffff16815260200190815260200160002060008473ffffffffffffffffffffffffffffffffffffffff1673ffffffffffffffffffffffffffffffffffffffff16815260200190815260200160002060006101000a81548160ff0219169083151502179055508173ffffffffffffffffffffffffffffffffffffffff163373ffffffffffffffffffffffffffffffffffffffff167f17307eab39ab6107e8899845ad3d59bd9653f200f220920489ca2b5937696c3183604051808215151515815260200191505060405180910390a35050565b611dfa8484846114ce565b611e0684848484612872565b611e5b576040517f08c379a00000000000000000000000000000000000000000000000000000000081526004018080602001828103825260328152602001806137a86032913960400191505060405180910390fd5b50505050565b6000611e7782600c612a5b90919063ffffffff16565b9050919050565b6060611e898261223c565b611ede576040517f08c379a000000000000000000000000000000000000000000000000000000000815260040180806020018281038252602f81526020018061398d602f913960400191505060405180910390fd5b600b60008381526020019081526020016000208054600181600116156101000203166002900480601f016020809104026020016040519081016040528092919081815260200182805460018160011615610100020316600290048015611f855780601f10611f5a57610100808354040283529160200191611f85565b820191906000526020600020905b815481529060010190602001808311611f6857829003601f168201915b50505050509050919050565b611f9a336116d1565b611fef576040517f08c379a000000000000000000000000000000000000000000000000000000000815260040180806020018281038252603a8152602001806139bc603a913960400191505060405180910390fd5b611ff7613683565b86868080601f016020809104026020016040519081016040528093929190818152602001838380828437600081840152601f19601f82011690508083019250505050505050816000018190525084848080601f016020809104026020016040519081016040528093929190818152602001838380828437600081840152601f19601f82011690508083019250505050505050816020018190525082828080601f016020809104026020016040519081016040528093929190818152602001838380828437600081840152601f19601f82011690508083019250505050505050816040018190525060006001600e8390806001815401808255809150509060018203906000526020600020906004020160009091929091909150600082015181600001908051906020019061212c9291906136ab565b5060208201518160010190805190602001906121499291906136ab565b5060408201518160020190805190602001906121669291906136ab565b5060608201518160030190805190602001906121839291906136ab565b5050500390506121933382612b39565b5050505050505050565b6121a633612430565b565b6000600460008473ffffffffffffffffffffffffffffffffffffffff1673ffffffffffffffffffffffffffffffffffffffff16815260200190815260200160002060008373ffffffffffffffffffffffffffffffffffffffff1673ffffffffffffffffffffffffffffffffffffffff16815260200190815260200160002060009054906101000a900460ff16905092915050565b6000806001600084815260200190815260200160002060009054906101000a900473ffffffffffffffffffffffffffffffffffffffff169050600073ffffffffffffffffffffffffffffffffffffffff168173ffffffffffffffffffffffffffffffffffffffff161415915050919050565b6122b733611e61565b61230c576040517f08c379a000000000000000000000000000000000000000000000000000000000815260040180806020018281038252604081526020018061394d6040913960400191505060405180910390fd5b61231581612b5a565b50565b60006123238261223c565b612378576040517f08c379a000000000000000000000000000000000000000000000000000000000815260040180806020018281038252602c8152602001806137fe602c913960400191505060405180910390fd5b6000612383836118a0565b90508073ffffffffffffffffffffffffffffffffffffffff168473ffffffffffffffffffffffffffffffffffffffff1614806123f257508373ffffffffffffffffffffffffffffffffffffffff166123da846111e3565b73ffffffffffffffffffffffffffffffffffffffff16145b80612403575061240281856121a8565b5b91505092915050565b612417838383612bb4565b6124218382612e0f565b61242b8282612fad565b505050565b61244481600d61307490919063ffffffff16565b8073ffffffffffffffffffffffffffffffffffffffff167f270d9b30cf5b0793bbfd54c9d5b94aeb49462b8148399000265144a8722da6b660405160405180910390a250565b60006124a082600d612a5b90919063ffffffff16565b9050919050565b6000606080606060006124b98661223c565b6124c257600080fd5b6124ca613683565b600e87815481106124d757fe5b9060005260206000209060040201604051806080016040529081600082018054600181600116156101000203166002900480601f0160208091040260200160405190810160405280929190818152602001828054600181600116156101000203166002900480156125895780601f1061255e57610100808354040283529160200191612589565b820191906000526020600020905b81548152906001019060200180831161256c57829003601f168201915b50505050508152602001600182018054600181600116156101000203166002900480601f01602080910402602001604051908101604052809291908181526020018280546001816001161561010002031660029004801561262b5780601f106126005761010080835404028352916020019161262b565b820191906000526020600020905b81548152906001019060200180831161260e57829003601f168201915b50505050508152602001600282018054600181600116156101000203166002900480601f0160208091040260200160405190810160405280929190818152602001828054600181600116156101000203166002900480156126cd5780601f106126a2576101008083540402835291602001916126cd565b820191906000526020600020905b8154815290600101906020018083116126b057829003601f168201915b50505050508152602001600382018054600181600116156101000203166002900480601f01602080910402602001604051908101604052809291908181526020018280546001816001161561010002031660029004801561276f5780601f106127445761010080835404028352916020019161276f565b820191906000526020600020905b81548152906001019060200180831161275257829003601f168201915b5050505050815250509050868160000151826020015183604001516127938b6118a0565b839350829250819150955095509550955095505091939590929450565b6127c481600c61307490919063ffffffff16565b8073ffffffffffffffffffffffffffffffffffffffff167f0a8eb35e5ca14b3d6f28e4abf2f128dbab231a58b56e89beb5d636115001e16560405160405180910390a250565b600081600001549050919050565b61282c81600c61313190919063ffffffff16565b8073ffffffffffffffffffffffffffffffffffffffff167f22380c05984257a1cb900161c713dd71d39e74820f1aea43bd3f1bdd2096129960405160405180910390a250565b60006128938473ffffffffffffffffffffffffffffffffffffffff1661320c565b6128a05760019050612a53565b60008473ffffffffffffffffffffffffffffffffffffffff1663150b7a02338887876040518563ffffffff1660e01b8152600401808573ffffffffffffffffffffffffffffffffffffffff1673ffffffffffffffffffffffffffffffffffffffff1681526020018473ffffffffffffffffffffffffffffffffffffffff1673ffffffffffffffffffffffffffffffffffffffff16815260200183815260200180602001828103825283818151815260200191508051906020019080838360005b8381101561297b578082015181840152602081019050612960565b50505050905090810190601f1680156129a85780820380516001836020036101000a031916815260200191505b5095505050505050602060405180830381600087803b1580156129ca57600080fd5b505af11580156129de573d6000803e3d6000fd5b505050506040513d60208110156129f457600080fd5b8101908080519060200190929190505050905063150b7a0260e01b7bffffffffffffffffffffffffffffffffffffffffffffffffffffffff1916817bffffffffffffffffffffffffffffffffffffffffffffffffffffffff1916149150505b949350505050565b60008073ffffffffffffffffffffffffffffffffffffffff168273ffffffffffffffffffffffffffffffffffffffff161415612ae2576040517f08c379a00000000000000000000000000000000000000000000000000000000081526004018080602001828103825260228152602001806139026022913960400191505060405180910390fd5b8260000160008373ffffffffffffffffffffffffffffffffffffffff1673ffffffffffffffffffffffffffffffffffffffff16815260200190815260200160002060009054906101000a900460ff16905092915050565b612b43828261321f565b612b4d8282612fad565b612b5681613437565b5050565b612b6e81600d61313190919063ffffffff16565b8073ffffffffffffffffffffffffffffffffffffffff167fee1504a83b6d4a361f4c1dc78ab59bfa30d6a3b6612c403e86bb01ef2984295f60405160405180910390a250565b8273ffffffffffffffffffffffffffffffffffffffff16612bd4826118a0565b73ffffffffffffffffffffffffffffffffffffffff1614612c40576040517f08c379a00000000000000000000000000000000000000000000000000000000081526004018080602001828103825260298152602001806139246029913960400191505060405180910390fd5b600073ffffffffffffffffffffffffffffffffffffffff168273ffffffffffffffffffffffffffffffffffffffff161415612cc6576040517f08c379a00000000000000000000000000000000000000000000000000000000081526004018080602001828103825260248152602001806137da6024913960400191505060405180910390fd5b612ccf81613483565b612d16600360008573ffffffffffffffffffffffffffffffffffffffff1673ffffffffffffffffffffffffffffffffffffffff168152602001908152602001600020613541565b612d5d600360008473ffffffffffffffffffffffffffffffffffffffff1673ffffffffffffffffffffffffffffffffffffffff168152602001908152602001600020613564565b816001600083815260200190815260200160002060006101000a81548173ffffffffffffffffffffffffffffffffffffffff021916908373ffffffffffffffffffffffffffffffffffffffff160217905550808273ffffffffffffffffffffffffffffffffffffffff168473ffffffffffffffffffffffffffffffffffffffff167fddf252ad1be2c89b69c2b068fc378daa952ba7f163c4a11628f55a4df523b3ef60405160405180910390a4505050565b6000612e676001600560008673ffffffffffffffffffffffffffffffffffffffff1673ffffffffffffffffffffffffffffffffffffffff1681526020019081526020016000208054905061357a90919063ffffffff16565b9050600060066000848152602001908152602001600020549050818114612f54576000600560008673ffffffffffffffffffffffffffffffffffffffff1673ffffffffffffffffffffffffffffffffffffffff1681526020019081526020016000208381548110612ed457fe5b9060005260206000200154905080600560008773ffffffffffffffffffffffffffffffffffffffff1673ffffffffffffffffffffffffffffffffffffffff1681526020019081526020016000208381548110612f2c57fe5b9060005260206000200181905550816006600083815260200190815260200160002081905550505b600560008573ffffffffffffffffffffffffffffffffffffffff1673ffffffffffffffffffffffffffffffffffffffff168152602001908152602001600020805480919060019003612fa6919061372b565b5050505050565b600560008373ffffffffffffffffffffffffffffffffffffffff1673ffffffffffffffffffffffffffffffffffffffff168152602001908152602001600020805490506006600083815260200190815260200160002081905550600560008373ffffffffffffffffffffffffffffffffffffffff1673ffffffffffffffffffffffffffffffffffffffff1681526020019081526020016000208190806001815401808255809150509060018203906000526020600020016000909192909190915055505050565b61307e8282612a5b565b6130d3576040517f08c379a00000000000000000000000000000000000000000000000000000000081526004018080602001828103825260218152602001806138b56021913960400191505060405180910390fd5b60008260000160008373ffffffffffffffffffffffffffffffffffffffff1673ffffffffffffffffffffffffffffffffffffffff16815260200190815260200160002060006101000a81548160ff0219169083151502179055505050565b61313b8282612a5b565b156131ae576040517f08c379a000000000000000000000000000000000000000000000000000000000815260040180806020018281038252601f8152602001807f526f6c65733a206163636f756e7420616c72656164792068617320726f6c650081525060200191505060405180910390fd5b60018260000160008373ffffffffffffffffffffffffffffffffffffffff1673ffffffffffffffffffffffffffffffffffffffff16815260200190815260200160002060006101000a81548160ff0219169083151502179055505050565b600080823b905060008111915050919050565b600073ffffffffffffffffffffffffffffffffffffffff168273ffffffffffffffffffffffffffffffffffffffff1614156132c2576040517f08c379a00000000000000000000000000000000000000000000000000000000081526004018080602001828103825260208152602001807f4552433732313a206d696e7420746f20746865207a65726f206164647265737381525060200191505060405180910390fd5b6132cb8161223c565b1561333e576040517f08c379a000000000000000000000000000000000000000000000000000000000815260040180806020018281038252601c8152602001807f4552433732313a20746f6b656e20616c7265616479206d696e7465640000000081525060200191505060405180910390fd5b816001600083815260200190815260200160002060006101000a81548173ffffffffffffffffffffffffffffffffffffffff021916908373ffffffffffffffffffffffffffffffffffffffff1602179055506133d7600360008473ffffffffffffffffffffffffffffffffffffffff1673ffffffffffffffffffffffffffffffffffffffff168152602001908152602001600020613564565b808273ffffffffffffffffffffffffffffffffffffffff16600073ffffffffffffffffffffffffffffffffffffffff167fddf252ad1be2c89b69c2b068fc378daa952ba7f163c4a11628f55a4df523b3ef60405160405180910390a45050565b6007805490506008600083815260200190815260200160002081905550600781908060018154018082558091505090600182039060005260206000200160009091929091909150555050565b600073ffffffffffffffffffffffffffffffffffffffff166002600083815260200190815260200160002060009054906101000a900473ffffffffffffffffffffffffffffffffffffffff1673ffffffffffffffffffffffffffffffffffffffff161461353e5760006002600083815260200190815260200160002060006101000a81548173ffffffffffffffffffffffffffffffffffffffff021916908373ffffffffffffffffffffffffffffffffffffffff1602179055505b50565b6135596001826000015461357a90919063ffffffff16565b816000018190555050565b6001816000016000828254019250508190555050565b6000828211156135f2576040517f08c379a000000000000000000000000000000000000000000000000000000000815260040180806020018281038252601e8152602001807f536166654d6174683a207375627472616374696f6e206f766572666c6f77000081525060200191505060405180910390fd5b600082840390508091505092915050565b828054600181600116156101000203166002900490600052602060002090601f016020900481019282601f1061364457803560ff1916838001178555613672565b82800160010185558215613672579182015b82811115613671578235825591602001919060010190613656565b5b50905061367f9190613757565b5090565b6040518060800160405280606081526020016060815260200160608152602001606081525090565b828054600181600116156101000203166002900490600052602060002090601f016020900481019282601f106136ec57805160ff191683800117855561371a565b8280016001018555821561371a579182015b828111156137195782518255916020019190600101906136fe565b5b5090506137279190613757565b5090565b815481835581811115613752578183600052602060002091820191016137519190613757565b5b505050565b61377991905b8082111561377557600081600090555060010161375d565b5090565b9056fe455243373231456e756d657261626c653a206f776e657220696e646578206f7574206f6620626f756e64734552433732313a207472616e7366657220746f206e6f6e20455243373231526563656976657220696d706c656d656e7465724552433732313a207472616e7366657220746f20746865207a65726f20616464726573734552433732313a206f70657261746f7220717565727920666f72206e6f6e6578697374656e7420746f6b656e4552433732313a20617070726f76652063616c6c6572206973206e6f74206f776e6572206e6f7220617070726f76656420666f7220616c6c4552433732313a2062616c616e636520717565727920666f7220746865207a65726f20616464726573734552433732313a206f776e657220717565727920666f72206e6f6e6578697374656e7420746f6b656e526f6c65733a206163636f756e7420646f6573206e6f74206861766520726f6c654552433732313a20617070726f76656420717565727920666f72206e6f6e6578697374656e7420746f6b656e526f6c65733a206163636f756e7420697320746865207a65726f20616464726573734552433732313a207472616e73666572206f6620746f6b656e2074686174206973206e6f74206f776e57686974656c69737441646d696e526f6c653a2063616c6c657220646f6573206e6f742068617665207468652057686974656c69737441646d696e20726f6c654552433732314d657461646174613a2055524920717565727920666f72206e6f6e6578697374656e7420746f6b656e57686974656c6973746564526f6c653a2063616c6c657220646f6573206e6f742068617665207468652057686974656c697374656420726f6c654552433732313a20617070726f76616c20746f2063757272656e74206f776e65724552433732313a207472616e736665722063616c6c6572206973206e6f74206f776e6572206e6f7220617070726f766564455243373231456e756d657261626c653a20676c6f62616c20696e646578206f7574206f6620626f756e6473a165627a7a72305820956f75f876ff9480e4d3f5d525f1432e6a540ec8d6e4527333591a941f0f9d360029526f6c65733a206163636f756e7420697320746865207a65726f2061646472657373",
  "source": "pragma solidity ^0.5.0;\n\nimport \"./Article.sol\";\n\ncontract Trade is Article {\n  struct TradeStruct {\n    uint256 price; // \n    uint256 ratio; //  0 <= ratio <= 100\n    uint256 limitSupply; // \n    uint256 totalSupply; // \n    bool publish; // (true:/false:)\n    mapping(address  => bool) customerMap;\n  }\n  mapping(uint256 => TradeStruct) tradeMap;\n\n  modifier ratioRange(uint256 ratio) {\n    require(ratio <= 100, \"ratio overflow\");\n    _;\n  }\n\n  function updateTradeInfo(\n    uint256 cid, \n    uint256 price,\n    uint256 ratio,\n    uint256 limitSupply,\n    bool publish\n  ) \n    external\n    ratioRange(ratio)\n  {\n    require(ownerOf(cid) == msg.sender);\n    require(_exists(cid));\n    TradeStruct storage trade = tradeMap[cid];\n    trade.price = price;\n    trade.publish = publish;\n    trade.ratio = ratio;\n    trade.limitSupply = limitSupply;\n    trade.customerMap[msg.sender] = true;\n  }\n\n  function getTradeInfo(\n    uint256 cid\n  ) \n    external \n    view \n    returns(\n      uint256 price,\n      uint256 ratio,\n      uint256 limitSupply,\n      uint256 totalSupply,\n      bool publish\n    )\n  {\n    require(_exists(cid));\n    TradeStruct storage trade = tradeMap[cid];\n    return (\n      trade.price,\n      trade.ratio,\n      trade.limitSupply,\n      trade.totalSupply,\n      trade.publish\n    );\n  }\n\n  modifier onlySigner(\n    uint256 cid\n  ) {\n    TradeStruct storage trade = tradeMap[cid];\n    require(trade.customerMap[msg.sender], \"not signed, please updateInfo\");\n    _;\n  }\n\n  function getTradeContent(\n    uint256 cid\n  ) \n    external \n    view \n    onlySigner(cid)\n    returns(\n      uint256, \n      string memory, \n      string memory, \n      string memory, \n      address \n    ) \n  {\n    require(_exists(cid));\n    return super._getContent(cid);\n  }\n\n  modifier notTradePurchased(uint256 cid) {\n    TradeStruct storage trade = tradeMap[cid];\n    require(trade.customerMap[msg.sender] == false, \"trade exist\");\n    _;\n  }\n\n  modifier notLimitSupply(uint256 cid) {\n    TradeStruct storage trade = tradeMap[cid];\n    require(trade.limitSupply > trade.totalSupply, \"supply overflow\");\n    _;\n  }\n\n  function _purchaseTrade(\n    uint256 cid\n  )\n    internal\n    notLimitSupply(cid)\n    notTradePurchased(cid)\n  {\n    require(_exists(cid));\n    TradeStruct storage trade = tradeMap[cid];\n    trade.customerMap[msg.sender] = true;\n    trade.totalSupply++;\n  }\n\n  // step\n  // accounts = await web3.eth.getAccounts();\n  // i = await Trade.deployed()\n  // i.addWhitelisted(accounts[0]);\n  // i.isWhitelisted(accounts[0]);\n  // i.createContent(\"hello\",\"world\",\"img.png\");\n  // i.updateTradeInfo(0,100,true);\n  // i.getTradeInfo(0);\n  // i.getContent(0);\n  // i.getContent(0, {from: accounts[0]});\n  // i.getContent(0, {from: accounts[1]});\n  // i.purchase(0, {from: accounts[1], value: 100});\n  // i.getContent(0, {from: accounts[0]});\n  // i.getContent(0, {from: accounts[1]});\n\n  //\n}\n",
  "sourcePath": "/Users/tech/dev/prd/programming-lectures/lesson011/contracts/Product/Trade.sol",
  "compiler": {
    "name": "solc",
    "version": "0.5.8+commit.23d335f2.Emscripten.clang"
  },
  "schemaVersion": "3.0.10",
  "updatedAt": "2019-06-09T14:11:15.616Z",
  "devdoc": {
    "methods": {
      "approve(address,uint256)": {
        "details": "Approves another address to transfer the given token ID The zero address indicates there is no approved address. There can only be one approved address per token at a given time. Can only be called by the token owner or an approved operator.",
        "params": {
          "to": "address to be approved for the given token ID",
          "tokenId": "uint256 ID of the token to be approved"
        }
      },
      "balanceOf(address)": {
        "details": "Gets the balance of the specified address.",
        "params": {
          "owner": "address to query the balance of"
        },
        "return": "uint256 representing the amount owned by the passed address"
      },
      "getApproved(uint256)": {
        "details": "Gets the approved address for a token ID, or zero if no address set Reverts if the token ID does not exist.",
        "params": {
          "tokenId": "uint256 ID of the token to query the approval of"
        },
        "return": "address currently approved for the given token ID"
      },
      "isApprovedForAll(address,address)": {
        "details": "Tells whether an operator is approved by a given owner.",
        "params": {
          "operator": "operator address which you want to query the approval of",
          "owner": "owner address which you want to query the approval of"
        },
        "return": "bool whether the given operator is approved by the given owner"
      },
      "name()": {
        "details": "Gets the token name.",
        "return": "string representing the token name"
      },
      "ownerOf(uint256)": {
        "details": "Gets the owner of the specified token ID.",
        "params": {
          "tokenId": "uint256 ID of the token to query the owner of"
        },
        "return": "address currently marked as the owner of the given token ID"
      },
      "safeTransferFrom(address,address,uint256)": {
        "details": "Safely transfers the ownership of a given token ID to another address If the target address is a contract, it must implement `onERC721Received`, which is called upon a safe transfer, and return the magic value `bytes4(keccak256(\"onERC721Received(address,address,uint256,bytes)\"))`; otherwise, the transfer is reverted. Requires the msg.sender to be the owner, approved, or operator",
        "params": {
          "from": "current owner of the token",
          "to": "address to receive the ownership of the given token ID",
          "tokenId": "uint256 ID of the token to be transferred"
        }
      },
      "safeTransferFrom(address,address,uint256,bytes)": {
        "details": "Safely transfers the ownership of a given token ID to another address If the target address is a contract, it must implement `onERC721Received`, which is called upon a safe transfer, and return the magic value `bytes4(keccak256(\"onERC721Received(address,address,uint256,bytes)\"))`; otherwise, the transfer is reverted. Requires the msg.sender to be the owner, approved, or operator",
        "params": {
          "_data": "bytes data to send along with a safe transfer check",
          "from": "current owner of the token",
          "to": "address to receive the ownership of the given token ID",
          "tokenId": "uint256 ID of the token to be transferred"
        }
      },
      "setApprovalForAll(address,bool)": {
        "details": "Sets or unsets the approval of a given operator An operator is allowed to transfer all tokens of the sender on their behalf.",
        "params": {
          "approved": "representing the status of the approval to be set",
          "to": "operator address to set the approval"
        }
      },
      "supportsInterface(bytes4)": {
        "details": "See `IERC165.supportsInterface`.     * Time complexity O(1), guaranteed to always use less than 30 000 gas."
      },
      "symbol()": {
        "details": "Gets the token symbol.",
        "return": "string representing the token symbol"
      },
      "tokenByIndex(uint256)": {
        "details": "Gets the token ID at a given index of all the tokens in this contract Reverts if the index is greater or equal to the total number of tokens.",
        "params": {
          "index": "uint256 representing the index to be accessed of the tokens list"
        },
        "return": "uint256 token ID at the given index of the tokens list"
      },
      "tokenOfOwnerByIndex(address,uint256)": {
        "details": "Gets the token ID at a given index of the tokens list of the requested owner.",
        "params": {
          "index": "uint256 representing the index to be accessed of the requested tokens list",
          "owner": "address owning the tokens list to be accessed"
        },
        "return": "uint256 token ID at the given index of the tokens list owned by the requested address"
      },
      "tokenURI(uint256)": {
        "details": "Returns an URI for a given token ID. Throws if the token ID does not exist. May return an empty string.",
        "params": {
          "tokenId": "uint256 ID of the token to query"
        }
      },
      "totalSupply()": {
        "details": "Gets the total amount of tokens stored by the contract.",
        "return": "uint256 representing the total amount of tokens"
      },
      "transferFrom(address,address,uint256)": {
        "details": "Transfers the ownership of a given token ID to another address. Usage of this method is discouraged, use `safeTransferFrom` whenever possible. Requires the msg.sender to be the owner, approved, or operator.",
        "params": {
          "from": "current owner of the token",
          "to": "address to receive the ownership of the given token ID",
          "tokenId": "uint256 ID of the token to be transferred"
        }
      }
    }
  },
  "userdoc": {
    "methods": {}
  }
}