{
  "contractName": "Trade",
  "abi": [
    {
      "constant": true,
      "inputs": [
        {
          "name": "interfaceId",
          "type": "bytes4"
        }
      ],
      "name": "supportsInterface",
      "outputs": [
        {
          "name": "",
          "type": "bool"
        }
      ],
      "payable": false,
      "stateMutability": "view",
      "type": "function"
    },
    {
      "constant": true,
      "inputs": [],
      "name": "count",
      "outputs": [
        {
          "name": "",
          "type": "uint256"
        }
      ],
      "payable": false,
      "stateMutability": "view",
      "type": "function"
    },
    {
      "constant": true,
      "inputs": [],
      "name": "name",
      "outputs": [
        {
          "name": "",
          "type": "string"
        }
      ],
      "payable": false,
      "stateMutability": "view",
      "type": "function"
    },
    {
      "constant": true,
      "inputs": [
        {
          "name": "tokenId",
          "type": "uint256"
        }
      ],
      "name": "getApproved",
      "outputs": [
        {
          "name": "",
          "type": "address"
        }
      ],
      "payable": false,
      "stateMutability": "view",
      "type": "function"
    },
    {
      "constant": false,
      "inputs": [
        {
          "name": "to",
          "type": "address"
        },
        {
          "name": "tokenId",
          "type": "uint256"
        }
      ],
      "name": "approve",
      "outputs": [],
      "payable": false,
      "stateMutability": "nonpayable",
      "type": "function"
    },
    {
      "constant": false,
      "inputs": [
        {
          "name": "account",
          "type": "address"
        }
      ],
      "name": "addWhitelisted",
      "outputs": [],
      "payable": false,
      "stateMutability": "nonpayable",
      "type": "function"
    },
    {
      "constant": true,
      "inputs": [],
      "name": "totalSupply",
      "outputs": [
        {
          "name": "",
          "type": "uint256"
        }
      ],
      "payable": false,
      "stateMutability": "view",
      "type": "function"
    },
    {
      "constant": false,
      "inputs": [
        {
          "name": "from",
          "type": "address"
        },
        {
          "name": "to",
          "type": "address"
        },
        {
          "name": "tokenId",
          "type": "uint256"
        }
      ],
      "name": "transferFrom",
      "outputs": [],
      "payable": false,
      "stateMutability": "nonpayable",
      "type": "function"
    },
    {
      "constant": false,
      "inputs": [
        {
          "name": "account",
          "type": "address"
        }
      ],
      "name": "removeWhitelisted",
      "outputs": [],
      "payable": false,
      "stateMutability": "nonpayable",
      "type": "function"
    },
    {
      "constant": true,
      "inputs": [
        {
          "name": "owner",
          "type": "address"
        },
        {
          "name": "index",
          "type": "uint256"
        }
      ],
      "name": "tokenOfOwnerByIndex",
      "outputs": [
        {
          "name": "",
          "type": "uint256"
        }
      ],
      "payable": false,
      "stateMutability": "view",
      "type": "function"
    },
    {
      "constant": true,
      "inputs": [
        {
          "name": "account",
          "type": "address"
        }
      ],
      "name": "isWhitelisted",
      "outputs": [
        {
          "name": "",
          "type": "bool"
        }
      ],
      "payable": false,
      "stateMutability": "view",
      "type": "function"
    },
    {
      "constant": false,
      "inputs": [
        {
          "name": "from",
          "type": "address"
        },
        {
          "name": "to",
          "type": "address"
        },
        {
          "name": "tokenId",
          "type": "uint256"
        }
      ],
      "name": "safeTransferFrom",
      "outputs": [],
      "payable": false,
      "stateMutability": "nonpayable",
      "type": "function"
    },
    {
      "constant": false,
      "inputs": [],
      "name": "renounceWhitelistAdmin",
      "outputs": [],
      "payable": false,
      "stateMutability": "nonpayable",
      "type": "function"
    },
    {
      "constant": true,
      "inputs": [
        {
          "name": "index",
          "type": "uint256"
        }
      ],
      "name": "tokenByIndex",
      "outputs": [
        {
          "name": "",
          "type": "uint256"
        }
      ],
      "payable": false,
      "stateMutability": "view",
      "type": "function"
    },
    {
      "constant": true,
      "inputs": [
        {
          "name": "tokenId",
          "type": "uint256"
        }
      ],
      "name": "ownerOf",
      "outputs": [
        {
          "name": "",
          "type": "address"
        }
      ],
      "payable": false,
      "stateMutability": "view",
      "type": "function"
    },
    {
      "constant": true,
      "inputs": [
        {
          "name": "owner",
          "type": "address"
        }
      ],
      "name": "balanceOf",
      "outputs": [
        {
          "name": "",
          "type": "uint256"
        }
      ],
      "payable": false,
      "stateMutability": "view",
      "type": "function"
    },
    {
      "constant": false,
      "inputs": [
        {
          "name": "account",
          "type": "address"
        }
      ],
      "name": "addWhitelistAdmin",
      "outputs": [],
      "payable": false,
      "stateMutability": "nonpayable",
      "type": "function"
    },
    {
      "constant": false,
      "inputs": [
        {
          "name": "cid",
          "type": "uint256"
        },
        {
          "name": "title",
          "type": "string"
        },
        {
          "name": "description",
          "type": "string"
        },
        {
          "name": "imgsrc",
          "type": "string"
        }
      ],
      "name": "updateContent",
      "outputs": [],
      "payable": false,
      "stateMutability": "nonpayable",
      "type": "function"
    },
    {
      "constant": true,
      "inputs": [],
      "name": "symbol",
      "outputs": [
        {
          "name": "",
          "type": "string"
        }
      ],
      "payable": false,
      "stateMutability": "view",
      "type": "function"
    },
    {
      "constant": false,
      "inputs": [
        {
          "name": "to",
          "type": "address"
        },
        {
          "name": "approved",
          "type": "bool"
        }
      ],
      "name": "setApprovalForAll",
      "outputs": [],
      "payable": false,
      "stateMutability": "nonpayable",
      "type": "function"
    },
    {
      "constant": false,
      "inputs": [
        {
          "name": "from",
          "type": "address"
        },
        {
          "name": "to",
          "type": "address"
        },
        {
          "name": "tokenId",
          "type": "uint256"
        },
        {
          "name": "_data",
          "type": "bytes"
        }
      ],
      "name": "safeTransferFrom",
      "outputs": [],
      "payable": false,
      "stateMutability": "nonpayable",
      "type": "function"
    },
    {
      "constant": true,
      "inputs": [
        {
          "name": "account",
          "type": "address"
        }
      ],
      "name": "isWhitelistAdmin",
      "outputs": [
        {
          "name": "",
          "type": "bool"
        }
      ],
      "payable": false,
      "stateMutability": "view",
      "type": "function"
    },
    {
      "constant": true,
      "inputs": [
        {
          "name": "tokenId",
          "type": "uint256"
        }
      ],
      "name": "tokenURI",
      "outputs": [
        {
          "name": "",
          "type": "string"
        }
      ],
      "payable": false,
      "stateMutability": "view",
      "type": "function"
    },
    {
      "constant": false,
      "inputs": [
        {
          "name": "title",
          "type": "string"
        },
        {
          "name": "description",
          "type": "string"
        },
        {
          "name": "imgsrc",
          "type": "string"
        }
      ],
      "name": "createContent",
      "outputs": [],
      "payable": false,
      "stateMutability": "nonpayable",
      "type": "function"
    },
    {
      "constant": false,
      "inputs": [],
      "name": "renounceWhitelisted",
      "outputs": [],
      "payable": false,
      "stateMutability": "nonpayable",
      "type": "function"
    },
    {
      "constant": true,
      "inputs": [
        {
          "name": "owner",
          "type": "address"
        },
        {
          "name": "operator",
          "type": "address"
        }
      ],
      "name": "isApprovedForAll",
      "outputs": [
        {
          "name": "",
          "type": "bool"
        }
      ],
      "payable": false,
      "stateMutability": "view",
      "type": "function"
    },
    {
      "anonymous": false,
      "inputs": [
        {
          "indexed": true,
          "name": "account",
          "type": "address"
        }
      ],
      "name": "WhitelistedAdded",
      "type": "event"
    },
    {
      "anonymous": false,
      "inputs": [
        {
          "indexed": true,
          "name": "account",
          "type": "address"
        }
      ],
      "name": "WhitelistedRemoved",
      "type": "event"
    },
    {
      "anonymous": false,
      "inputs": [
        {
          "indexed": true,
          "name": "account",
          "type": "address"
        }
      ],
      "name": "WhitelistAdminAdded",
      "type": "event"
    },
    {
      "anonymous": false,
      "inputs": [
        {
          "indexed": true,
          "name": "account",
          "type": "address"
        }
      ],
      "name": "WhitelistAdminRemoved",
      "type": "event"
    },
    {
      "anonymous": false,
      "inputs": [
        {
          "indexed": true,
          "name": "from",
          "type": "address"
        },
        {
          "indexed": true,
          "name": "to",
          "type": "address"
        },
        {
          "indexed": true,
          "name": "tokenId",
          "type": "uint256"
        }
      ],
      "name": "Transfer",
      "type": "event"
    },
    {
      "anonymous": false,
      "inputs": [
        {
          "indexed": true,
          "name": "owner",
          "type": "address"
        },
        {
          "indexed": true,
          "name": "approved",
          "type": "address"
        },
        {
          "indexed": true,
          "name": "tokenId",
          "type": "uint256"
        }
      ],
      "name": "Approval",
      "type": "event"
    },
    {
      "anonymous": false,
      "inputs": [
        {
          "indexed": true,
          "name": "owner",
          "type": "address"
        },
        {
          "indexed": true,
          "name": "operator",
          "type": "address"
        },
        {
          "indexed": false,
          "name": "approved",
          "type": "bool"
        }
      ],
      "name": "ApprovalForAll",
      "type": "event"
    },
    {
      "constant": false,
      "inputs": [
        {
          "name": "cid",
          "type": "uint256"
        },
        {
          "name": "price",
          "type": "uint256"
        },
        {
          "name": "ratio",
          "type": "uint256"
        },
        {
          "name": "limitSupply",
          "type": "uint256"
        },
        {
          "name": "publish",
          "type": "bool"
        }
      ],
      "name": "updateTradeInfo",
      "outputs": [],
      "payable": false,
      "stateMutability": "nonpayable",
      "type": "function"
    },
    {
      "constant": true,
      "inputs": [
        {
          "name": "cid",
          "type": "uint256"
        }
      ],
      "name": "getTradeInfo",
      "outputs": [
        {
          "name": "price",
          "type": "uint256"
        },
        {
          "name": "ratio",
          "type": "uint256"
        },
        {
          "name": "limitSupply",
          "type": "uint256"
        },
        {
          "name": "totalSupply",
          "type": "uint256"
        },
        {
          "name": "publish",
          "type": "bool"
        }
      ],
      "payable": false,
      "stateMutability": "view",
      "type": "function"
    },
    {
      "constant": true,
      "inputs": [
        {
          "name": "cid",
          "type": "uint256"
        }
      ],
      "name": "getTradeContent",
      "outputs": [
        {
          "name": "",
          "type": "uint256"
        },
        {
          "name": "",
          "type": "string"
        },
        {
          "name": "",
          "type": "string"
        },
        {
          "name": "",
          "type": "string"
        },
        {
          "name": "",
          "type": "address"
        }
      ],
      "payable": false,
      "stateMutability": "view",
      "type": "function"
    },
    {
      "constant": true,
      "inputs": [
        {
          "name": "cid",
          "type": "uint256"
        }
      ],
      "name": "calcLimit",
      "outputs": [
        {
          "name": "",
          "type": "bool"
        }
      ],
      "payable": false,
      "stateMutability": "view",
      "type": "function"
    }
  ],
  "bytecode": "0x60806040526040518060400160405280601281526020017f4169726520566f6963652041727469636c6500000000000000000000000000008152506040518060400160405280600381526020017f414941000000000000000000000000000000000000000000000000000000000081525081816200008a6301ffc9a760e01b6200011f60201b60201c565b620000a26380ac58cd60e01b6200011f60201b60201c565b620000ba63780e9d6360e01b6200011f60201b60201c565b8160099080519060200190620000d29291906200044d565b5080600a9080519060200190620000eb9291906200044d565b5062000104635b5e139f60e01b6200011f60201b60201c565b5050505062000119336200022860201b60201c565b620004fc565b63ffffffff60e01b817bffffffffffffffffffffffffffffffffffffffffffffffffffffffff19161415620001bc576040517f08c379a000000000000000000000000000000000000000000000000000000000815260040180806020018281038252601c8152602001807f4552433136353a20696e76616c696420696e746572666163652069640000000081525060200191505060405180910390fd5b6001600080837bffffffffffffffffffffffffffffffffffffffffffffffffffffffff19167bffffffffffffffffffffffffffffffffffffffffffffffffffffffff1916815260200190815260200160002060006101000a81548160ff02191690831515021790555050565b6200024381600c6200028960201b620033091790919060201c565b8073ffffffffffffffffffffffffffffffffffffffff167f22380c05984257a1cb900161c713dd71d39e74820f1aea43bd3f1bdd2096129960405160405180910390a250565b6200029b82826200036d60201b60201c565b156200030f576040517f08c379a000000000000000000000000000000000000000000000000000000000815260040180806020018281038252601f8152602001807f526f6c65733a206163636f756e7420616c72656164792068617320726f6c650081525060200191505060405180910390fd5b60018260000160008373ffffffffffffffffffffffffffffffffffffffff1673ffffffffffffffffffffffffffffffffffffffff16815260200190815260200160002060006101000a81548160ff0219169083151502179055505050565b60008073ffffffffffffffffffffffffffffffffffffffff168273ffffffffffffffffffffffffffffffffffffffff161415620003f6576040517f08c379a0000000000000000000000000000000000000000000000000000000008152600401808060200182810382526022815260200180620041a86022913960400191505060405180910390fd5b8260000160008373ffffffffffffffffffffffffffffffffffffffff1673ffffffffffffffffffffffffffffffffffffffff16815260200190815260200160002060009054906101000a900460ff16905092915050565b828054600181600116156101000203166002900490600052602060002090601f016020900481019282601f106200049057805160ff1916838001178555620004c1565b82800160010185558215620004c1579182015b82811115620004c0578251825591602001919060010190620004a3565b5b509050620004d09190620004d4565b5090565b620004f991905b80821115620004f5576000816000905550600101620004db565b5090565b90565b613c9c806200050c6000396000f3fe608060405234801561001057600080fd5b50600436106101da5760003560e01c80634c5a628c11610104578063a22cb465116100a2578063c87b56dd11610071578063c87b56dd14610d51578063d35216a214610df8578063d6cd947314610f1b578063e985e9c514610f25576101da565b8063a22cb46514610b5a578063b88d4fde14610baa578063b8d8bbc514610caf578063bb5f747b14610cf5576101da565b806370a08231116100de57806370a082311461090e5780637362d9c814610966578063786f7e57146109aa57806395d89b4114610ad7576101da565b80634c5a628c146108545780634f6ccce71461085e5780636352211e146108a0576101da565b806318160ddd1161017c57806336c678971161014b57806336c678971461056f5780633af32abf146105d15780633b64d29a1461062d57806342842e0e146107e6576101da565b806318160ddd1461043d57806323b872dd1461045b578063291d9549146104c95780632f745c591461050d576101da565b806306fdde03116101b857806306fdde03146102ba578063081812fc1461033d578063095ea7b3146103ab57806310154bad146103f9576101da565b806301ffc9a7146101df578063031941ef1461024457806306661abd1461029c575b600080fd5b61022a600480360360208110156101f557600080fd5b8101908080357bffffffffffffffffffffffffffffffffffffffffffffffffffffffff19169060200190929190505050610fa1565b604051808215151515815260200191505060405180910390f35b61029a600480360360a081101561025a57600080fd5b8101908080359060200190929190803590602001909291908035906020019092919080359060200190929190803515159060200190929190505050611008565b005b6102a46112db565b6040518082815260200191505060405180910390f35b6102c26112ea565b6040518080602001828103825283818151815260200191508051906020019080838360005b838110156103025780820151818401526020810190506102e7565b50505050905090810190601f16801561032f5780820380516001836020036101000a031916815260200191505b509250505060405180910390f35b6103696004803603602081101561035357600080fd5b810190808035906020019092919050505061138c565b604051808273ffffffffffffffffffffffffffffffffffffffff1673ffffffffffffffffffffffffffffffffffffffff16815260200191505060405180910390f35b6103f7600480360360408110156103c157600080fd5b81019080803573ffffffffffffffffffffffffffffffffffffffff16906020019092919080359060200190929190505050611427565b005b61043b6004803603602081101561040f57600080fd5b81019080803573ffffffffffffffffffffffffffffffffffffffff169060200190929190505050611600565b005b61044561166a565b6040518082815260200191505060405180910390f35b6104c76004803603606081101561047157600080fd5b81019080803573ffffffffffffffffffffffffffffffffffffffff169060200190929190803573ffffffffffffffffffffffffffffffffffffffff16906020019092919080359060200190929190505050611677565b005b61050b600480360360208110156104df57600080fd5b81019080803573ffffffffffffffffffffffffffffffffffffffff1690602001909291905050506116e6565b005b6105596004803603604081101561052357600080fd5b81019080803573ffffffffffffffffffffffffffffffffffffffff16906020019092919080359060200190929190505050611750565b6040518082815260200191505060405180910390f35b61059b6004803603602081101561058557600080fd5b810190808035906020019092919050505061180f565b60405180868152602001858152602001848152602001838152602001821515151581526020019550505050505060405180910390f35b610613600480360360208110156105e757600080fd5b81019080803573ffffffffffffffffffffffffffffffffffffffff16906020019092919050505061187a565b604051808215151515815260200191505060405180910390f35b6106596004803603602081101561064357600080fd5b810190808035906020019092919050505061188c565b604051808681526020018060200180602001806020018573ffffffffffffffffffffffffffffffffffffffff1673ffffffffffffffffffffffffffffffffffffffff168152602001848103845288818151815260200191508051906020019080838360005b838110156106d95780820151818401526020810190506106be565b50505050905090810190601f1680156107065780820380516001836020036101000a031916815260200191505b50848103835287818151815260200191508051906020019080838360005b8381101561073f578082015181840152602081019050610724565b50505050905090810190601f16801561076c5780820380516001836020036101000a031916815260200191505b50848103825286818151815260200191508051906020019080838360005b838110156107a557808201518184015260208101905061078a565b50505050905090810190601f1680156107d25780820380516001836020036101000a031916815260200191505b509850505050505050505060405180910390f35b610852600480360360608110156107fc57600080fd5b81019080803573ffffffffffffffffffffffffffffffffffffffff169060200190929190803573ffffffffffffffffffffffffffffffffffffffff1690602001909291908035906020019092919050505061199e565b005b61085c6119be565b005b61088a6004803603602081101561087457600080fd5b81019080803590602001909291905050506119c9565b6040518082815260200191505060405180910390f35b6108cc600480360360208110156108b657600080fd5b8101908080359060200190929190505050611a49565b604051808273ffffffffffffffffffffffffffffffffffffffff1673ffffffffffffffffffffffffffffffffffffffff16815260200191505060405180910390f35b6109506004803603602081101561092457600080fd5b81019080803573ffffffffffffffffffffffffffffffffffffffff169060200190929190505050611b11565b6040518082815260200191505060405180910390f35b6109a86004803603602081101561097c57600080fd5b81019080803573ffffffffffffffffffffffffffffffffffffffff169060200190929190505050611be6565b005b610ad5600480360360808110156109c057600080fd5b8101908080359060200190929190803590602001906401000000008111156109e757600080fd5b8201836020820111156109f957600080fd5b80359060200191846001830284011164010000000083111715610a1b57600080fd5b909192939192939080359060200190640100000000811115610a3c57600080fd5b820183602082011115610a4e57600080fd5b80359060200191846001830284011164010000000083111715610a7057600080fd5b909192939192939080359060200190640100000000811115610a9157600080fd5b820183602082011115610aa357600080fd5b80359060200191846001830284011164010000000083111715610ac557600080fd5b9091929391929390505050611c50565b005b610adf611d53565b6040518080602001828103825283818151815260200191508051906020019080838360005b83811015610b1f578082015181840152602081019050610b04565b50505050905090810190601f168015610b4c5780820380516001836020036101000a031916815260200191505b509250505060405180910390f35b610ba860048036036040811015610b7057600080fd5b81019080803573ffffffffffffffffffffffffffffffffffffffff169060200190929190803515159060200190929190505050611df5565b005b610cad60048036036080811015610bc057600080fd5b81019080803573ffffffffffffffffffffffffffffffffffffffff169060200190929190803573ffffffffffffffffffffffffffffffffffffffff1690602001909291908035906020019092919080359060200190640100000000811115610c2757600080fd5b820183602082011115610c3957600080fd5b80359060200191846001830284011164010000000083111715610c5b57600080fd5b91908080601f016020809104026020016040519081016040528093929190818152602001838380828437600081840152601f19601f820116905080830192505050505050509192919290505050611f98565b005b610cdb60048036036020811015610cc557600080fd5b810190808035906020019092919050505061200a565b604051808215151515815260200191505060405180910390f35b610d3760048036036020811015610d0b57600080fd5b81019080803573ffffffffffffffffffffffffffffffffffffffff169060200190929190505050612039565b604051808215151515815260200191505060405180910390f35b610d7d60048036036020811015610d6757600080fd5b8101908080359060200190929190505050612056565b6040518080602001828103825283818151815260200191508051906020019080838360005b83811015610dbd578082015181840152602081019050610da2565b50505050905090810190601f168015610dea5780820380516001836020036101000a031916815260200191505b509250505060405180910390f35b610f1960048036036060811015610e0e57600080fd5b8101908080359060200190640100000000811115610e2b57600080fd5b820183602082011115610e3d57600080fd5b80359060200191846001830284011164010000000083111715610e5f57600080fd5b909192939192939080359060200190640100000000811115610e8057600080fd5b820183602082011115610e9257600080fd5b80359060200191846001830284011164010000000083111715610eb457600080fd5b909192939192939080359060200190640100000000811115610ed557600080fd5b820183602082011115610ee757600080fd5b80359060200191846001830284011164010000000083111715610f0957600080fd5b9091929391929390505050612169565b005b610f23612375565b005b610f8760048036036040811015610f3b57600080fd5b81019080803573ffffffffffffffffffffffffffffffffffffffff169060200190929190803573ffffffffffffffffffffffffffffffffffffffff169060200190929190505050612380565b604051808215151515815260200191505060405180910390f35b6000806000837bffffffffffffffffffffffffffffffffffffffffffffffffffffffff19167bffffffffffffffffffffffffffffffffffffffffffffffffffffffff1916815260200190815260200160002060009054906101000a900460ff169050919050565b826064811115611080576040517f08c379a000000000000000000000000000000000000000000000000000000000815260040180806020018281038252600e8152602001807f726174696f206f766572666c6f7700000000000000000000000000000000000081525060200191505060405180910390fd5b8583600081116110f8576040517f08c379a000000000000000000000000000000000000000000000000000000000815260040180806020018281038252601b8152602001807f6c696d697420737570706c79206d757374206265206f7665722030000000000081525060200191505060405180910390fd5b6000600f60008481526020019081526020016000209050818160030154111561116c576040517f08c379a00000000000000000000000000000000000000000000000000000000081526004018080602001828103825260258152602001806139b26025913960400191505060405180910390fd5b3373ffffffffffffffffffffffffffffffffffffffff1661118c8a611a49565b73ffffffffffffffffffffffffffffffffffffffff1614611215576040517f08c379a000000000000000000000000000000000000000000000000000000000815260040180806020018281038252600d8152602001807f6d757374206265206f776e65720000000000000000000000000000000000000081525060200191505060405180910390fd5b61121e89612414565b61122757600080fd5b6000600f60008b81526020019081526020016000209050888160000181905550858160040160006101000a81548160ff02191690831515021790555087816001018190555086816002018190555060018160050160003373ffffffffffffffffffffffffffffffffffffffff1673ffffffffffffffffffffffffffffffffffffffff16815260200190815260200160002060006101000a81548160ff02191690831515021790555050505050505050505050565b60006112e561166a565b905090565b606060098054600181600116156101000203166002900480601f0160208091040260200160405190810160405280929190818152602001828054600181600116156101000203166002900480156113825780601f1061135757610100808354040283529160200191611382565b820191906000526020600020905b81548152906001019060200180831161136557829003601f168201915b5050505050905090565b600061139782612414565b6113ec576040517f08c379a000000000000000000000000000000000000000000000000000000000815260040180806020018281038252602c815260200180613ad3602c913960400191505060405180910390fd5b6002600083815260200190815260200160002060009054906101000a900473ffffffffffffffffffffffffffffffffffffffff169050919050565b600061143282611a49565b90508073ffffffffffffffffffffffffffffffffffffffff168373ffffffffffffffffffffffffffffffffffffffff1614156114b9576040517f08c379a0000000000000000000000000000000000000000000000000000000008152600401808060200182810382526021815260200180613bf36021913960400191505060405180910390fd5b8073ffffffffffffffffffffffffffffffffffffffff163373ffffffffffffffffffffffffffffffffffffffff1614806114f957506114f88133612380565b5b61154e576040517f08c379a0000000000000000000000000000000000000000000000000000000008152600401808060200182810382526038815260200180613a276038913960400191505060405180910390fd5b826002600084815260200190815260200160002060006101000a81548173ffffffffffffffffffffffffffffffffffffffff021916908373ffffffffffffffffffffffffffffffffffffffff160217905550818373ffffffffffffffffffffffffffffffffffffffff168273ffffffffffffffffffffffffffffffffffffffff167f8c5be1e5ebec7d5bd14f71427d1e84f3dd0314c0f7b2291e5b200ac8c7c3b92560405160405180910390a4505050565b61160933612039565b61165e576040517f08c379a0000000000000000000000000000000000000000000000000000000008152600401808060200182810382526040815260200180613b4a6040913960400191505060405180910390fd5b61166781612486565b50565b6000600780549050905090565b61168133826124f0565b6116d6576040517f08c379a0000000000000000000000000000000000000000000000000000000008152600401808060200182810382526031815260200180613c146031913960400191505060405180910390fd5b6116e18383836125e4565b505050565b6116ef33612039565b611744576040517f08c379a0000000000000000000000000000000000000000000000000000000008152600401808060200182810382526040815260200180613b4a6040913960400191505060405180910390fd5b61174d81612608565b50565b600061175b83611b11565b82106117b2576040517f08c379a000000000000000000000000000000000000000000000000000000000815260040180806020018281038252602b815260200180613955602b913960400191505060405180910390fd5b600560008473ffffffffffffffffffffffffffffffffffffffff1673ffffffffffffffffffffffffffffffffffffffff16815260200190815260200160002082815481106117fc57fe5b9060005260206000200154905092915050565b600080600080600061182086612414565b61182957600080fd5b6000600f6000888152602001908152602001600020905080600001548160010154826002015483600301548460040160009054906101000a900460ff16955095509550955095505091939590929450565b600061188582612662565b9050919050565b600060608060606000856000600f600083815260200190815260200160002090508060050160003373ffffffffffffffffffffffffffffffffffffffff1673ffffffffffffffffffffffffffffffffffffffff16815260200190815260200160002060009054906101000a900460ff1661196e576040517f08c379a000000000000000000000000000000000000000000000000000000000815260040180806020018281038252601d8152602001807f6e6f74207369676e65642c20706c6561736520757064617465496e666f00000081525060200191505060405180910390fd5b61197788612414565b61198057600080fd5b6119898861267f565b96509650965096509650505091939590929450565b6119b983838360405180602001604052806000815250611f98565b505050565b6119c733612988565b565b60006119d361166a565b8210611a2a576040517f08c379a000000000000000000000000000000000000000000000000000000000815260040180806020018281038252602c815260200180613c45602c913960400191505060405180910390fd5b60078281548110611a3757fe5b90600052602060002001549050919050565b6000806001600084815260200190815260200160002060009054906101000a900473ffffffffffffffffffffffffffffffffffffffff169050600073ffffffffffffffffffffffffffffffffffffffff168173ffffffffffffffffffffffffffffffffffffffff161415611b08576040517f08c379a0000000000000000000000000000000000000000000000000000000008152600401808060200182810382526029815260200180613a896029913960400191505060405180910390fd5b80915050919050565b60008073ffffffffffffffffffffffffffffffffffffffff168273ffffffffffffffffffffffffffffffffffffffff161415611b98576040517f08c379a000000000000000000000000000000000000000000000000000000000815260040180806020018281038252602a815260200180613a5f602a913960400191505060405180910390fd5b611bdf600360008473ffffffffffffffffffffffffffffffffffffffff1673ffffffffffffffffffffffffffffffffffffffff1681526020019081526020016000206129e2565b9050919050565b611bef33612039565b611c44576040517f08c379a0000000000000000000000000000000000000000000000000000000008152600401808060200182810382526040815260200180613b4a6040913960400191505060405180910390fd5b611c4d816129f0565b50565b611c593361187a565b611cae576040517f08c379a000000000000000000000000000000000000000000000000000000000815260040180806020018281038252603a815260200180613bb9603a913960400191505060405180910390fd5b3373ffffffffffffffffffffffffffffffffffffffff16611cce88611a49565b73ffffffffffffffffffffffffffffffffffffffff1614611cee57600080fd5b6000600e8881548110611cfd57fe5b906000526020600020906004020190508686826000019190611d209291906137db565b508484826001019190611d349291906137db565b508282826002019190611d489291906137db565b505050505050505050565b6060600a8054600181600116156101000203166002900480601f016020809104026020016040519081016040528092919081815260200182805460018160011615610100020316600290048015611deb5780601f10611dc057610100808354040283529160200191611deb565b820191906000526020600020905b815481529060010190602001808311611dce57829003601f168201915b5050505050905090565b3373ffffffffffffffffffffffffffffffffffffffff168273ffffffffffffffffffffffffffffffffffffffff161415611e97576040517f08c379a00000000000000000000000000000000000000000000000000000000081526004018080602001828103825260198152602001807f4552433732313a20617070726f766520746f2063616c6c65720000000000000081525060200191505060405180910390fd5b80600460003373ffffffffffffffffffffffffffffffffffffffff1673ffffffffffffffffffffffffffffffffffffffff16815260200190815260200160002060008473ffffffffffffffffffffffffffffffffffffffff1673ffffffffffffffffffffffffffffffffffffffff16815260200190815260200160002060006101000a81548160ff0219169083151502179055508173ffffffffffffffffffffffffffffffffffffffff163373ffffffffffffffffffffffffffffffffffffffff167f17307eab39ab6107e8899845ad3d59bd9653f200f220920489ca2b5937696c3183604051808215151515815260200191505060405180910390a35050565b611fa3848484611677565b611faf84848484612a4a565b612004576040517f08c379a00000000000000000000000000000000000000000000000000000000081526004018080602001828103825260328152602001806139806032913960400191505060405180910390fd5b50505050565b600080600f60008481526020019081526020016000209050600181600301540181600201541015915050919050565b600061204f82600c612c3390919063ffffffff16565b9050919050565b606061206182612414565b6120b6576040517f08c379a000000000000000000000000000000000000000000000000000000000815260040180806020018281038252602f815260200180613b8a602f913960400191505060405180910390fd5b600b60008381526020019081526020016000208054600181600116156101000203166002900480601f01602080910402602001604051908101604052809291908181526020018280546001816001161561010002031660029004801561215d5780601f106121325761010080835404028352916020019161215d565b820191906000526020600020905b81548152906001019060200180831161214057829003601f168201915b50505050509050919050565b6121723361187a565b6121c7576040517f08c379a000000000000000000000000000000000000000000000000000000000815260040180806020018281038252603a815260200180613bb9603a913960400191505060405180910390fd5b6121cf61385b565b86868080601f016020809104026020016040519081016040528093929190818152602001838380828437600081840152601f19601f82011690508083019250505050505050816000018190525084848080601f016020809104026020016040519081016040528093929190818152602001838380828437600081840152601f19601f82011690508083019250505050505050816020018190525082828080601f016020809104026020016040519081016040528093929190818152602001838380828437600081840152601f19601f82011690508083019250505050505050816040018190525060006001600e83908060018154018082558091505090600182039060005260206000209060040201600090919290919091506000820151816000019080519060200190612304929190613883565b506020820151816001019080519060200190612321929190613883565b50604082015181600201908051906020019061233e929190613883565b50606082015181600301908051906020019061235b929190613883565b50505003905061236b3382612d11565b5050505050505050565b61237e33612608565b565b6000600460008473ffffffffffffffffffffffffffffffffffffffff1673ffffffffffffffffffffffffffffffffffffffff16815260200190815260200160002060008373ffffffffffffffffffffffffffffffffffffffff1673ffffffffffffffffffffffffffffffffffffffff16815260200190815260200160002060009054906101000a900460ff16905092915050565b6000806001600084815260200190815260200160002060009054906101000a900473ffffffffffffffffffffffffffffffffffffffff169050600073ffffffffffffffffffffffffffffffffffffffff168173ffffffffffffffffffffffffffffffffffffffff161415915050919050565b61248f33612039565b6124e4576040517f08c379a0000000000000000000000000000000000000000000000000000000008152600401808060200182810382526040815260200180613b4a6040913960400191505060405180910390fd5b6124ed81612d32565b50565b60006124fb82612414565b612550576040517f08c379a000000000000000000000000000000000000000000000000000000000815260040180806020018281038252602c8152602001806139fb602c913960400191505060405180910390fd5b600061255b83611a49565b90508073ffffffffffffffffffffffffffffffffffffffff168473ffffffffffffffffffffffffffffffffffffffff1614806125ca57508373ffffffffffffffffffffffffffffffffffffffff166125b28461138c565b73ffffffffffffffffffffffffffffffffffffffff16145b806125db57506125da8185612380565b5b91505092915050565b6125ef838383612d8c565b6125f98382612fe7565b6126038282613185565b505050565b61261c81600d61324c90919063ffffffff16565b8073ffffffffffffffffffffffffffffffffffffffff167f270d9b30cf5b0793bbfd54c9d5b94aeb49462b8148399000265144a8722da6b660405160405180910390a250565b600061267882600d612c3390919063ffffffff16565b9050919050565b60006060806060600061269186612414565b61269a57600080fd5b6126a261385b565b600e87815481106126af57fe5b9060005260206000209060040201604051806080016040529081600082018054600181600116156101000203166002900480601f0160208091040260200160405190810160405280929190818152602001828054600181600116156101000203166002900480156127615780601f1061273657610100808354040283529160200191612761565b820191906000526020600020905b81548152906001019060200180831161274457829003601f168201915b50505050508152602001600182018054600181600116156101000203166002900480601f0160208091040260200160405190810160405280929190818152602001828054600181600116156101000203166002900480156128035780601f106127d857610100808354040283529160200191612803565b820191906000526020600020905b8154815290600101906020018083116127e657829003601f168201915b50505050508152602001600282018054600181600116156101000203166002900480601f0160208091040260200160405190810160405280929190818152602001828054600181600116156101000203166002900480156128a55780601f1061287a576101008083540402835291602001916128a5565b820191906000526020600020905b81548152906001019060200180831161288857829003601f168201915b50505050508152602001600382018054600181600116156101000203166002900480601f0160208091040260200160405190810160405280929190818152602001828054600181600116156101000203166002900480156129475780601f1061291c57610100808354040283529160200191612947565b820191906000526020600020905b81548152906001019060200180831161292a57829003601f168201915b50505050508152505090508681600001518260200151836040015161296b8b611a49565b839350829250819150955095509550955095505091939590929450565b61299c81600c61324c90919063ffffffff16565b8073ffffffffffffffffffffffffffffffffffffffff167f0a8eb35e5ca14b3d6f28e4abf2f128dbab231a58b56e89beb5d636115001e16560405160405180910390a250565b600081600001549050919050565b612a0481600c61330990919063ffffffff16565b8073ffffffffffffffffffffffffffffffffffffffff167f22380c05984257a1cb900161c713dd71d39e74820f1aea43bd3f1bdd2096129960405160405180910390a250565b6000612a6b8473ffffffffffffffffffffffffffffffffffffffff166133e4565b612a785760019050612c2b565b60008473ffffffffffffffffffffffffffffffffffffffff1663150b7a02338887876040518563ffffffff1660e01b8152600401808573ffffffffffffffffffffffffffffffffffffffff1673ffffffffffffffffffffffffffffffffffffffff1681526020018473ffffffffffffffffffffffffffffffffffffffff1673ffffffffffffffffffffffffffffffffffffffff16815260200183815260200180602001828103825283818151815260200191508051906020019080838360005b83811015612b53578082015181840152602081019050612b38565b50505050905090810190601f168015612b805780820380516001836020036101000a031916815260200191505b5095505050505050602060405180830381600087803b158015612ba257600080fd5b505af1158015612bb6573d6000803e3d6000fd5b505050506040513d6020811015612bcc57600080fd5b8101908080519060200190929190505050905063150b7a0260e01b7bffffffffffffffffffffffffffffffffffffffffffffffffffffffff1916817bffffffffffffffffffffffffffffffffffffffffffffffffffffffff1916149150505b949350505050565b60008073ffffffffffffffffffffffffffffffffffffffff168273ffffffffffffffffffffffffffffffffffffffff161415612cba576040517f08c379a0000000000000000000000000000000000000000000000000000000008152600401808060200182810382526022815260200180613aff6022913960400191505060405180910390fd5b8260000160008373ffffffffffffffffffffffffffffffffffffffff1673ffffffffffffffffffffffffffffffffffffffff16815260200190815260200160002060009054906101000a900460ff16905092915050565b612d1b82826133f7565b612d258282613185565b612d2e8161360f565b5050565b612d4681600d61330990919063ffffffff16565b8073ffffffffffffffffffffffffffffffffffffffff167fee1504a83b6d4a361f4c1dc78ab59bfa30d6a3b6612c403e86bb01ef2984295f60405160405180910390a250565b8273ffffffffffffffffffffffffffffffffffffffff16612dac82611a49565b73ffffffffffffffffffffffffffffffffffffffff1614612e18576040517f08c379a0000000000000000000000000000000000000000000000000000000008152600401808060200182810382526029815260200180613b216029913960400191505060405180910390fd5b600073ffffffffffffffffffffffffffffffffffffffff168273ffffffffffffffffffffffffffffffffffffffff161415612e9e576040517f08c379a00000000000000000000000000000000000000000000000000000000081526004018080602001828103825260248152602001806139d76024913960400191505060405180910390fd5b612ea78161365b565b612eee600360008573ffffffffffffffffffffffffffffffffffffffff1673ffffffffffffffffffffffffffffffffffffffff168152602001908152602001600020613719565b612f35600360008473ffffffffffffffffffffffffffffffffffffffff1673ffffffffffffffffffffffffffffffffffffffff16815260200190815260200160002061373c565b816001600083815260200190815260200160002060006101000a81548173ffffffffffffffffffffffffffffffffffffffff021916908373ffffffffffffffffffffffffffffffffffffffff160217905550808273ffffffffffffffffffffffffffffffffffffffff168473ffffffffffffffffffffffffffffffffffffffff167fddf252ad1be2c89b69c2b068fc378daa952ba7f163c4a11628f55a4df523b3ef60405160405180910390a4505050565b600061303f6001600560008673ffffffffffffffffffffffffffffffffffffffff1673ffffffffffffffffffffffffffffffffffffffff1681526020019081526020016000208054905061375290919063ffffffff16565b905060006006600084815260200190815260200160002054905081811461312c576000600560008673ffffffffffffffffffffffffffffffffffffffff1673ffffffffffffffffffffffffffffffffffffffff16815260200190815260200160002083815481106130ac57fe5b9060005260206000200154905080600560008773ffffffffffffffffffffffffffffffffffffffff1673ffffffffffffffffffffffffffffffffffffffff168152602001908152602001600020838154811061310457fe5b9060005260206000200181905550816006600083815260200190815260200160002081905550505b600560008573ffffffffffffffffffffffffffffffffffffffff1673ffffffffffffffffffffffffffffffffffffffff16815260200190815260200160002080548091906001900361317e9190613903565b5050505050565b600560008373ffffffffffffffffffffffffffffffffffffffff1673ffffffffffffffffffffffffffffffffffffffff168152602001908152602001600020805490506006600083815260200190815260200160002081905550600560008373ffffffffffffffffffffffffffffffffffffffff1673ffffffffffffffffffffffffffffffffffffffff1681526020019081526020016000208190806001815401808255809150509060018203906000526020600020016000909192909190915055505050565b6132568282612c33565b6132ab576040517f08c379a0000000000000000000000000000000000000000000000000000000008152600401808060200182810382526021815260200180613ab26021913960400191505060405180910390fd5b60008260000160008373ffffffffffffffffffffffffffffffffffffffff1673ffffffffffffffffffffffffffffffffffffffff16815260200190815260200160002060006101000a81548160ff0219169083151502179055505050565b6133138282612c33565b15613386576040517f08c379a000000000000000000000000000000000000000000000000000000000815260040180806020018281038252601f8152602001807f526f6c65733a206163636f756e7420616c72656164792068617320726f6c650081525060200191505060405180910390fd5b60018260000160008373ffffffffffffffffffffffffffffffffffffffff1673ffffffffffffffffffffffffffffffffffffffff16815260200190815260200160002060006101000a81548160ff0219169083151502179055505050565b600080823b905060008111915050919050565b600073ffffffffffffffffffffffffffffffffffffffff168273ffffffffffffffffffffffffffffffffffffffff16141561349a576040517f08c379a00000000000000000000000000000000000000000000000000000000081526004018080602001828103825260208152602001807f4552433732313a206d696e7420746f20746865207a65726f206164647265737381525060200191505060405180910390fd5b6134a381612414565b15613516576040517f08c379a000000000000000000000000000000000000000000000000000000000815260040180806020018281038252601c8152602001807f4552433732313a20746f6b656e20616c7265616479206d696e7465640000000081525060200191505060405180910390fd5b816001600083815260200190815260200160002060006101000a81548173ffffffffffffffffffffffffffffffffffffffff021916908373ffffffffffffffffffffffffffffffffffffffff1602179055506135af600360008473ffffffffffffffffffffffffffffffffffffffff1673ffffffffffffffffffffffffffffffffffffffff16815260200190815260200160002061373c565b808273ffffffffffffffffffffffffffffffffffffffff16600073ffffffffffffffffffffffffffffffffffffffff167fddf252ad1be2c89b69c2b068fc378daa952ba7f163c4a11628f55a4df523b3ef60405160405180910390a45050565b6007805490506008600083815260200190815260200160002081905550600781908060018154018082558091505090600182039060005260206000200160009091929091909150555050565b600073ffffffffffffffffffffffffffffffffffffffff166002600083815260200190815260200160002060009054906101000a900473ffffffffffffffffffffffffffffffffffffffff1673ffffffffffffffffffffffffffffffffffffffff16146137165760006002600083815260200190815260200160002060006101000a81548173ffffffffffffffffffffffffffffffffffffffff021916908373ffffffffffffffffffffffffffffffffffffffff1602179055505b50565b6137316001826000015461375290919063ffffffff16565b816000018190555050565b6001816000016000828254019250508190555050565b6000828211156137ca576040517f08c379a000000000000000000000000000000000000000000000000000000000815260040180806020018281038252601e8152602001807f536166654d6174683a207375627472616374696f6e206f766572666c6f77000081525060200191505060405180910390fd5b600082840390508091505092915050565b828054600181600116156101000203166002900490600052602060002090601f016020900481019282601f1061381c57803560ff191683800117855561384a565b8280016001018555821561384a579182015b8281111561384957823582559160200191906001019061382e565b5b509050613857919061392f565b5090565b6040518060800160405280606081526020016060815260200160608152602001606081525090565b828054600181600116156101000203166002900490600052602060002090601f016020900481019282601f106138c457805160ff19168380011785556138f2565b828001600101855582156138f2579182015b828111156138f15782518255916020019190600101906138d6565b5b5090506138ff919061392f565b5090565b81548183558181111561392a57818360005260206000209182019101613929919061392f565b5b505050565b61395191905b8082111561394d576000816000905550600101613935565b5090565b9056fe455243373231456e756d657261626c653a206f776e657220696e646578206f7574206f6620626f756e64734552433732313a207472616e7366657220746f206e6f6e20455243373231526563656976657220696d706c656d656e7465726c696d697420737570706c79206d757374206265206f76657220746f74616c537570706c794552433732313a207472616e7366657220746f20746865207a65726f20616464726573734552433732313a206f70657261746f7220717565727920666f72206e6f6e6578697374656e7420746f6b656e4552433732313a20617070726f76652063616c6c6572206973206e6f74206f776e6572206e6f7220617070726f76656420666f7220616c6c4552433732313a2062616c616e636520717565727920666f7220746865207a65726f20616464726573734552433732313a206f776e657220717565727920666f72206e6f6e6578697374656e7420746f6b656e526f6c65733a206163636f756e7420646f6573206e6f74206861766520726f6c654552433732313a20617070726f76656420717565727920666f72206e6f6e6578697374656e7420746f6b656e526f6c65733a206163636f756e7420697320746865207a65726f20616464726573734552433732313a207472616e73666572206f6620746f6b656e2074686174206973206e6f74206f776e57686974656c69737441646d696e526f6c653a2063616c6c657220646f6573206e6f742068617665207468652057686974656c69737441646d696e20726f6c654552433732314d657461646174613a2055524920717565727920666f72206e6f6e6578697374656e7420746f6b656e57686974656c6973746564526f6c653a2063616c6c657220646f6573206e6f742068617665207468652057686974656c697374656420726f6c654552433732313a20617070726f76616c20746f2063757272656e74206f776e65724552433732313a207472616e736665722063616c6c6572206973206e6f74206f776e6572206e6f7220617070726f766564455243373231456e756d657261626c653a20676c6f62616c20696e646578206f7574206f6620626f756e6473a165627a7a72305820b6e78a2a7f6548684098fa33596bcd3269f3d0f9ca19df061b79f2fc55d30bd10029526f6c65733a206163636f756e7420697320746865207a65726f2061646472657373",
  "source": "pragma solidity ^0.5.0;\n\nimport \"./Article.sol\";\n\ncontract Trade is Article {\n  struct TradeStruct {\n    uint256 price; // \n    uint256 ratio; //  0 <= ratio <= 100\n    uint256 limitSupply; // \n    uint256 totalSupply; // \n    bool publish; // (true:/false:)\n    mapping(address  => bool) customerMap;\n  }\n  mapping(uint256 => TradeStruct) tradeMap;\n\n  modifier ratioRange(uint256 ratio) {\n    require(ratio <= 100, \"ratio overflow\");\n    _;\n  }\n\n  modifier ratioSupply(uint256 cid, uint256 limitSupply) {\n    require(limitSupply > 0, \"limit supply must be over 0\");\n    TradeStruct storage trade = tradeMap[cid];\n    require(trade.totalSupply <= limitSupply, \"limit supply must be over totalSupply\");\n    _;\n  }\n\n  function updateTradeInfo(\n    uint256 cid, \n    uint256 price,\n    uint256 ratio,\n    uint256 limitSupply,\n    bool publish\n  ) \n    external\n    ratioRange(ratio)\n    ratioSupply(cid, limitSupply)\n  {\n    require(ownerOf(cid) == msg.sender,\"must be owner\");\n    require(_exists(cid));\n    TradeStruct storage trade = tradeMap[cid];\n    trade.price = price;\n    trade.publish = publish;\n    trade.ratio = ratio;\n    trade.limitSupply = limitSupply;\n    trade.customerMap[msg.sender] = true;\n  }\n\n  function getTradeInfo(\n    uint256 cid\n  ) \n    external \n    view \n    returns(\n      uint256 price,\n      uint256 ratio,\n      uint256 limitSupply,\n      uint256 totalSupply,\n      bool publish\n    )\n  {\n    require(_exists(cid));\n    TradeStruct storage trade = tradeMap[cid];\n    return (\n      trade.price,\n      trade.ratio,\n      trade.limitSupply,\n      trade.totalSupply,\n      trade.publish\n    );\n  }\n\n  modifier onlySigner(\n    uint256 cid\n  ) {\n    TradeStruct storage trade = tradeMap[cid];\n    require(trade.customerMap[msg.sender], \"not signed, please updateInfo\");\n    _;\n  }\n\n  function getTradeContent(\n    uint256 cid\n  ) \n    external \n    view \n    onlySigner(cid)\n    returns(\n      uint256, \n      string memory, \n      string memory, \n      string memory, \n      address \n    ) \n  {\n    require(_exists(cid));\n    return super._getContent(cid);\n  }\n\n  modifier notTradePurchased(uint256 cid) {\n    TradeStruct storage trade = tradeMap[cid];\n    require(trade.customerMap[msg.sender] == false, \"trade exist\");\n    _;\n  }\n\n  modifier notLimitSupply(uint256 cid) {\n    TradeStruct storage trade = tradeMap[cid];\n    require(trade.limitSupply >= trade.totalSupply + 1, \"supply overflow\");\n    _;\n  }\n\n  function _purchaseTrade(\n    uint256 cid\n  )\n    internal\n    notLimitSupply(cid)\n    notTradePurchased(cid)\n  {\n    require(_exists(cid));\n    TradeStruct storage trade = tradeMap[cid];\n    trade.customerMap[msg.sender] = true;\n    trade.totalSupply = trade.totalSupply+1;\n  }\n\n  function calcLimit(uint256 cid) public view returns(bool) {\n    TradeStruct storage trade = tradeMap[cid];\n    return trade.limitSupply >= trade.totalSupply + 1;\n  }\n\n}\n",
  "sourcePath": "/Users/tech/dev/prd/programming-lectures/lesson011/contracts/Product/Trade.sol",
  "compiler": {
    "name": "solc",
    "version": "0.5.8+commit.23d335f2.Emscripten.clang"
  },
  "schemaVersion": "3.0.10",
  "updatedAt": "2019-06-10T03:16:51.768Z",
  "devdoc": {
    "methods": {
      "approve(address,uint256)": {
        "details": "Approves another address to transfer the given token ID The zero address indicates there is no approved address. There can only be one approved address per token at a given time. Can only be called by the token owner or an approved operator.",
        "params": {
          "to": "address to be approved for the given token ID",
          "tokenId": "uint256 ID of the token to be approved"
        }
      },
      "balanceOf(address)": {
        "details": "Gets the balance of the specified address.",
        "params": {
          "owner": "address to query the balance of"
        },
        "return": "uint256 representing the amount owned by the passed address"
      },
      "getApproved(uint256)": {
        "details": "Gets the approved address for a token ID, or zero if no address set Reverts if the token ID does not exist.",
        "params": {
          "tokenId": "uint256 ID of the token to query the approval of"
        },
        "return": "address currently approved for the given token ID"
      },
      "isApprovedForAll(address,address)": {
        "details": "Tells whether an operator is approved by a given owner.",
        "params": {
          "operator": "operator address which you want to query the approval of",
          "owner": "owner address which you want to query the approval of"
        },
        "return": "bool whether the given operator is approved by the given owner"
      },
      "name()": {
        "details": "Gets the token name.",
        "return": "string representing the token name"
      },
      "ownerOf(uint256)": {
        "details": "Gets the owner of the specified token ID.",
        "params": {
          "tokenId": "uint256 ID of the token to query the owner of"
        },
        "return": "address currently marked as the owner of the given token ID"
      },
      "safeTransferFrom(address,address,uint256)": {
        "details": "Safely transfers the ownership of a given token ID to another address If the target address is a contract, it must implement `onERC721Received`, which is called upon a safe transfer, and return the magic value `bytes4(keccak256(\"onERC721Received(address,address,uint256,bytes)\"))`; otherwise, the transfer is reverted. Requires the msg.sender to be the owner, approved, or operator",
        "params": {
          "from": "current owner of the token",
          "to": "address to receive the ownership of the given token ID",
          "tokenId": "uint256 ID of the token to be transferred"
        }
      },
      "safeTransferFrom(address,address,uint256,bytes)": {
        "details": "Safely transfers the ownership of a given token ID to another address If the target address is a contract, it must implement `onERC721Received`, which is called upon a safe transfer, and return the magic value `bytes4(keccak256(\"onERC721Received(address,address,uint256,bytes)\"))`; otherwise, the transfer is reverted. Requires the msg.sender to be the owner, approved, or operator",
        "params": {
          "_data": "bytes data to send along with a safe transfer check",
          "from": "current owner of the token",
          "to": "address to receive the ownership of the given token ID",
          "tokenId": "uint256 ID of the token to be transferred"
        }
      },
      "setApprovalForAll(address,bool)": {
        "details": "Sets or unsets the approval of a given operator An operator is allowed to transfer all tokens of the sender on their behalf.",
        "params": {
          "approved": "representing the status of the approval to be set",
          "to": "operator address to set the approval"
        }
      },
      "supportsInterface(bytes4)": {
        "details": "See `IERC165.supportsInterface`.     * Time complexity O(1), guaranteed to always use less than 30 000 gas."
      },
      "symbol()": {
        "details": "Gets the token symbol.",
        "return": "string representing the token symbol"
      },
      "tokenByIndex(uint256)": {
        "details": "Gets the token ID at a given index of all the tokens in this contract Reverts if the index is greater or equal to the total number of tokens.",
        "params": {
          "index": "uint256 representing the index to be accessed of the tokens list"
        },
        "return": "uint256 token ID at the given index of the tokens list"
      },
      "tokenOfOwnerByIndex(address,uint256)": {
        "details": "Gets the token ID at a given index of the tokens list of the requested owner.",
        "params": {
          "index": "uint256 representing the index to be accessed of the requested tokens list",
          "owner": "address owning the tokens list to be accessed"
        },
        "return": "uint256 token ID at the given index of the tokens list owned by the requested address"
      },
      "tokenURI(uint256)": {
        "details": "Returns an URI for a given token ID. Throws if the token ID does not exist. May return an empty string.",
        "params": {
          "tokenId": "uint256 ID of the token to query"
        }
      },
      "totalSupply()": {
        "details": "Gets the total amount of tokens stored by the contract.",
        "return": "uint256 representing the total amount of tokens"
      },
      "transferFrom(address,address,uint256)": {
        "details": "Transfers the ownership of a given token ID to another address. Usage of this method is discouraged, use `safeTransferFrom` whenever possible. Requires the msg.sender to be the owner, approved, or operator.",
        "params": {
          "from": "current owner of the token",
          "to": "address to receive the ownership of the given token ID",
          "tokenId": "uint256 ID of the token to be transferred"
        }
      }
    }
  },
  "userdoc": {
    "methods": {}
  }
}