{
  "contractName": "TradePurchaser",
  "abi": [
    {
      "constant": true,
      "inputs": [
        {
          "name": "interfaceId",
          "type": "bytes4"
        }
      ],
      "name": "supportsInterface",
      "outputs": [
        {
          "name": "",
          "type": "bool"
        }
      ],
      "payable": false,
      "stateMutability": "view",
      "type": "function"
    },
    {
      "constant": false,
      "inputs": [
        {
          "name": "cid",
          "type": "uint256"
        },
        {
          "name": "price",
          "type": "uint256"
        },
        {
          "name": "ratio",
          "type": "uint256"
        },
        {
          "name": "limitSupply",
          "type": "uint256"
        },
        {
          "name": "publish",
          "type": "bool"
        }
      ],
      "name": "updateTradeInfo",
      "outputs": [],
      "payable": false,
      "stateMutability": "nonpayable",
      "type": "function"
    },
    {
      "constant": true,
      "inputs": [],
      "name": "count",
      "outputs": [
        {
          "name": "",
          "type": "uint256"
        }
      ],
      "payable": false,
      "stateMutability": "view",
      "type": "function"
    },
    {
      "constant": true,
      "inputs": [],
      "name": "name",
      "outputs": [
        {
          "name": "",
          "type": "string"
        }
      ],
      "payable": false,
      "stateMutability": "view",
      "type": "function"
    },
    {
      "constant": true,
      "inputs": [
        {
          "name": "tokenId",
          "type": "uint256"
        }
      ],
      "name": "getApproved",
      "outputs": [
        {
          "name": "",
          "type": "address"
        }
      ],
      "payable": false,
      "stateMutability": "view",
      "type": "function"
    },
    {
      "constant": false,
      "inputs": [
        {
          "name": "to",
          "type": "address"
        },
        {
          "name": "tokenId",
          "type": "uint256"
        }
      ],
      "name": "approve",
      "outputs": [],
      "payable": false,
      "stateMutability": "nonpayable",
      "type": "function"
    },
    {
      "constant": false,
      "inputs": [
        {
          "name": "account",
          "type": "address"
        }
      ],
      "name": "addWhitelisted",
      "outputs": [],
      "payable": false,
      "stateMutability": "nonpayable",
      "type": "function"
    },
    {
      "constant": true,
      "inputs": [],
      "name": "totalSupply",
      "outputs": [
        {
          "name": "",
          "type": "uint256"
        }
      ],
      "payable": false,
      "stateMutability": "view",
      "type": "function"
    },
    {
      "constant": false,
      "inputs": [
        {
          "name": "from",
          "type": "address"
        },
        {
          "name": "to",
          "type": "address"
        },
        {
          "name": "tokenId",
          "type": "uint256"
        }
      ],
      "name": "transferFrom",
      "outputs": [],
      "payable": false,
      "stateMutability": "nonpayable",
      "type": "function"
    },
    {
      "constant": false,
      "inputs": [
        {
          "name": "account",
          "type": "address"
        }
      ],
      "name": "removeWhitelisted",
      "outputs": [],
      "payable": false,
      "stateMutability": "nonpayable",
      "type": "function"
    },
    {
      "constant": true,
      "inputs": [
        {
          "name": "owner",
          "type": "address"
        },
        {
          "name": "index",
          "type": "uint256"
        }
      ],
      "name": "tokenOfOwnerByIndex",
      "outputs": [
        {
          "name": "",
          "type": "uint256"
        }
      ],
      "payable": false,
      "stateMutability": "view",
      "type": "function"
    },
    {
      "constant": true,
      "inputs": [
        {
          "name": "cid",
          "type": "uint256"
        }
      ],
      "name": "getTradeInfo",
      "outputs": [
        {
          "name": "price",
          "type": "uint256"
        },
        {
          "name": "ratio",
          "type": "uint256"
        },
        {
          "name": "limitSupply",
          "type": "uint256"
        },
        {
          "name": "totalSupply",
          "type": "uint256"
        },
        {
          "name": "publish",
          "type": "bool"
        }
      ],
      "payable": false,
      "stateMutability": "view",
      "type": "function"
    },
    {
      "constant": true,
      "inputs": [
        {
          "name": "account",
          "type": "address"
        }
      ],
      "name": "isWhitelisted",
      "outputs": [
        {
          "name": "",
          "type": "bool"
        }
      ],
      "payable": false,
      "stateMutability": "view",
      "type": "function"
    },
    {
      "constant": true,
      "inputs": [
        {
          "name": "cid",
          "type": "uint256"
        }
      ],
      "name": "getTradeContent",
      "outputs": [
        {
          "name": "",
          "type": "uint256"
        },
        {
          "name": "",
          "type": "string"
        },
        {
          "name": "",
          "type": "string"
        },
        {
          "name": "",
          "type": "string"
        },
        {
          "name": "",
          "type": "address"
        }
      ],
      "payable": false,
      "stateMutability": "view",
      "type": "function"
    },
    {
      "constant": false,
      "inputs": [
        {
          "name": "from",
          "type": "address"
        },
        {
          "name": "to",
          "type": "address"
        },
        {
          "name": "tokenId",
          "type": "uint256"
        }
      ],
      "name": "safeTransferFrom",
      "outputs": [],
      "payable": false,
      "stateMutability": "nonpayable",
      "type": "function"
    },
    {
      "constant": false,
      "inputs": [],
      "name": "renounceWhitelistAdmin",
      "outputs": [],
      "payable": false,
      "stateMutability": "nonpayable",
      "type": "function"
    },
    {
      "constant": true,
      "inputs": [],
      "name": "getLastTid",
      "outputs": [
        {
          "name": "",
          "type": "uint256"
        }
      ],
      "payable": false,
      "stateMutability": "view",
      "type": "function"
    },
    {
      "constant": true,
      "inputs": [
        {
          "name": "index",
          "type": "uint256"
        }
      ],
      "name": "tokenByIndex",
      "outputs": [
        {
          "name": "",
          "type": "uint256"
        }
      ],
      "payable": false,
      "stateMutability": "view",
      "type": "function"
    },
    {
      "constant": true,
      "inputs": [
        {
          "name": "tokenId",
          "type": "uint256"
        }
      ],
      "name": "ownerOf",
      "outputs": [
        {
          "name": "",
          "type": "address"
        }
      ],
      "payable": false,
      "stateMutability": "view",
      "type": "function"
    },
    {
      "constant": true,
      "inputs": [
        {
          "name": "owner",
          "type": "address"
        }
      ],
      "name": "balanceOf",
      "outputs": [
        {
          "name": "",
          "type": "uint256"
        }
      ],
      "payable": false,
      "stateMutability": "view",
      "type": "function"
    },
    {
      "constant": false,
      "inputs": [
        {
          "name": "account",
          "type": "address"
        }
      ],
      "name": "addWhitelistAdmin",
      "outputs": [],
      "payable": false,
      "stateMutability": "nonpayable",
      "type": "function"
    },
    {
      "constant": false,
      "inputs": [
        {
          "name": "cid",
          "type": "uint256"
        },
        {
          "name": "title",
          "type": "string"
        },
        {
          "name": "description",
          "type": "string"
        },
        {
          "name": "imgsrc",
          "type": "string"
        }
      ],
      "name": "updateContent",
      "outputs": [],
      "payable": false,
      "stateMutability": "nonpayable",
      "type": "function"
    },
    {
      "constant": true,
      "inputs": [],
      "name": "symbol",
      "outputs": [
        {
          "name": "",
          "type": "string"
        }
      ],
      "payable": false,
      "stateMutability": "view",
      "type": "function"
    },
    {
      "constant": false,
      "inputs": [
        {
          "name": "to",
          "type": "address"
        },
        {
          "name": "approved",
          "type": "bool"
        }
      ],
      "name": "setApprovalForAll",
      "outputs": [],
      "payable": false,
      "stateMutability": "nonpayable",
      "type": "function"
    },
    {
      "constant": false,
      "inputs": [
        {
          "name": "from",
          "type": "address"
        },
        {
          "name": "to",
          "type": "address"
        },
        {
          "name": "tokenId",
          "type": "uint256"
        },
        {
          "name": "_data",
          "type": "bytes"
        }
      ],
      "name": "safeTransferFrom",
      "outputs": [],
      "payable": false,
      "stateMutability": "nonpayable",
      "type": "function"
    },
    {
      "constant": true,
      "inputs": [
        {
          "name": "cid",
          "type": "uint256"
        }
      ],
      "name": "calcLimit",
      "outputs": [
        {
          "name": "",
          "type": "bool"
        }
      ],
      "payable": false,
      "stateMutability": "view",
      "type": "function"
    },
    {
      "constant": true,
      "inputs": [
        {
          "name": "account",
          "type": "address"
        }
      ],
      "name": "isWhitelistAdmin",
      "outputs": [
        {
          "name": "",
          "type": "bool"
        }
      ],
      "payable": false,
      "stateMutability": "view",
      "type": "function"
    },
    {
      "constant": true,
      "inputs": [
        {
          "name": "tid",
          "type": "uint256"
        }
      ],
      "name": "getLogTrade",
      "outputs": [
        {
          "name": "",
          "type": "uint256"
        },
        {
          "name": "",
          "type": "address"
        },
        {
          "name": "",
          "type": "address"
        }
      ],
      "payable": false,
      "stateMutability": "view",
      "type": "function"
    },
    {
      "constant": true,
      "inputs": [
        {
          "name": "tokenId",
          "type": "uint256"
        }
      ],
      "name": "tokenURI",
      "outputs": [
        {
          "name": "",
          "type": "string"
        }
      ],
      "payable": false,
      "stateMutability": "view",
      "type": "function"
    },
    {
      "constant": false,
      "inputs": [
        {
          "name": "title",
          "type": "string"
        },
        {
          "name": "description",
          "type": "string"
        },
        {
          "name": "imgsrc",
          "type": "string"
        }
      ],
      "name": "createContent",
      "outputs": [],
      "payable": false,
      "stateMutability": "nonpayable",
      "type": "function"
    },
    {
      "constant": false,
      "inputs": [],
      "name": "renounceWhitelisted",
      "outputs": [],
      "payable": false,
      "stateMutability": "nonpayable",
      "type": "function"
    },
    {
      "constant": true,
      "inputs": [
        {
          "name": "owner",
          "type": "address"
        },
        {
          "name": "operator",
          "type": "address"
        }
      ],
      "name": "isApprovedForAll",
      "outputs": [
        {
          "name": "",
          "type": "bool"
        }
      ],
      "payable": false,
      "stateMutability": "view",
      "type": "function"
    },
    {
      "anonymous": false,
      "inputs": [
        {
          "indexed": true,
          "name": "account",
          "type": "address"
        }
      ],
      "name": "WhitelistedAdded",
      "type": "event"
    },
    {
      "anonymous": false,
      "inputs": [
        {
          "indexed": true,
          "name": "account",
          "type": "address"
        }
      ],
      "name": "WhitelistedRemoved",
      "type": "event"
    },
    {
      "anonymous": false,
      "inputs": [
        {
          "indexed": true,
          "name": "account",
          "type": "address"
        }
      ],
      "name": "WhitelistAdminAdded",
      "type": "event"
    },
    {
      "anonymous": false,
      "inputs": [
        {
          "indexed": true,
          "name": "account",
          "type": "address"
        }
      ],
      "name": "WhitelistAdminRemoved",
      "type": "event"
    },
    {
      "anonymous": false,
      "inputs": [
        {
          "indexed": true,
          "name": "from",
          "type": "address"
        },
        {
          "indexed": true,
          "name": "to",
          "type": "address"
        },
        {
          "indexed": true,
          "name": "tokenId",
          "type": "uint256"
        }
      ],
      "name": "Transfer",
      "type": "event"
    },
    {
      "anonymous": false,
      "inputs": [
        {
          "indexed": true,
          "name": "owner",
          "type": "address"
        },
        {
          "indexed": true,
          "name": "approved",
          "type": "address"
        },
        {
          "indexed": true,
          "name": "tokenId",
          "type": "uint256"
        }
      ],
      "name": "Approval",
      "type": "event"
    },
    {
      "anonymous": false,
      "inputs": [
        {
          "indexed": true,
          "name": "owner",
          "type": "address"
        },
        {
          "indexed": true,
          "name": "operator",
          "type": "address"
        },
        {
          "indexed": false,
          "name": "approved",
          "type": "bool"
        }
      ],
      "name": "ApprovalForAll",
      "type": "event"
    },
    {
      "constant": false,
      "inputs": [
        {
          "name": "cid",
          "type": "uint256"
        }
      ],
      "name": "purchaseTrade",
      "outputs": [],
      "payable": true,
      "stateMutability": "payable",
      "type": "function"
    },
    {
      "constant": true,
      "inputs": [],
      "name": "countTradePurchased",
      "outputs": [
        {
          "name": "",
          "type": "uint256"
        }
      ],
      "payable": false,
      "stateMutability": "view",
      "type": "function"
    },
    {
      "constant": true,
      "inputs": [
        {
          "name": "index",
          "type": "uint256"
        }
      ],
      "name": "tradeAtIndex",
      "outputs": [
        {
          "name": "",
          "type": "uint256"
        }
      ],
      "payable": false,
      "stateMutability": "view",
      "type": "function"
    }
  ],
  "bytecode": "0x60806040526040518060400160405280601281526020017f4169726520566f6963652041727469636c6500000000000000000000000000008152506040518060400160405280600381526020017f414941000000000000000000000000000000000000000000000000000000000081525081816200008a6301ffc9a760e01b6200011f60201b60201c565b620000a26380ac58cd60e01b6200011f60201b60201c565b620000ba63780e9d6360e01b6200011f60201b60201c565b8160099080519060200190620000d29291906200044d565b5080600a9080519060200190620000eb9291906200044d565b5062000104635b5e139f60e01b6200011f60201b60201c565b5050505062000119336200022860201b60201c565b620004fc565b63ffffffff60e01b817bffffffffffffffffffffffffffffffffffffffffffffffffffffffff19161415620001bc576040517f08c379a000000000000000000000000000000000000000000000000000000000815260040180806020018281038252601c8152602001807f4552433136353a20696e76616c696420696e746572666163652069640000000081525060200191505060405180910390fd5b6001600080837bffffffffffffffffffffffffffffffffffffffffffffffffffffffff19167bffffffffffffffffffffffffffffffffffffffffffffffffffffffff1916815260200190815260200160002060006101000a81548160ff02191690831515021790555050565b6200024381600c6200028960201b62003afa1790919060201c565b8073ffffffffffffffffffffffffffffffffffffffff167f22380c05984257a1cb900161c713dd71d39e74820f1aea43bd3f1bdd2096129960405160405180910390a250565b6200029b82826200036d60201b60201c565b156200030f576040517f08c379a000000000000000000000000000000000000000000000000000000000815260040180806020018281038252601f8152602001807f526f6c65733a206163636f756e7420616c72656164792068617320726f6c650081525060200191505060405180910390fd5b60018260000160008373ffffffffffffffffffffffffffffffffffffffff1673ffffffffffffffffffffffffffffffffffffffff16815260200190815260200160002060006101000a81548160ff0219169083151502179055505050565b60008073ffffffffffffffffffffffffffffffffffffffff168273ffffffffffffffffffffffffffffffffffffffff161415620003f6576040517f08c379a000000000000000000000000000000000000000000000000000000000815260040180806020018281038252602281526020018062004bad6022913960400191505060405180910390fd5b8260000160008373ffffffffffffffffffffffffffffffffffffffff1673ffffffffffffffffffffffffffffffffffffffff16815260200190815260200160002060009054906101000a900460ff16905092915050565b828054600181600116156101000203166002900490600052602060002090601f016020900481019282601f106200049057805160ff1916838001178555620004c1565b82800160010185558215620004c1579182015b82811115620004c0578251825591602001919060010190620004a3565b5b509050620004d09190620004d4565b5090565b620004f991905b80821115620004f5576000816000905550600101620004db565b5090565b90565b6146a1806200050c6000396000f3fe6080604052600436106102045760003560e01c80634f6ccce711610118578063b88d4fde116100a0578063c87b56dd1161006f578063c87b56dd14611006578063d35216a2146110ba578063d6cd9473146111ea578063e985e9c514611201578063ff3b01601461128a57610204565b8063b88d4fde14610d83578063b8d8bbc514610e95578063bb5f747b14610ee8578063c6ce7ab814610f5157610204565b80637362d9c8116100e75780637362d9c814610add578063786f7e5714610b2e57806395d89b4114610c68578063a22cb46514610cf8578063aa5ddec614610d5557610204565b80634f6ccce7146109835780636352211e146109d25780636713ad4d14610a4d57806370a0823114610a7857610204565b806323b872dd1161019b5780633af32abf1161016a5780633af32abf146106975780633b64d29a1461070057806342842e0e146108c65780634c5a628c146109415780634f5a2e1e1461095857610204565b806323b872dd146104ed578063291d9549146105685780632f745c59146105b957806336c678971461062857610204565b8063081812fc116101d7578063081812fc1461039b578063095ea7b31461041657806310154bad1461047157806318160ddd146104c257610204565b806301ffc9a714610209578063031941ef1461027b57806306661abd146102e057806306fdde031461030b575b600080fd5b34801561021557600080fd5b506102616004803603602081101561022c57600080fd5b8101908080357bffffffffffffffffffffffffffffffffffffffffffffffffffffffff191690602001909291905050506112d9565b604051808215151515815260200191505060405180910390f35b34801561028757600080fd5b506102de600480360360a081101561029e57600080fd5b8101908080359060200190929190803590602001909291908035906020019092919080359060200190929190803515159060200190929190505050611340565b005b3480156102ec57600080fd5b506102f5611613565b6040518082815260200191505060405180910390f35b34801561031757600080fd5b50610320611622565b6040518080602001828103825283818151815260200191508051906020019080838360005b83811015610360578082015181840152602081019050610345565b50505050905090810190601f16801561038d5780820380516001836020036101000a031916815260200191505b509250505060405180910390f35b3480156103a757600080fd5b506103d4600480360360208110156103be57600080fd5b81019080803590602001909291905050506116c4565b604051808273ffffffffffffffffffffffffffffffffffffffff1673ffffffffffffffffffffffffffffffffffffffff16815260200191505060405180910390f35b34801561042257600080fd5b5061046f6004803603604081101561043957600080fd5b81019080803573ffffffffffffffffffffffffffffffffffffffff1690602001909291908035906020019092919050505061175f565b005b34801561047d57600080fd5b506104c06004803603602081101561049457600080fd5b81019080803573ffffffffffffffffffffffffffffffffffffffff169060200190929190505050611938565b005b3480156104ce57600080fd5b506104d76119a2565b6040518082815260200191505060405180910390f35b3480156104f957600080fd5b506105666004803603606081101561051057600080fd5b81019080803573ffffffffffffffffffffffffffffffffffffffff169060200190929190803573ffffffffffffffffffffffffffffffffffffffff169060200190929190803590602001909291905050506119af565b005b34801561057457600080fd5b506105b76004803603602081101561058b57600080fd5b81019080803573ffffffffffffffffffffffffffffffffffffffff169060200190929190505050611a1e565b005b3480156105c557600080fd5b50610612600480360360408110156105dc57600080fd5b81019080803573ffffffffffffffffffffffffffffffffffffffff16906020019092919080359060200190929190505050611a88565b6040518082815260200191505060405180910390f35b34801561063457600080fd5b506106616004803603602081101561064b57600080fd5b8101908080359060200190929190505050611b47565b60405180868152602001858152602001848152602001838152602001821515151581526020019550505050505060405180910390f35b3480156106a357600080fd5b506106e6600480360360208110156106ba57600080fd5b81019080803573ffffffffffffffffffffffffffffffffffffffff169060200190929190505050611bb2565b604051808215151515815260200191505060405180910390f35b34801561070c57600080fd5b506107396004803603602081101561072357600080fd5b8101908080359060200190929190505050611bc4565b604051808681526020018060200180602001806020018573ffffffffffffffffffffffffffffffffffffffff1673ffffffffffffffffffffffffffffffffffffffff168152602001848103845288818151815260200191508051906020019080838360005b838110156107b957808201518184015260208101905061079e565b50505050905090810190601f1680156107e65780820380516001836020036101000a031916815260200191505b50848103835287818151815260200191508051906020019080838360005b8381101561081f578082015181840152602081019050610804565b50505050905090810190601f16801561084c5780820380516001836020036101000a031916815260200191505b50848103825286818151815260200191508051906020019080838360005b8381101561088557808201518184015260208101905061086a565b50505050905090810190601f1680156108b25780820380516001836020036101000a031916815260200191505b509850505050505050505060405180910390f35b3480156108d257600080fd5b5061093f600480360360608110156108e957600080fd5b81019080803573ffffffffffffffffffffffffffffffffffffffff169060200190929190803573ffffffffffffffffffffffffffffffffffffffff16906020019092919080359060200190929190505050611cd6565b005b34801561094d57600080fd5b50610956611cf6565b005b34801561096457600080fd5b5061096d611d01565b6040518082815260200191505060405180910390f35b34801561098f57600080fd5b506109bc600480360360208110156109a657600080fd5b8101908080359060200190929190505050611d0b565b6040518082815260200191505060405180910390f35b3480156109de57600080fd5b50610a0b600480360360208110156109f557600080fd5b8101908080359060200190929190505050611d8b565b604051808273ffffffffffffffffffffffffffffffffffffffff1673ffffffffffffffffffffffffffffffffffffffff16815260200191505060405180910390f35b348015610a5957600080fd5b50610a62611e53565b6040518082815260200191505060405180910390f35b348015610a8457600080fd5b50610ac760048036036020811015610a9b57600080fd5b81019080803573ffffffffffffffffffffffffffffffffffffffff169060200190929190505050611ea0565b6040518082815260200191505060405180910390f35b348015610ae957600080fd5b50610b2c60048036036020811015610b0057600080fd5b81019080803573ffffffffffffffffffffffffffffffffffffffff169060200190929190505050611f75565b005b348015610b3a57600080fd5b50610c6660048036036080811015610b5157600080fd5b810190808035906020019092919080359060200190640100000000811115610b7857600080fd5b820183602082011115610b8a57600080fd5b80359060200191846001830284011164010000000083111715610bac57600080fd5b909192939192939080359060200190640100000000811115610bcd57600080fd5b820183602082011115610bdf57600080fd5b80359060200191846001830284011164010000000083111715610c0157600080fd5b909192939192939080359060200190640100000000811115610c2257600080fd5b820183602082011115610c3457600080fd5b80359060200191846001830284011164010000000083111715610c5657600080fd5b9091929391929390505050611fdf565b005b348015610c7457600080fd5b50610c7d6120e2565b6040518080602001828103825283818151815260200191508051906020019080838360005b83811015610cbd578082015181840152602081019050610ca2565b50505050905090810190601f168015610cea5780820380516001836020036101000a031916815260200191505b509250505060405180910390f35b348015610d0457600080fd5b50610d5360048036036040811015610d1b57600080fd5b81019080803573ffffffffffffffffffffffffffffffffffffffff169060200190929190803515159060200190929190505050612184565b005b610d8160048036036020811015610d6b57600080fd5b8101908080359060200190929190505050612327565b005b348015610d8f57600080fd5b50610e9360048036036080811015610da657600080fd5b81019080803573ffffffffffffffffffffffffffffffffffffffff169060200190929190803573ffffffffffffffffffffffffffffffffffffffff1690602001909291908035906020019092919080359060200190640100000000811115610e0d57600080fd5b820183602082011115610e1f57600080fd5b80359060200191846001830284011164010000000083111715610e4157600080fd5b91908080601f016020809104026020016040519081016040528093929190818152602001838380828437600081840152601f19601f82011690508083019250505050505050919291929050505061249d565b005b348015610ea157600080fd5b50610ece60048036036020811015610eb857600080fd5b810190808035906020019092919050505061250f565b604051808215151515815260200191505060405180910390f35b348015610ef457600080fd5b50610f3760048036036020811015610f0b57600080fd5b81019080803573ffffffffffffffffffffffffffffffffffffffff16906020019092919050505061253e565b604051808215151515815260200191505060405180910390f35b348015610f5d57600080fd5b50610f8a60048036036020811015610f7457600080fd5b810190808035906020019092919050505061255b565b604051808481526020018373ffffffffffffffffffffffffffffffffffffffff1673ffffffffffffffffffffffffffffffffffffffff1681526020018273ffffffffffffffffffffffffffffffffffffffff1673ffffffffffffffffffffffffffffffffffffffff168152602001935050505060405180910390f35b34801561101257600080fd5b5061103f6004803603602081101561102957600080fd5b810190808035906020019092919050505061264d565b6040518080602001828103825283818151815260200191508051906020019080838360005b8381101561107f578082015181840152602081019050611064565b50505050905090810190601f1680156110ac5780820380516001836020036101000a031916815260200191505b509250505060405180910390f35b3480156110c657600080fd5b506111e8600480360360608110156110dd57600080fd5b81019080803590602001906401000000008111156110fa57600080fd5b82018360208201111561110c57600080fd5b8035906020019184600183028401116401000000008311171561112e57600080fd5b90919293919293908035906020019064010000000081111561114f57600080fd5b82018360208201111561116157600080fd5b8035906020019184600183028401116401000000008311171561118357600080fd5b9091929391929390803590602001906401000000008111156111a457600080fd5b8201836020820111156111b657600080fd5b803590602001918460018302840111640100000000831117156111d857600080fd5b9091929391929390505050612760565b005b3480156111f657600080fd5b506111ff61296c565b005b34801561120d57600080fd5b506112706004803603604081101561122457600080fd5b81019080803573ffffffffffffffffffffffffffffffffffffffff169060200190929190803573ffffffffffffffffffffffffffffffffffffffff169060200190929190505050612977565b604051808215151515815260200191505060405180910390f35b34801561129657600080fd5b506112c3600480360360208110156112ad57600080fd5b8101908080359060200190929190505050612a0b565b6040518082815260200191505060405180910390f35b6000806000837bffffffffffffffffffffffffffffffffffffffffffffffffffffffff19167bffffffffffffffffffffffffffffffffffffffffffffffffffffffff1916815260200190815260200160002060009054906101000a900460ff169050919050565b8260648111156113b8576040517f08c379a000000000000000000000000000000000000000000000000000000000815260040180806020018281038252600e8152602001807f726174696f206f766572666c6f7700000000000000000000000000000000000081525060200191505060405180910390fd5b858360008111611430576040517f08c379a000000000000000000000000000000000000000000000000000000000815260040180806020018281038252601b8152602001807f6c696d697420737570706c79206d757374206265206f7665722030000000000081525060200191505060405180910390fd5b6000600f6000848152602001908152602001600020905081816003015411156114a4576040517f08c379a00000000000000000000000000000000000000000000000000000000081526004018080602001828103825260258152602001806143b76025913960400191505060405180910390fd5b3373ffffffffffffffffffffffffffffffffffffffff166114c48a611d8b565b73ffffffffffffffffffffffffffffffffffffffff161461154d576040517f08c379a000000000000000000000000000000000000000000000000000000000815260040180806020018281038252600d8152602001807f6d757374206265206f776e65720000000000000000000000000000000000000081525060200191505060405180910390fd5b61155689612b28565b61155f57600080fd5b6000600f60008b81526020019081526020016000209050888160000181905550858160040160006101000a81548160ff02191690831515021790555087816001018190555086816002018190555060018160050160003373ffffffffffffffffffffffffffffffffffffffff1673ffffffffffffffffffffffffffffffffffffffff16815260200190815260200160002060006101000a81548160ff02191690831515021790555050505050505050505050565b600061161d6119a2565b905090565b606060098054600181600116156101000203166002900480601f0160208091040260200160405190810160405280929190818152602001828054600181600116156101000203166002900480156116ba5780601f1061168f576101008083540402835291602001916116ba565b820191906000526020600020905b81548152906001019060200180831161169d57829003601f168201915b5050505050905090565b60006116cf82612b28565b611724576040517f08c379a000000000000000000000000000000000000000000000000000000000815260040180806020018281038252602c8152602001806144d8602c913960400191505060405180910390fd5b6002600083815260200190815260200160002060009054906101000a900473ffffffffffffffffffffffffffffffffffffffff169050919050565b600061176a82611d8b565b90508073ffffffffffffffffffffffffffffffffffffffff168373ffffffffffffffffffffffffffffffffffffffff1614156117f1576040517f08c379a00000000000000000000000000000000000000000000000000000000081526004018080602001828103825260218152602001806145f86021913960400191505060405180910390fd5b8073ffffffffffffffffffffffffffffffffffffffff163373ffffffffffffffffffffffffffffffffffffffff16148061183157506118308133612977565b5b611886576040517f08c379a000000000000000000000000000000000000000000000000000000000815260040180806020018281038252603881526020018061442c6038913960400191505060405180910390fd5b826002600084815260200190815260200160002060006101000a81548173ffffffffffffffffffffffffffffffffffffffff021916908373ffffffffffffffffffffffffffffffffffffffff160217905550818373ffffffffffffffffffffffffffffffffffffffff168273ffffffffffffffffffffffffffffffffffffffff167f8c5be1e5ebec7d5bd14f71427d1e84f3dd0314c0f7b2291e5b200ac8c7c3b92560405160405180910390a4505050565b6119413361253e565b611996576040517f08c379a000000000000000000000000000000000000000000000000000000000815260040180806020018281038252604081526020018061454f6040913960400191505060405180910390fd5b61199f81612b9a565b50565b6000600780549050905090565b6119b93382612c04565b611a0e576040517f08c379a00000000000000000000000000000000000000000000000000000000081526004018080602001828103825260318152602001806146196031913960400191505060405180910390fd5b611a19838383612cf8565b505050565b611a273361253e565b611a7c576040517f08c379a000000000000000000000000000000000000000000000000000000000815260040180806020018281038252604081526020018061454f6040913960400191505060405180910390fd5b611a8581612d1c565b50565b6000611a9383611ea0565b8210611aea576040517f08c379a000000000000000000000000000000000000000000000000000000000815260040180806020018281038252602b81526020018061435a602b913960400191505060405180910390fd5b600560008473ffffffffffffffffffffffffffffffffffffffff1673ffffffffffffffffffffffffffffffffffffffff1681526020019081526020016000208281548110611b3457fe5b9060005260206000200154905092915050565b6000806000806000611b5886612b28565b611b6157600080fd5b6000600f6000888152602001908152602001600020905080600001548160010154826002015483600301548460040160009054906101000a900460ff16955095509550955095505091939590929450565b6000611bbd82612d76565b9050919050565b600060608060606000856000600f600083815260200190815260200160002090508060050160003373ffffffffffffffffffffffffffffffffffffffff1673ffffffffffffffffffffffffffffffffffffffff16815260200190815260200160002060009054906101000a900460ff16611ca6576040517f08c379a000000000000000000000000000000000000000000000000000000000815260040180806020018281038252601d8152602001807f6e6f74207369676e65642c20706c6561736520757064617465496e666f00000081525060200191505060405180910390fd5b611caf88612b28565b611cb857600080fd5b611cc188612d93565b96509650965096509650505091939590929450565b611cf18383836040518060200160405280600081525061249d565b505050565b611cff3361309c565b565b6000601154905090565b6000611d156119a2565b8210611d6c576040517f08c379a000000000000000000000000000000000000000000000000000000000815260040180806020018281038252602c81526020018061464a602c913960400191505060405180910390fd5b60078281548110611d7957fe5b90600052602060002001549050919050565b6000806001600084815260200190815260200160002060009054906101000a900473ffffffffffffffffffffffffffffffffffffffff169050600073ffffffffffffffffffffffffffffffffffffffff168173ffffffffffffffffffffffffffffffffffffffff161415611e4a576040517f08c379a000000000000000000000000000000000000000000000000000000000815260040180806020018281038252602981526020018061448e6029913960400191505060405180910390fd5b80915050919050565b6000601260003373ffffffffffffffffffffffffffffffffffffffff1673ffffffffffffffffffffffffffffffffffffffff16815260200190815260200160002060000180549050905090565b60008073ffffffffffffffffffffffffffffffffffffffff168273ffffffffffffffffffffffffffffffffffffffff161415611f27576040517f08c379a000000000000000000000000000000000000000000000000000000000815260040180806020018281038252602a815260200180614464602a913960400191505060405180910390fd5b611f6e600360008473ffffffffffffffffffffffffffffffffffffffff1673ffffffffffffffffffffffffffffffffffffffff1681526020019081526020016000206130f6565b9050919050565b611f7e3361253e565b611fd3576040517f08c379a000000000000000000000000000000000000000000000000000000000815260040180806020018281038252604081526020018061454f6040913960400191505060405180910390fd5b611fdc81613104565b50565b611fe833611bb2565b61203d576040517f08c379a000000000000000000000000000000000000000000000000000000000815260040180806020018281038252603a8152602001806145be603a913960400191505060405180910390fd5b3373ffffffffffffffffffffffffffffffffffffffff1661205d88611d8b565b73ffffffffffffffffffffffffffffffffffffffff161461207d57600080fd5b6000600e888154811061208c57fe5b9060005260206000209060040201905086868260000191906120af9291906141e0565b5084848260010191906120c39291906141e0565b5082828260020191906120d79291906141e0565b505050505050505050565b6060600a8054600181600116156101000203166002900480601f01602080910402602001604051908101604052809291908181526020018280546001816001161561010002031660029004801561217a5780601f1061214f5761010080835404028352916020019161217a565b820191906000526020600020905b81548152906001019060200180831161215d57829003601f168201915b5050505050905090565b3373ffffffffffffffffffffffffffffffffffffffff168273ffffffffffffffffffffffffffffffffffffffff161415612226576040517f08c379a00000000000000000000000000000000000000000000000000000000081526004018080602001828103825260198152602001807f4552433732313a20617070726f766520746f2063616c6c65720000000000000081525060200191505060405180910390fd5b80600460003373ffffffffffffffffffffffffffffffffffffffff1673ffffffffffffffffffffffffffffffffffffffff16815260200190815260200160002060008473ffffffffffffffffffffffffffffffffffffffff1673ffffffffffffffffffffffffffffffffffffffff16815260200190815260200160002060006101000a81548160ff0219169083151502179055508173ffffffffffffffffffffffffffffffffffffffff163373ffffffffffffffffffffffffffffffffffffffff167f17307eab39ab6107e8899845ad3d59bd9653f200f220920489ca2b5937696c3183604051808215151515815260200191505060405180910390a35050565b806000600f60008381526020019081526020016000209050806000015434146123b8576040517f08c379a00000000000000000000000000000000000000000000000000000000081526004018080602001828103825260118152602001807f7472616465207072696365206572726f7200000000000000000000000000000081525060200191505060405180910390fd5b6123c18361315e565b6000600f60008581526020019081526020016000209050601260003373ffffffffffffffffffffffffffffffffffffffff1673ffffffffffffffffffffffffffffffffffffffff16815260200190815260200160002060000184908060018154018082558091505090600182039060005260206000200160009091929091909150555061244d84611d8b565b73ffffffffffffffffffffffffffffffffffffffff166108fc82600001549081150290604051600060405180830381858888f19350505050158015612496573d6000803e3d6000fd5b5050505050565b6124a88484846119af565b6124b48484848461323b565b612509576040517f08c379a00000000000000000000000000000000000000000000000000000000081526004018080602001828103825260328152602001806143856032913960400191505060405180910390fd5b50505050565b600080600f60008481526020019081526020016000209050600181600301540181600201541015915050919050565b600061255482600c61342490919063ffffffff16565b9050919050565b60008060008380601154116125d8576040517f08c379a00000000000000000000000000000000000000000000000000000000081526004018080602001828103825260128152602001807f7472616465206964206f76657220666c6f77000000000000000000000000000081525060200191505060405180910390fd5b600060106000878152602001908152602001600020905080600001548160010160009054906101000a900473ffffffffffffffffffffffffffffffffffffffff168260020160009054906101000a900473ffffffffffffffffffffffffffffffffffffffff1694509450945050509193909250565b606061265882612b28565b6126ad576040517f08c379a000000000000000000000000000000000000000000000000000000000815260040180806020018281038252602f81526020018061458f602f913960400191505060405180910390fd5b600b60008381526020019081526020016000208054600181600116156101000203166002900480601f0160208091040260200160405190810160405280929190818152602001828054600181600116156101000203166002900480156127545780601f1061272957610100808354040283529160200191612754565b820191906000526020600020905b81548152906001019060200180831161273757829003601f168201915b50505050509050919050565b61276933611bb2565b6127be576040517f08c379a000000000000000000000000000000000000000000000000000000000815260040180806020018281038252603a8152602001806145be603a913960400191505060405180910390fd5b6127c6614260565b86868080601f016020809104026020016040519081016040528093929190818152602001838380828437600081840152601f19601f82011690508083019250505050505050816000018190525084848080601f016020809104026020016040519081016040528093929190818152602001838380828437600081840152601f19601f82011690508083019250505050505050816020018190525082828080601f016020809104026020016040519081016040528093929190818152602001838380828437600081840152601f19601f82011690508083019250505050505050816040018190525060006001600e839080600181540180825580915050906001820390600052602060002090600402016000909192909190915060008201518160000190805190602001906128fb929190614288565b506020820151816001019080519060200190612918929190614288565b506040820151816002019080519060200190612935929190614288565b506060820151816003019080519060200190612952929190614288565b5050500390506129623382613502565b5050505050505050565b61297533612d1c565b565b6000600460008473ffffffffffffffffffffffffffffffffffffffff1673ffffffffffffffffffffffffffffffffffffffff16815260200190815260200160002060008373ffffffffffffffffffffffffffffffffffffffff1673ffffffffffffffffffffffffffffffffffffffff16815260200190815260200160002060009054906101000a900460ff16905092915050565b60008180601260003373ffffffffffffffffffffffffffffffffffffffff1673ffffffffffffffffffffffffffffffffffffffff1681526020019081526020016000206000018054905011612ac8576040517f08c379a000000000000000000000000000000000000000000000000000000000815260040180806020018281038252600e8152602001807f696e646578206f766572666c6f7700000000000000000000000000000000000081525060200191505060405180910390fd5b601260003373ffffffffffffffffffffffffffffffffffffffff1673ffffffffffffffffffffffffffffffffffffffff1681526020019081526020016000206000018381548110612b1557fe5b9060005260206000200154915050919050565b6000806001600084815260200190815260200160002060009054906101000a900473ffffffffffffffffffffffffffffffffffffffff169050600073ffffffffffffffffffffffffffffffffffffffff168173ffffffffffffffffffffffffffffffffffffffff161415915050919050565b612ba33361253e565b612bf8576040517f08c379a000000000000000000000000000000000000000000000000000000000815260040180806020018281038252604081526020018061454f6040913960400191505060405180910390fd5b612c0181613523565b50565b6000612c0f82612b28565b612c64576040517f08c379a000000000000000000000000000000000000000000000000000000000815260040180806020018281038252602c815260200180614400602c913960400191505060405180910390fd5b6000612c6f83611d8b565b90508073ffffffffffffffffffffffffffffffffffffffff168473ffffffffffffffffffffffffffffffffffffffff161480612cde57508373ffffffffffffffffffffffffffffffffffffffff16612cc6846116c4565b73ffffffffffffffffffffffffffffffffffffffff16145b80612cef5750612cee8185612977565b5b91505092915050565b612d0383838361357d565b612d0d83826137d8565b612d178282613976565b505050565b612d3081600d613a3d90919063ffffffff16565b8073ffffffffffffffffffffffffffffffffffffffff167f270d9b30cf5b0793bbfd54c9d5b94aeb49462b8148399000265144a8722da6b660405160405180910390a250565b6000612d8c82600d61342490919063ffffffff16565b9050919050565b600060608060606000612da586612b28565b612dae57600080fd5b612db6614260565b600e8781548110612dc357fe5b9060005260206000209060040201604051806080016040529081600082018054600181600116156101000203166002900480601f016020809104026020016040519081016040528092919081815260200182805460018160011615610100020316600290048015612e755780601f10612e4a57610100808354040283529160200191612e75565b820191906000526020600020905b815481529060010190602001808311612e5857829003601f168201915b50505050508152602001600182018054600181600116156101000203166002900480601f016020809104026020016040519081016040528092919081815260200182805460018160011615610100020316600290048015612f175780601f10612eec57610100808354040283529160200191612f17565b820191906000526020600020905b815481529060010190602001808311612efa57829003601f168201915b50505050508152602001600282018054600181600116156101000203166002900480601f016020809104026020016040519081016040528092919081815260200182805460018160011615610100020316600290048015612fb95780601f10612f8e57610100808354040283529160200191612fb9565b820191906000526020600020905b815481529060010190602001808311612f9c57829003601f168201915b50505050508152602001600382018054600181600116156101000203166002900480601f01602080910402602001604051908101604052809291908181526020018280546001816001161561010002031660029004801561305b5780601f106130305761010080835404028352916020019161305b565b820191906000526020600020905b81548152906001019060200180831161303e57829003601f168201915b50505050508152505090508681600001518260200151836040015161307f8b611d8b565b839350829250819150955095509550955095505091939590929450565b6130b081600c613a3d90919063ffffffff16565b8073ffffffffffffffffffffffffffffffffffffffff167f0a8eb35e5ca14b3d6f28e4abf2f128dbab231a58b56e89beb5d636115001e16560405160405180910390a250565b600081600001549050919050565b61311881600c613afa90919063ffffffff16565b8073ffffffffffffffffffffffffffffffffffffffff167f22380c05984257a1cb900161c713dd71d39e74820f1aea43bd3f1bdd2096129960405160405180910390a250565b61316781612b28565b61317057600080fd5b61317981613bd5565b6000601060006011600081548092919060010191905055815260200190815260200160002090506131a982611d8b565b8160010160006101000a81548173ffffffffffffffffffffffffffffffffffffffff021916908373ffffffffffffffffffffffffffffffffffffffff160217905550338160020160006101000a81548173ffffffffffffffffffffffffffffffffffffffff021916908373ffffffffffffffffffffffffffffffffffffffff1602179055508181600001819055505050565b600061325c8473ffffffffffffffffffffffffffffffffffffffff16613de9565b613269576001905061341c565b60008473ffffffffffffffffffffffffffffffffffffffff1663150b7a02338887876040518563ffffffff1660e01b8152600401808573ffffffffffffffffffffffffffffffffffffffff1673ffffffffffffffffffffffffffffffffffffffff1681526020018473ffffffffffffffffffffffffffffffffffffffff1673ffffffffffffffffffffffffffffffffffffffff16815260200183815260200180602001828103825283818151815260200191508051906020019080838360005b83811015613344578082015181840152602081019050613329565b50505050905090810190601f1680156133715780820380516001836020036101000a031916815260200191505b5095505050505050602060405180830381600087803b15801561339357600080fd5b505af11580156133a7573d6000803e3d6000fd5b505050506040513d60208110156133bd57600080fd5b8101908080519060200190929190505050905063150b7a0260e01b7bffffffffffffffffffffffffffffffffffffffffffffffffffffffff1916817bffffffffffffffffffffffffffffffffffffffffffffffffffffffff1916149150505b949350505050565b60008073ffffffffffffffffffffffffffffffffffffffff168273ffffffffffffffffffffffffffffffffffffffff1614156134ab576040517f08c379a00000000000000000000000000000000000000000000000000000000081526004018080602001828103825260228152602001806145046022913960400191505060405180910390fd5b8260000160008373ffffffffffffffffffffffffffffffffffffffff1673ffffffffffffffffffffffffffffffffffffffff16815260200190815260200160002060009054906101000a900460ff16905092915050565b61350c8282613dfc565b6135168282613976565b61351f81614014565b5050565b61353781600d613afa90919063ffffffff16565b8073ffffffffffffffffffffffffffffffffffffffff167fee1504a83b6d4a361f4c1dc78ab59bfa30d6a3b6612c403e86bb01ef2984295f60405160405180910390a250565b8273ffffffffffffffffffffffffffffffffffffffff1661359d82611d8b565b73ffffffffffffffffffffffffffffffffffffffff1614613609576040517f08c379a00000000000000000000000000000000000000000000000000000000081526004018080602001828103825260298152602001806145266029913960400191505060405180910390fd5b600073ffffffffffffffffffffffffffffffffffffffff168273ffffffffffffffffffffffffffffffffffffffff16141561368f576040517f08c379a00000000000000000000000000000000000000000000000000000000081526004018080602001828103825260248152602001806143dc6024913960400191505060405180910390fd5b61369881614060565b6136df600360008573ffffffffffffffffffffffffffffffffffffffff1673ffffffffffffffffffffffffffffffffffffffff16815260200190815260200160002061411e565b613726600360008473ffffffffffffffffffffffffffffffffffffffff1673ffffffffffffffffffffffffffffffffffffffff168152602001908152602001600020614141565b816001600083815260200190815260200160002060006101000a81548173ffffffffffffffffffffffffffffffffffffffff021916908373ffffffffffffffffffffffffffffffffffffffff160217905550808273ffffffffffffffffffffffffffffffffffffffff168473ffffffffffffffffffffffffffffffffffffffff167fddf252ad1be2c89b69c2b068fc378daa952ba7f163c4a11628f55a4df523b3ef60405160405180910390a4505050565b60006138306001600560008673ffffffffffffffffffffffffffffffffffffffff1673ffffffffffffffffffffffffffffffffffffffff1681526020019081526020016000208054905061415790919063ffffffff16565b905060006006600084815260200190815260200160002054905081811461391d576000600560008673ffffffffffffffffffffffffffffffffffffffff1673ffffffffffffffffffffffffffffffffffffffff168152602001908152602001600020838154811061389d57fe5b9060005260206000200154905080600560008773ffffffffffffffffffffffffffffffffffffffff1673ffffffffffffffffffffffffffffffffffffffff16815260200190815260200160002083815481106138f557fe5b9060005260206000200181905550816006600083815260200190815260200160002081905550505b600560008573ffffffffffffffffffffffffffffffffffffffff1673ffffffffffffffffffffffffffffffffffffffff16815260200190815260200160002080548091906001900361396f9190614308565b5050505050565b600560008373ffffffffffffffffffffffffffffffffffffffff1673ffffffffffffffffffffffffffffffffffffffff168152602001908152602001600020805490506006600083815260200190815260200160002081905550600560008373ffffffffffffffffffffffffffffffffffffffff1673ffffffffffffffffffffffffffffffffffffffff1681526020019081526020016000208190806001815401808255809150509060018203906000526020600020016000909192909190915055505050565b613a478282613424565b613a9c576040517f08c379a00000000000000000000000000000000000000000000000000000000081526004018080602001828103825260218152602001806144b76021913960400191505060405180910390fd5b60008260000160008373ffffffffffffffffffffffffffffffffffffffff1673ffffffffffffffffffffffffffffffffffffffff16815260200190815260200160002060006101000a81548160ff0219169083151502179055505050565b613b048282613424565b15613b77576040517f08c379a000000000000000000000000000000000000000000000000000000000815260040180806020018281038252601f8152602001807f526f6c65733a206163636f756e7420616c72656164792068617320726f6c650081525060200191505060405180910390fd5b60018260000160008373ffffffffffffffffffffffffffffffffffffffff1673ffffffffffffffffffffffffffffffffffffffff16815260200190815260200160002060006101000a81548160ff0219169083151502179055505050565b806000600f60008381526020019081526020016000209050600181600301540181600201541015613c6e576040517f08c379a000000000000000000000000000000000000000000000000000000000815260040180806020018281038252600f8152602001807f737570706c79206f766572666c6f77000000000000000000000000000000000081525060200191505060405180910390fd5b826000600f60008381526020019081526020016000209050600015158160050160003373ffffffffffffffffffffffffffffffffffffffff1673ffffffffffffffffffffffffffffffffffffffff16815260200190815260200160002060009054906101000a900460ff16151514613d4e576040517f08c379a000000000000000000000000000000000000000000000000000000000815260040180806020018281038252600b8152602001807f747261646520657869737400000000000000000000000000000000000000000081525060200191505060405180910390fd5b613d5785612b28565b613d6057600080fd5b6000600f6000878152602001908152602001600020905060018160050160003373ffffffffffffffffffffffffffffffffffffffff1673ffffffffffffffffffffffffffffffffffffffff16815260200190815260200160002060006101000a81548160ff02191690831515021790555060018160030154018160030181905550505050505050565b600080823b905060008111915050919050565b600073ffffffffffffffffffffffffffffffffffffffff168273ffffffffffffffffffffffffffffffffffffffff161415613e9f576040517f08c379a00000000000000000000000000000000000000000000000000000000081526004018080602001828103825260208152602001807f4552433732313a206d696e7420746f20746865207a65726f206164647265737381525060200191505060405180910390fd5b613ea881612b28565b15613f1b576040517f08c379a000000000000000000000000000000000000000000000000000000000815260040180806020018281038252601c8152602001807f4552433732313a20746f6b656e20616c7265616479206d696e7465640000000081525060200191505060405180910390fd5b816001600083815260200190815260200160002060006101000a81548173ffffffffffffffffffffffffffffffffffffffff021916908373ffffffffffffffffffffffffffffffffffffffff160217905550613fb4600360008473ffffffffffffffffffffffffffffffffffffffff1673ffffffffffffffffffffffffffffffffffffffff168152602001908152602001600020614141565b808273ffffffffffffffffffffffffffffffffffffffff16600073ffffffffffffffffffffffffffffffffffffffff167fddf252ad1be2c89b69c2b068fc378daa952ba7f163c4a11628f55a4df523b3ef60405160405180910390a45050565b6007805490506008600083815260200190815260200160002081905550600781908060018154018082558091505090600182039060005260206000200160009091929091909150555050565b600073ffffffffffffffffffffffffffffffffffffffff166002600083815260200190815260200160002060009054906101000a900473ffffffffffffffffffffffffffffffffffffffff1673ffffffffffffffffffffffffffffffffffffffff161461411b5760006002600083815260200190815260200160002060006101000a81548173ffffffffffffffffffffffffffffffffffffffff021916908373ffffffffffffffffffffffffffffffffffffffff1602179055505b50565b6141366001826000015461415790919063ffffffff16565b816000018190555050565b6001816000016000828254019250508190555050565b6000828211156141cf576040517f08c379a000000000000000000000000000000000000000000000000000000000815260040180806020018281038252601e8152602001807f536166654d6174683a207375627472616374696f6e206f766572666c6f77000081525060200191505060405180910390fd5b600082840390508091505092915050565b828054600181600116156101000203166002900490600052602060002090601f016020900481019282601f1061422157803560ff191683800117855561424f565b8280016001018555821561424f579182015b8281111561424e578235825591602001919060010190614233565b5b50905061425c9190614334565b5090565b6040518060800160405280606081526020016060815260200160608152602001606081525090565b828054600181600116156101000203166002900490600052602060002090601f016020900481019282601f106142c957805160ff19168380011785556142f7565b828001600101855582156142f7579182015b828111156142f65782518255916020019190600101906142db565b5b5090506143049190614334565b5090565b81548183558181111561432f5781836000526020600020918201910161432e9190614334565b5b505050565b61435691905b8082111561435257600081600090555060010161433a565b5090565b9056fe455243373231456e756d657261626c653a206f776e657220696e646578206f7574206f6620626f756e64734552433732313a207472616e7366657220746f206e6f6e20455243373231526563656976657220696d706c656d656e7465726c696d697420737570706c79206d757374206265206f76657220746f74616c537570706c794552433732313a207472616e7366657220746f20746865207a65726f20616464726573734552433732313a206f70657261746f7220717565727920666f72206e6f6e6578697374656e7420746f6b656e4552433732313a20617070726f76652063616c6c6572206973206e6f74206f776e6572206e6f7220617070726f76656420666f7220616c6c4552433732313a2062616c616e636520717565727920666f7220746865207a65726f20616464726573734552433732313a206f776e657220717565727920666f72206e6f6e6578697374656e7420746f6b656e526f6c65733a206163636f756e7420646f6573206e6f74206861766520726f6c654552433732313a20617070726f76656420717565727920666f72206e6f6e6578697374656e7420746f6b656e526f6c65733a206163636f756e7420697320746865207a65726f20616464726573734552433732313a207472616e73666572206f6620746f6b656e2074686174206973206e6f74206f776e57686974656c69737441646d696e526f6c653a2063616c6c657220646f6573206e6f742068617665207468652057686974656c69737441646d696e20726f6c654552433732314d657461646174613a2055524920717565727920666f72206e6f6e6578697374656e7420746f6b656e57686974656c6973746564526f6c653a2063616c6c657220646f6573206e6f742068617665207468652057686974656c697374656420726f6c654552433732313a20617070726f76616c20746f2063757272656e74206f776e65724552433732313a207472616e736665722063616c6c6572206973206e6f74206f776e6572206e6f7220617070726f766564455243373231456e756d657261626c653a20676c6f62616c20696e646578206f7574206f6620626f756e6473a165627a7a72305820a13f63aae8d568f90afdd6046de5f9a1b1b1245e3a3e7beed5ac7fc6e85795670029526f6c65733a206163636f756e7420697320746865207a65726f2061646472657373",
  "source": "pragma solidity ^0.5.0;\n\nimport \"./TradeHistory.sol\";\n\ncontract TradePurchaser is TradeHistory {\n  struct TradePurchaseStruct {\n    uint256[] purchaseList;\n  }\n  mapping(address => TradePurchaseStruct) tradePurchased;\n\n  modifier sameTradePrice(\n    uint256 cid\n  ) \n  {\n    TradeStruct storage trade = tradeMap[cid];\n    require(msg.value == trade.price, \"trade price error\");\n    _;\n  }\n\n  function purchaseTrade(\n    uint256 cid\n  )\n    external\n    sameTradePrice(cid)\n    payable\n  {\n    super._purchaseTradeHistory(cid);\n    TradeStruct storage trade = tradeMap[cid];\n    tradePurchased[msg.sender].purchaseList.push(cid);\n    address(uint160(ownerOf(cid))).transfer(trade.price);\n  }\n\n  function countTradePurchased(\n  ) \n    public \n    view \n    returns(\n      uint256\n    ) \n  {\n    return tradePurchased[msg.sender].purchaseList.length;\n  }\n\n  modifier rangeTradeIndex(\n    uint256 index\n  ) \n  {\n    require(tradePurchased[msg.sender].purchaseList.length > index, \"index overflow\");\n    _;\n  }\n\n  function tradeAtIndex(\n    uint256 index\n  ) \n    public \n    view \n    rangeTradeIndex(\n      index\n    ) \n    returns(\n      uint256\n    ) \n  {\n    return tradePurchased[msg.sender].purchaseList[index];\n  }\n\n}",
  "sourcePath": "/Users/tech/dev/prd/programming-lectures/lesson011/contracts/Product/TradePurchaser.sol",
  "compiler": {
    "name": "solc",
    "version": "0.5.8+commit.23d335f2.Emscripten.clang"
  },
  "schemaVersion": "3.0.10",
  "updatedAt": "2019-06-10T03:16:51.777Z",
  "devdoc": {
    "methods": {
      "approve(address,uint256)": {
        "details": "Approves another address to transfer the given token ID The zero address indicates there is no approved address. There can only be one approved address per token at a given time. Can only be called by the token owner or an approved operator.",
        "params": {
          "to": "address to be approved for the given token ID",
          "tokenId": "uint256 ID of the token to be approved"
        }
      },
      "balanceOf(address)": {
        "details": "Gets the balance of the specified address.",
        "params": {
          "owner": "address to query the balance of"
        },
        "return": "uint256 representing the amount owned by the passed address"
      },
      "getApproved(uint256)": {
        "details": "Gets the approved address for a token ID, or zero if no address set Reverts if the token ID does not exist.",
        "params": {
          "tokenId": "uint256 ID of the token to query the approval of"
        },
        "return": "address currently approved for the given token ID"
      },
      "isApprovedForAll(address,address)": {
        "details": "Tells whether an operator is approved by a given owner.",
        "params": {
          "operator": "operator address which you want to query the approval of",
          "owner": "owner address which you want to query the approval of"
        },
        "return": "bool whether the given operator is approved by the given owner"
      },
      "name()": {
        "details": "Gets the token name.",
        "return": "string representing the token name"
      },
      "ownerOf(uint256)": {
        "details": "Gets the owner of the specified token ID.",
        "params": {
          "tokenId": "uint256 ID of the token to query the owner of"
        },
        "return": "address currently marked as the owner of the given token ID"
      },
      "safeTransferFrom(address,address,uint256)": {
        "details": "Safely transfers the ownership of a given token ID to another address If the target address is a contract, it must implement `onERC721Received`, which is called upon a safe transfer, and return the magic value `bytes4(keccak256(\"onERC721Received(address,address,uint256,bytes)\"))`; otherwise, the transfer is reverted. Requires the msg.sender to be the owner, approved, or operator",
        "params": {
          "from": "current owner of the token",
          "to": "address to receive the ownership of the given token ID",
          "tokenId": "uint256 ID of the token to be transferred"
        }
      },
      "safeTransferFrom(address,address,uint256,bytes)": {
        "details": "Safely transfers the ownership of a given token ID to another address If the target address is a contract, it must implement `onERC721Received`, which is called upon a safe transfer, and return the magic value `bytes4(keccak256(\"onERC721Received(address,address,uint256,bytes)\"))`; otherwise, the transfer is reverted. Requires the msg.sender to be the owner, approved, or operator",
        "params": {
          "_data": "bytes data to send along with a safe transfer check",
          "from": "current owner of the token",
          "to": "address to receive the ownership of the given token ID",
          "tokenId": "uint256 ID of the token to be transferred"
        }
      },
      "setApprovalForAll(address,bool)": {
        "details": "Sets or unsets the approval of a given operator An operator is allowed to transfer all tokens of the sender on their behalf.",
        "params": {
          "approved": "representing the status of the approval to be set",
          "to": "operator address to set the approval"
        }
      },
      "supportsInterface(bytes4)": {
        "details": "See `IERC165.supportsInterface`.     * Time complexity O(1), guaranteed to always use less than 30 000 gas."
      },
      "symbol()": {
        "details": "Gets the token symbol.",
        "return": "string representing the token symbol"
      },
      "tokenByIndex(uint256)": {
        "details": "Gets the token ID at a given index of all the tokens in this contract Reverts if the index is greater or equal to the total number of tokens.",
        "params": {
          "index": "uint256 representing the index to be accessed of the tokens list"
        },
        "return": "uint256 token ID at the given index of the tokens list"
      },
      "tokenOfOwnerByIndex(address,uint256)": {
        "details": "Gets the token ID at a given index of the tokens list of the requested owner.",
        "params": {
          "index": "uint256 representing the index to be accessed of the requested tokens list",
          "owner": "address owning the tokens list to be accessed"
        },
        "return": "uint256 token ID at the given index of the tokens list owned by the requested address"
      },
      "tokenURI(uint256)": {
        "details": "Returns an URI for a given token ID. Throws if the token ID does not exist. May return an empty string.",
        "params": {
          "tokenId": "uint256 ID of the token to query"
        }
      },
      "totalSupply()": {
        "details": "Gets the total amount of tokens stored by the contract.",
        "return": "uint256 representing the total amount of tokens"
      },
      "transferFrom(address,address,uint256)": {
        "details": "Transfers the ownership of a given token ID to another address. Usage of this method is discouraged, use `safeTransferFrom` whenever possible. Requires the msg.sender to be the owner, approved, or operator.",
        "params": {
          "from": "current owner of the token",
          "to": "address to receive the ownership of the given token ID",
          "tokenId": "uint256 ID of the token to be transferred"
        }
      }
    }
  },
  "userdoc": {
    "methods": {}
  }
}