{
  "contractName": "Todo",
  "abi": [
    {
      "inputs": [],
      "payable": false,
      "stateMutability": "nonpayable",
      "type": "constructor"
    },
    {
      "anonymous": false,
      "inputs": [
        {
          "indexed": false,
          "name": "",
          "type": "uint256"
        },
        {
          "indexed": false,
          "name": "",
          "type": "uint256"
        },
        {
          "indexed": false,
          "name": "",
          "type": "string"
        },
        {
          "indexed": false,
          "name": "",
          "type": "string"
        },
        {
          "indexed": false,
          "name": "",
          "type": "string"
        },
        {
          "indexed": false,
          "name": "",
          "type": "bool"
        }
      ],
      "name": "TaskCreated",
      "type": "event"
    },
    {
      "constant": false,
      "inputs": [
        {
          "name": "_title",
          "type": "string"
        },
        {
          "name": "_description",
          "type": "string"
        },
        {
          "name": "_author",
          "type": "string"
        }
      ],
      "name": "createTask",
      "outputs": [],
      "payable": false,
      "stateMutability": "nonpayable",
      "type": "function"
    },
    {
      "constant": true,
      "inputs": [],
      "name": "getTaskIds",
      "outputs": [
        {
          "name": "",
          "type": "uint256[]"
        }
      ],
      "payable": false,
      "stateMutability": "view",
      "type": "function"
    },
    {
      "constant": false,
      "inputs": [
        {
          "name": "message",
          "type": "string"
        }
      ],
      "name": "setGreeting",
      "outputs": [],
      "payable": false,
      "stateMutability": "nonpayable",
      "type": "function"
    },
    {
      "constant": true,
      "inputs": [],
      "name": "getGreeting",
      "outputs": [
        {
          "name": "",
          "type": "string"
        }
      ],
      "payable": false,
      "stateMutability": "view",
      "type": "function"
    },
    {
      "constant": true,
      "inputs": [
        {
          "name": "id",
          "type": "uint256"
        }
      ],
      "name": "getTask",
      "outputs": [
        {
          "name": "",
          "type": "uint256"
        },
        {
          "name": "",
          "type": "uint256"
        },
        {
          "name": "",
          "type": "string"
        },
        {
          "name": "",
          "type": "string"
        },
        {
          "name": "",
          "type": "string"
        },
        {
          "name": "",
          "type": "bool"
        }
      ],
      "payable": false,
      "stateMutability": "view",
      "type": "function"
    }
  ],
  "bytecode": "0x608060405234801561001057600080fd5b5060006001819055506040518060400160405280601381526020017f48656c6c6f20536d617274436f6e7472616374000000000000000000000000008152506000908051906020019061006492919061006a565b5061010f565b828054600181600116156101000203166002900490600052602060002090601f016020900481019282601f106100ab57805160ff19168380011785556100d9565b828001600101855582156100d9579182015b828111156100d85782518255916020019190600101906100bd565b5b5090506100e691906100ea565b5090565b61010c91905b808211156101085760008160009055506001016100f0565b5090565b90565b610d8e8061011e6000396000f3fe608060405234801561001057600080fd5b50600436106100575760003560e01c80631d65e77e1461005c578063a4136862146101f4578063bcd14805146102af578063d2344f0a1461030e578063fe50cc72146104f7575b600080fd5b6100886004803603602081101561007257600080fd5b810190808035906020019092919050505061057a565b6040518087815260200186815260200180602001806020018060200185151515158152602001848103845288818151815260200191508051906020019080838360005b838110156100e65780820151818401526020810190506100cb565b50505050905090810190601f1680156101135780820380516001836020036101000a031916815260200191505b50848103835287818151815260200191508051906020019080838360005b8381101561014c578082015181840152602081019050610131565b50505050905090810190601f1680156101795780820380516001836020036101000a031916815260200191505b50848103825286818151815260200191508051906020019080838360005b838110156101b2578082015181840152602081019050610197565b50505050905090810190601f1680156101df5780820380516001836020036101000a031916815260200191505b50995050505050505050505060405180910390f35b6102ad6004803603602081101561020a57600080fd5b810190808035906020019064010000000081111561022757600080fd5b82018360208201111561023957600080fd5b8035906020019184600183028401116401000000008311171561025b57600080fd5b91908080601f016020809104026020016040519081016040528093929190818152602001838380828437600081840152601f19601f82011690508083019250505050505050919291929050505061087a565b005b6102b7610894565b6040518080602001828103825283818151815260200191508051906020019060200280838360005b838110156102fa5780820151818401526020810190506102df565b505050509050019250505060405180910390f35b6104f56004803603606081101561032457600080fd5b810190808035906020019064010000000081111561034157600080fd5b82018360208201111561035357600080fd5b8035906020019184600183028401116401000000008311171561037557600080fd5b91908080601f016020809104026020016040519081016040528093929190818152602001838380828437600081840152601f19601f820116905080830192505050505050509192919290803590602001906401000000008111156103d857600080fd5b8201836020820111156103ea57600080fd5b8035906020019184600183028401116401000000008311171561040c57600080fd5b91908080601f016020809104026020016040519081016040528093929190818152602001838380828437600081840152601f19601f8201169050808301925050505050505091929192908035906020019064010000000081111561046f57600080fd5b82018360208201111561048157600080fd5b803590602001918460018302840111640100000000831117156104a357600080fd5b91908080601f016020809104026020016040519081016040528093929190818152602001838380828437600081840152601f19601f8201169050808301925050505050505091929192905050506108ec565b005b6104ff610b9b565b6040518080602001828103825283818151815260200191508051906020019080838360005b8381101561053f578082015181840152602081019050610524565b50505050905090810190601f16801561056c5780820380516001836020036101000a031916815260200191505b509250505060405180910390f35b6000806060806060600086600060036000838152602001908152602001600020600001541415610612576040517f08c379a00000000000000000000000000000000000000000000000000000000081526004018080602001828103825260078152602001807f6e6f207461736b0000000000000000000000000000000000000000000000000081525060200191505060405180910390fd5b87600360008a815260200190815260200160002060010154600360008b8152602001908152602001600020600201600360008c8152602001908152602001600020600301600360008d8152602001908152602001600020600401600360008e815260200190815260200160002060050160009054906101000a900460ff16838054600181600116156101000203166002900480601f0160208091040260200160405190810160405280929190818152602001828054600181600116156101000203166002900480156107255780601f106106fa57610100808354040283529160200191610725565b820191906000526020600020905b81548152906001019060200180831161070857829003601f168201915b50505050509350828054600181600116156101000203166002900480601f0160208091040260200160405190810160405280929190818152602001828054600181600116156101000203166002900480156107c15780601f10610796576101008083540402835291602001916107c1565b820191906000526020600020905b8154815290600101906020018083116107a457829003601f168201915b50505050509250818054600181600116156101000203166002900480601f01602080910402602001604051908101604052809291908181526020018280546001816001161561010002031660029004801561085d5780601f106108325761010080835404028352916020019161085d565b820191906000526020600020905b81548152906001019060200180831161084057829003601f168201915b505050505091509650965096509650965096505091939550919395565b8060009080519060200190610890929190610c3d565b5050565b606060028054806020026020016040519081016040528092919081815260200182805480156108e257602002820191906000526020600020905b8154815260200190600101908083116108ce575b5050505050905090565b6001600081548092919060010191905055506040518060c0016040528060015481526020014281526020018481526020018381526020018281526020016000151581525060036000600154815260200190815260200160002060008201518160000155602082015181600101556040820151816002019080519060200190610975929190610cbd565b506060820151816003019080519060200190610992929190610cbd565b5060808201518160040190805190602001906109af929190610cbd565b5060a08201518160050160006101000a81548160ff021916908315150217905550905050600260015490806001815401808255809150509060018203906000526020600020016000909192909190915055507f72c61ab6fc1b9c5fdcc7a46fa3d5b65d38989bfc5388ac6ad50867912dc12cc16001544285858560006040518087815260200186815260200180602001806020018060200185151515158152602001848103845288818151815260200191508051906020019080838360005b83811015610a89578082015181840152602081019050610a6e565b50505050905090810190601f168015610ab65780820380516001836020036101000a031916815260200191505b50848103835287818151815260200191508051906020019080838360005b83811015610aef578082015181840152602081019050610ad4565b50505050905090810190601f168015610b1c5780820380516001836020036101000a031916815260200191505b50848103825286818151815260200191508051906020019080838360005b83811015610b55578082015181840152602081019050610b3a565b50505050905090810190601f168015610b825780820380516001836020036101000a031916815260200191505b50995050505050505050505060405180910390a1505050565b606060008054600181600116156101000203166002900480601f016020809104026020016040519081016040528092919081815260200182805460018160011615610100020316600290048015610c335780601f10610c0857610100808354040283529160200191610c33565b820191906000526020600020905b815481529060010190602001808311610c1657829003601f168201915b5050505050905090565b828054600181600116156101000203166002900490600052602060002090601f016020900481019282601f10610c7e57805160ff1916838001178555610cac565b82800160010185558215610cac579182015b82811115610cab578251825591602001919060010190610c90565b5b509050610cb99190610d3d565b5090565b828054600181600116156101000203166002900490600052602060002090601f016020900481019282601f10610cfe57805160ff1916838001178555610d2c565b82800160010185558215610d2c579182015b82811115610d2b578251825591602001919060010190610d10565b5b509050610d399190610d3d565b5090565b610d5f91905b80821115610d5b576000816000905550600101610d43565b5090565b9056fea165627a7a72305820aafdab9b336b462e59d52f7ce5873ccbe4edcb539567b4d93b89be952c7270e20029",
  "source": "pragma solidity ^0.5.0;\n\ncontract Todo {\n\n  string greeting;\n\n  struct Task {\n    uint id;\n    uint date;\n    string title;\n    string description;\n    string author;\n    bool done;\n  }\n\n  uint lastTaskId;\n  uint[] taskIds;\n  mapping(uint => Task) tasks;\n\n  event TaskCreated(uint, uint, string, string, string, bool);\n\n  constructor () public {\n    lastTaskId = 0;\n    greeting = \"Hello SmartContract\";\n  }\n\n  function createTask(string memory _title, string memory _description, string memory _author) public {\n    lastTaskId++;\n    tasks[lastTaskId] = Task(lastTaskId, block.timestamp, _title, _description, _author, false);\n    taskIds.push(lastTaskId);\n    emit TaskCreated(lastTaskId, block.timestamp, _title, _description, _author, false);\n  }\n\n  function getTaskIds() public view returns(uint[] memory) {\n    return taskIds;\n  }\n\n  function setGreeting(string memory message) public {\n    greeting = message;\n  }\n\n  function getGreeting() public view returns(string memory) {\n    return greeting;\n  }\n\n  function getTask(uint id) public taskExists(id) view returns(\n    uint,\n    uint,\n    string memory,\n    string memory,\n    string memory,\n    bool\n  ) {\n    return (\n      id,\n      tasks[id].date,\n      tasks[id].title,\n      tasks[id].description,\n      tasks[id].author,\n      tasks[id].done\n    );\n  }\n\n  modifier taskExists(uint id) {\n    require(tasks[id].id != 0, \"no task\");\n    _;\n  }\n}",
  "sourcePath": "/Users/tech/dev/prd/programming-lectures/lesson006/contracts/Todo.sol",
  "compiler": {
    "name": "solc",
    "version": "0.5.8+commit.23d335f2.Emscripten.clang"
  },
  "schemaVersion": "3.0.10",
  "updatedAt": "2019-06-04T14:37:39.223Z",
  "devdoc": {
    "methods": {}
  },
  "userdoc": {
    "methods": {}
  }
}